{
  "_format": "hh-sol-artifact-1",
  "contractName": "TellorTest",
  "sourceName": "contracts/mocks/TellorTest.sol",
  "abi": [
    {
      "constant": false,
      "inputs": [
        {
          "internalType": "uint256",
          "name": "_requestId",
          "type": "uint256"
        },
        {
          "internalType": "uint256",
          "name": "_tip",
          "type": "uint256"
        }
      ],
      "name": "addTip",
      "outputs": [],
      "payable": false,
      "stateMutability": "nonpayable",
      "type": "function"
    },
    {
      "constant": false,
      "inputs": [
        {
          "internalType": "address",
          "name": "_spender",
          "type": "address"
        },
        {
          "internalType": "uint256",
          "name": "_amount",
          "type": "uint256"
        }
      ],
      "name": "approve",
      "outputs": [
        {
          "internalType": "bool",
          "name": "",
          "type": "bool"
        }
      ],
      "payable": false,
      "stateMutability": "nonpayable",
      "type": "function"
    },
    {
      "constant": false,
      "inputs": [
        {
          "internalType": "uint256",
          "name": "_requestId",
          "type": "uint256"
        },
        {
          "internalType": "uint256",
          "name": "_timestamp",
          "type": "uint256"
        },
        {
          "internalType": "uint256",
          "name": "_minerIndex",
          "type": "uint256"
        }
      ],
      "name": "beginDispute",
      "outputs": [],
      "payable": false,
      "stateMutability": "nonpayable",
      "type": "function"
    },
    {
      "constant": true,
      "inputs": [],
      "name": "decimals",
      "outputs": [
        {
          "internalType": "uint8",
          "name": "",
          "type": "uint8"
        }
      ],
      "payable": false,
      "stateMutability": "pure",
      "type": "function"
    },
    {
      "constant": false,
      "inputs": [],
      "name": "depositStake",
      "outputs": [],
      "payable": false,
      "stateMutability": "nonpayable",
      "type": "function"
    },
    {
      "constant": true,
      "inputs": [],
      "name": "getNewCurrentVariables",
      "outputs": [
        {
          "internalType": "bytes32",
          "name": "_challenge",
          "type": "bytes32"
        },
        {
          "internalType": "uint256[5]",
          "name": "_requestIds",
          "type": "uint256[5]"
        },
        {
          "internalType": "uint256",
          "name": "_difficutly",
          "type": "uint256"
        },
        {
          "internalType": "uint256",
          "name": "_tip",
          "type": "uint256"
        }
      ],
      "payable": false,
      "stateMutability": "view",
      "type": "function"
    },
    {
      "constant": true,
      "inputs": [],
      "name": "getNewVariablesOnDeck",
      "outputs": [
        {
          "internalType": "uint256[5]",
          "name": "idsOnDeck",
          "type": "uint256[5]"
        },
        {
          "internalType": "uint256[5]",
          "name": "tipsOnDeck",
          "type": "uint256[5]"
        }
      ],
      "payable": false,
      "stateMutability": "view",
      "type": "function"
    },
    {
      "constant": true,
      "inputs": [],
      "name": "getTopRequestIDs",
      "outputs": [
        {
          "internalType": "uint256[5]",
          "name": "_requestIds",
          "type": "uint256[5]"
        }
      ],
      "payable": false,
      "stateMutability": "view",
      "type": "function"
    },
    {
      "constant": false,
      "inputs": [
        {
          "internalType": "uint256",
          "name": "_diff",
          "type": "uint256"
        }
      ],
      "name": "manuallySetDifficulty",
      "outputs": [],
      "payable": false,
      "stateMutability": "nonpayable",
      "type": "function"
    },
    {
      "constant": true,
      "inputs": [],
      "name": "name",
      "outputs": [
        {
          "internalType": "string",
          "name": "",
          "type": "string"
        }
      ],
      "payable": false,
      "stateMutability": "pure",
      "type": "function"
    },
    {
      "constant": false,
      "inputs": [
        {
          "internalType": "address",
          "name": "_propNewTellorAddress",
          "type": "address"
        }
      ],
      "name": "proposeFork",
      "outputs": [],
      "payable": false,
      "stateMutability": "nonpayable",
      "type": "function"
    },
    {
      "constant": false,
      "inputs": [],
      "name": "requestStakingWithdraw",
      "outputs": [],
      "payable": false,
      "stateMutability": "nonpayable",
      "type": "function"
    },
    {
      "constant": false,
      "inputs": [
        {
          "internalType": "string",
          "name": "_nonce",
          "type": "string"
        },
        {
          "internalType": "uint256[5]",
          "name": "_requestId",
          "type": "uint256[5]"
        },
        {
          "internalType": "uint256[5]",
          "name": "_value",
          "type": "uint256[5]"
        }
      ],
      "name": "submitMiningSolution",
      "outputs": [],
      "payable": false,
      "stateMutability": "nonpayable",
      "type": "function"
    },
    {
      "constant": true,
      "inputs": [],
      "name": "symbol",
      "outputs": [
        {
          "internalType": "string",
          "name": "",
          "type": "string"
        }
      ],
      "payable": false,
      "stateMutability": "pure",
      "type": "function"
    },
    {
      "constant": false,
      "inputs": [
        {
          "internalType": "uint256",
          "name": "_disputeId",
          "type": "uint256"
        }
      ],
      "name": "tallyVotes",
      "outputs": [],
      "payable": false,
      "stateMutability": "nonpayable",
      "type": "function"
    },
    {
      "constant": false,
      "inputs": [
        {
          "internalType": "string",
          "name": "_nonce",
          "type": "string"
        },
        {
          "internalType": "uint256[5]",
          "name": "_requestId",
          "type": "uint256[5]"
        },
        {
          "internalType": "uint256[5]",
          "name": "_value",
          "type": "uint256[5]"
        }
      ],
      "name": "testSubmitMiningSolution",
      "outputs": [],
      "payable": false,
      "stateMutability": "nonpayable",
      "type": "function"
    },
    {
      "constant": false,
      "inputs": [
        {
          "internalType": "address",
          "name": "_address",
          "type": "address"
        },
        {
          "internalType": "uint256",
          "name": "_amount",
          "type": "uint256"
        }
      ],
      "name": "theLazyCoon",
      "outputs": [],
      "payable": false,
      "stateMutability": "nonpayable",
      "type": "function"
    },
    {
      "constant": false,
      "inputs": [
        {
          "internalType": "address",
          "name": "_to",
          "type": "address"
        },
        {
          "internalType": "uint256",
          "name": "_amount",
          "type": "uint256"
        }
      ],
      "name": "transfer",
      "outputs": [
        {
          "internalType": "bool",
          "name": "",
          "type": "bool"
        }
      ],
      "payable": false,
      "stateMutability": "nonpayable",
      "type": "function"
    },
    {
      "constant": false,
      "inputs": [
        {
          "internalType": "address",
          "name": "_from",
          "type": "address"
        },
        {
          "internalType": "address",
          "name": "_to",
          "type": "address"
        },
        {
          "internalType": "uint256",
          "name": "_amount",
          "type": "uint256"
        }
      ],
      "name": "transferFrom",
      "outputs": [
        {
          "internalType": "bool",
          "name": "",
          "type": "bool"
        }
      ],
      "payable": false,
      "stateMutability": "nonpayable",
      "type": "function"
    },
    {
      "constant": false,
      "inputs": [
        {
          "internalType": "uint256",
          "name": "_disputeId",
          "type": "uint256"
        }
      ],
      "name": "unlockDisputeFee",
      "outputs": [],
      "payable": false,
      "stateMutability": "nonpayable",
      "type": "function"
    },
    {
      "constant": false,
      "inputs": [
        {
          "internalType": "uint256",
          "name": "_disputeId",
          "type": "uint256"
        }
      ],
      "name": "updateTellor",
      "outputs": [],
      "payable": false,
      "stateMutability": "nonpayable",
      "type": "function"
    },
    {
      "constant": false,
      "inputs": [
        {
          "internalType": "uint256",
          "name": "_disputeId",
          "type": "uint256"
        },
        {
          "internalType": "bool",
          "name": "_supportsDispute",
          "type": "bool"
        }
      ],
      "name": "vote",
      "outputs": [],
      "payable": false,
      "stateMutability": "nonpayable",
      "type": "function"
    },
    {
      "constant": false,
      "inputs": [],
      "name": "withdrawStake",
      "outputs": [],
      "payable": false,
      "stateMutability": "nonpayable",
      "type": "function"
    }
  ],
  "bytecode": "0x608060405234801561001057600080fd5b506137d8806100206000396000f3fe608060405234801561001057600080fd5b506004361061014d5760003560e01c80638581af19116100c3578063bed9d8611161007c578063bed9d861146106a8578063c52e9539146106b2578063c9d27afe146106e0578063d47f0dd41461071a578063f458ab98146107a8578063fe1cd15d146107d65761014d565b80638581af191461048c57806395d89b41146104ce5780639a01ca13146105515780639a7077ab1461057f578063a9059cbb146105f4578063b079f64a1461065a5761014d565b806328449c3a1161011557806328449c3a1461030f578063313ce567146103195780634049f1981461033d5780634350283e146103985780634d318b0e14610426578063752d49a1146104545761014d565b806306fdde0314610152578063095ea7b3146101d55780630d2d76a21461023b57806323b872dd1461024557806326b7d9f6146102cb575b600080fd5b61015a61081c565b6040518080602001828103825283818151815260200191508051906020019080838360005b8381101561019a57808201518184015260208101905061017f565b50505050905090810190601f1680156101c75780820380516001836020036101000a031916815260200191505b509250505060405180910390f35b610221600480360360408110156101eb57600080fd5b81019080803573ffffffffffffffffffffffffffffffffffffffff16906020019092919080359060200190929190505050610859565b604051808215151515815260200191505060405180910390f35b61024361092b565b005b6102b16004803603606081101561025b57600080fd5b81019080803573ffffffffffffffffffffffffffffffffffffffff169060200190929190803573ffffffffffffffffffffffffffffffffffffffff16906020019092919080359060200190929190505050610997565b604051808215151515815260200191505060405180910390f35b61030d600480360360208110156102e157600080fd5b81019080803573ffffffffffffffffffffffffffffffffffffffff169060200190929190505050610a9e565b005b610317610b3f565b005b610321610bab565b604051808260ff1660ff16815260200191505060405180910390f35b610345610bb4565b6040518085815260200184600560200280838360005b8381101561037657808201518184015260208101905061035b565b5050505090500183815260200182815260200194505050505060405180910390f35b61042460048036036101608110156103af57600080fd5b81019080803590602001906401000000008111156103cc57600080fd5b8201836020820111156103de57600080fd5b8035906020019184600183028401116401000000008311171561040057600080fd5b90919293919293908060a0019091929192908060a001909192919290505050610bd9565b005b6104526004803603602081101561043c57600080fd5b8101908080359060200190929190505050610cc3565b005b61048a6004803603604081101561046a57600080fd5b810190808035906020019092919080359060200190929190505050610d38565b005b6104cc600480360360608110156104a257600080fd5b81019080803590602001909291908035906020019092919080359060200190929190505050610db6565b005b6104d6610e3d565b6040518080602001828103825283818151815260200191508051906020019080838360005b838110156105165780820151818401526020810190506104fb565b50505050905090810190601f1680156105435780820380516001836020036101000a031916815260200191505b509250505060405180910390f35b61057d6004803603602081101561056757600080fd5b8101908080359060200190929190505050610e7a565b005b610587610eef565b6040518083600560200280838360005b838110156105b2578082015181840152602081019050610597565b5050505090500182600560200280838360005b838110156105e05780820151818401526020810190506105c5565b505050509050019250505060405180910390f35b6106406004803603604081101561060a57600080fd5b81019080803573ffffffffffffffffffffffffffffffffffffffff16906020019092919080359060200190929190505050610f11565b604051808215151515815260200191505060405180910390f35b6106a66004803603604081101561067057600080fd5b81019080803573ffffffffffffffffffffffffffffffffffffffff16906020019092919080359060200190929190505050610fe3565b005b6106b061108d565b005b6106de600480360360208110156106c857600080fd5b81019080803590602001909291905050506110f9565b005b610718600480360360408110156106f657600080fd5b810190808035906020019092919080351515906020019092919050505061116e565b005b6107a6600480360361016081101561073157600080fd5b810190808035906020019064010000000081111561074e57600080fd5b82018360208201111561076057600080fd5b8035906020019184600183028401116401000000008311171561078257600080fd5b90919293919293908060a0019091929192908060a0019091929192905050506111f0565b005b6107d4600480360360208110156107be57600080fd5b81019080803590602001909291905050506112c0565b005b6107de611335565b6040518082600560200280838360005b838110156108095780820151818401526020810190506107ee565b5050505090500191505060405180910390f35b60606040518060400160405280600f81526020017f54656c6c6f722054726962757465730000000000000000000000000000000000815250905090565b60008073__$e6d6eab054cf6cc8ad21596dd9777aec01$__63850dcc32909185856040518463ffffffff1660e01b8152600401808481526020018373ffffffffffffffffffffffffffffffffffffffff1673ffffffffffffffffffffffffffffffffffffffff168152602001828152602001935050505060206040518083038186803b1580156108e857600080fd5b505af41580156108fc573d6000803e3d6000fd5b505050506040513d602081101561091257600080fd5b8101908080519060200190929190505050905092915050565b600073__$3c63e47b50370f30fae579c3aa38018afe$__63820a2d6690916040518263ffffffff1660e01b81526004018082815260200191505060006040518083038186803b15801561097d57600080fd5b505af4158015610991573d6000803e3d6000fd5b50505050565b60008073__$e6d6eab054cf6cc8ad21596dd9777aec01$__63ca50189990918686866040518563ffffffff1660e01b8152600401808581526020018473ffffffffffffffffffffffffffffffffffffffff1673ffffffffffffffffffffffffffffffffffffffff1681526020018373ffffffffffffffffffffffffffffffffffffffff1673ffffffffffffffffffffffffffffffffffffffff16815260200182815260200194505050505060206040518083038186803b158015610a5a57600080fd5b505af4158015610a6e573d6000803e3d6000fd5b505050506040513d6020811015610a8457600080fd5b810190808051906020019092919050505090509392505050565b600073__$6eea42fadb496cf5107a5a057a700a86ef$__63694bf49f9091836040518363ffffffff1660e01b8152600401808381526020018273ffffffffffffffffffffffffffffffffffffffff1673ffffffffffffffffffffffffffffffffffffffff1681526020019250505060006040518083038186803b158015610b2457600080fd5b505af4158015610b38573d6000803e3d6000fd5b5050505050565b600073__$3c63e47b50370f30fae579c3aa38018afe$__63c9cf5e4c90916040518263ffffffff1660e01b81526004018082815260200191505060006040518083038186803b158015610b9157600080fd5b505af4158015610ba5573d6000803e3d6000fd5b50505050565b60006012905090565b6000610bbe6135ec565b600080610bcb600061134c565b935093509350935090919293565b600073__$b4792b85839a28132e2f342dfaea79a7fb$__63a4bc40679091868686866040518663ffffffff1660e01b8152600401808681526020018060200184600560200280828437600081840152601f19601f82011690508083019250505083600560200280828437600081840152601f19601f8201169050808301925050508281038252868682818152602001925080828437600081840152601f19601f820116905080830192505050965050505050505060006040518083038186803b158015610ca557600080fd5b505af4158015610cb9573d6000803e3d6000fd5b5050505050505050565b600073__$6eea42fadb496cf5107a5a057a700a86ef$__63def6fac79091836040518363ffffffff1660e01b8152600401808381526020018281526020019250505060006040518083038186803b158015610d1d57600080fd5b505af4158015610d31573d6000803e3d6000fd5b5050505050565b600073__$b4792b85839a28132e2f342dfaea79a7fb$__6302e8f21b909184846040518463ffffffff1660e01b815260040180848152602001838152602001828152602001935050505060006040518083038186803b158015610d9a57600080fd5b505af4158015610dae573d6000803e3d6000fd5b505050505050565b600073__$6eea42fadb496cf5107a5a057a700a86ef$__63ca9a4ea590918585856040518563ffffffff1660e01b81526004018085815260200184815260200183815260200182815260200194505050505060006040518083038186803b158015610e2057600080fd5b505af4158015610e34573d6000803e3d6000fd5b50505050505050565b60606040518060400160405280600381526020017f5452420000000000000000000000000000000000000000000000000000000000815250905090565b600073__$6eea42fadb496cf5107a5a057a700a86ef$__6397f5f9729091836040518363ffffffff1660e01b8152600401808381526020018281526020019250505060006040518083038186803b158015610ed457600080fd5b505af4158015610ee8573d6000803e3d6000fd5b5050505050565b610ef76135ec565b610eff6135ec565b610f09600061144d565b915091509091565b60008073__$e6d6eab054cf6cc8ad21596dd9777aec01$__63c84b96f5909185856040518463ffffffff1660e01b8152600401808481526020018373ffffffffffffffffffffffffffffffffffffffff1673ffffffffffffffffffffffffffffffffffffffff168152602001828152602001935050505060206040518083038186803b158015610fa057600080fd5b505af4158015610fb4573d6000803e3d6000fd5b505050506040513d6020811015610fca57600080fd5b8101908080519060200190929190505050905092915050565b600073__$ef9a7d29b765fcdd38046f1a6e0f0fa5d8$__6348656ba6909184846040518463ffffffff1660e01b8152600401808481526020018373ffffffffffffffffffffffffffffffffffffffff1673ffffffffffffffffffffffffffffffffffffffff168152602001828152602001935050505060006040518083038186803b15801561107157600080fd5b505af4158015611085573d6000803e3d6000fd5b505050505050565b600073__$3c63e47b50370f30fae579c3aa38018afe$__6344bacc4b90916040518263ffffffff1660e01b81526004018082815260200191505060006040518083038186803b1580156110df57600080fd5b505af41580156110f3573d6000803e3d6000fd5b50505050565b600073__$ef9a7d29b765fcdd38046f1a6e0f0fa5d8$__633a7f80789091836040518363ffffffff1660e01b8152600401808381526020018281526020019250505060006040518083038186803b15801561115357600080fd5b505af4158015611167573d6000803e3d6000fd5b5050505050565b600073__$6eea42fadb496cf5107a5a057a700a86ef$__632da0706e909184846040518463ffffffff1660e01b81526004018084815260200183815260200182151515158152602001935050505060006040518083038186803b1580156111d457600080fd5b505af41580156111e8573d6000803e3d6000fd5b505050505050565b6112ba84848080601f016020809104026020016040519081016040528093929190818152602001838380828437600081840152601f19601f82011690508083019250505050505050836005806020026040519081016040528092919082600560200280828437600081840152601f19601f820116905080830192505050505050836005806020026040519081016040528092919082600560200280828437600081840152601f19601f820116905080830192505050505050600061150e909392919063ffffffff16565b50505050565b600073__$6eea42fadb496cf5107a5a057a700a86ef$__6322048ecf9091836040518363ffffffff1660e01b8152600401808381526020018281526020019250505060006040518083038186803b15801561131a57600080fd5b505af415801561132e573d6000803e3d6000fd5b5050505050565b61133d6135ec565b6113476000612053565b905090565b60006113566135ec565b60008060008090505b60058110156113a15785603501816005811061137757fe5b600202016000015484826005811061138b57fe5b602002018181525050808060010191505061135f565b5084600001548386604001600060405180807f646966666963756c747900000000000000000000000000000000000000000000815250600a019050604051809103902081526020019081526020016000205487604001600060405180807f63757272656e74546f74616c54697073000000000000000000000000000000008152506010019050604051809103902081526020019081526020016000205493509350935093509193509193565b6114556135ec565b61145d6135ec565b61146683612053565b915060008090505b60058110156115085783604801600084836005811061148957fe5b60200201518152602001908152602001600020600401600060405180807f746f74616c546970000000000000000000000000000000000000000000000000815250600801905060405180910390208152602001908152602001600020548282600581106114f257fe5b602002018181525050808060010191505061146e565b50915091565b600033604051602001808273ffffffffffffffffffffffffffffffffffffffff1673ffffffffffffffffffffffffffffffffffffffff16815260200191505060405160208183030381529060405280519060200120905060018560470160003373ffffffffffffffffffffffffffffffffffffffff1673ffffffffffffffffffffffffffffffffffffffff168152602001908152602001600020600001541461161f576040517f08c379a000000000000000000000000000000000000000000000000000000000815260040180806020018281038252601a8152602001807f4d696e657220737461747573206973206e6f74207374616b657200000000000081525060200191505060405180910390fd5b61038485604001600083815260200190815260200160002054420311611690576040517f08c379a000000000000000000000000000000000000000000000000000000000815260040180806020018281038252602a815260200180613759602a913960400191505060405180910390fd5b846035016000600581106116a057fe5b6002020160000154836000600581106116b557fe5b60200201511461172d576040517f08c379a00000000000000000000000000000000000000000000000000000000081526004018080602001828103825260138152602001807f526571756573742049442069732077726f6e670000000000000000000000000081525060200191505060405180910390fd5b8460350160016005811061173d57fe5b60020201600001548360016005811061175257fe5b6020020151146117ca576040517f08c379a00000000000000000000000000000000000000000000000000000000081526004018080602001828103825260138152602001807f526571756573742049442069732077726f6e670000000000000000000000000081525060200191505060405180910390fd5b846035016002600581106117da57fe5b6002020160000154836002600581106117ef57fe5b602002015114611867576040517f08c379a00000000000000000000000000000000000000000000000000000000081526004018080602001828103825260138152602001807f526571756573742049442069732077726f6e670000000000000000000000000081525060200191505060405180910390fd5b8460350160036005811061187757fe5b60020201600001548360036005811061188c57fe5b602002015114611904576040517f08c379a00000000000000000000000000000000000000000000000000000000081526004018080602001828103825260138152602001807f526571756573742049442069732077726f6e670000000000000000000000000081525060200191505060405180910390fd5b8460350160046005811061191457fe5b60020201600001548360046005811061192957fe5b6020020151146119a1576040517f08c379a00000000000000000000000000000000000000000000000000000000081526004018080602001828103825260138152602001807f526571756573742049442069732077726f6e670000000000000000000000000081525060200191505060405180910390fd5b428560400160008381526020019081526020016000208190555060008560000154905060008660400160007f6c505cb2db6644f57b42d87bd9407b0f66788b07d0617a2bc1356a0e69e66f9a60001b81526020019081526020016000205490506000151587604101600084815260200190815260200160002060003373ffffffffffffffffffffffffffffffffffffffff1673ffffffffffffffffffffffffffffffffffffffff16815260200190815260200160002060009054906101000a900460ff16151514611abd576040517f08c379a00000000000000000000000000000000000000000000000000000000081526004018080602001828103825260218152602001806137836021913960400191505060405180910390fd5b600187604101600084815260200190815260200160002060003373ffffffffffffffffffffffffffffffffffffffff1673ffffffffffffffffffffffffffffffffffffffff16815260200190815260200160002060006101000a81548160ff02191690831515021790555060008760480160008960400160007f969ea04b74d02bb4d9e6e8e57236e1b9ca31627139ae9f0e465249932e82450260001b8152602001908152602001600020548152602001908152602001600020905084600060058110611b8657fe5b60200201518160090160008081526020019081526020016000208360058110611bab57fe5b018190555084600160058110611bbd57fe5b6020020151816009016000600181526020019081526020016000208360058110611be357fe5b018190555084600260058110611bf557fe5b6020020151816009016000600281526020019081526020016000208360058110611c1b57fe5b018190555084600360058110611c2d57fe5b6020020151816009016000600381526020019081526020016000208360058110611c5357fe5b018190555084600460058110611c6557fe5b6020020151816009016000600481526020019081526020016000208360058110611c8b57fe5b0181905550338160080160008081526020019081526020016000208360058110611cb157fe5b0160006101000a81548173ffffffffffffffffffffffffffffffffffffffff021916908373ffffffffffffffffffffffffffffffffffffffff16021790555033816008016000600181526020019081526020016000208360058110611d1257fe5b0160006101000a81548173ffffffffffffffffffffffffffffffffffffffff021916908373ffffffffffffffffffffffffffffffffffffffff16021790555033816008016000600281526020019081526020016000208360058110611d7357fe5b0160006101000a81548173ffffffffffffffffffffffffffffffffffffffff021916908373ffffffffffffffffffffffffffffffffffffffff16021790555033816008016000600381526020019081526020016000208360058110611dd457fe5b0160006101000a81548173ffffffffffffffffffffffffffffffffffffffff021916908373ffffffffffffffffffffffffffffffffffffffff16021790555033816008016000600481526020019081526020016000208360058110611e3557fe5b0160006101000a81548173ffffffffffffffffffffffffffffffffffffffff021916908373ffffffffffffffffffffffffffffffffffffffff1602179055506004600183011415611e8a57611e8988612167565b5b6005600183011415611ee457611ea188888861229a565b60008860400160007f6c505cb2db6644f57b42d87bd9407b0f66788b07d0617a2bc1356a0e69e66f9a60001b815260200190815260200160002081905550611f2d565b8760400160007f6c505cb2db6644f57b42d87bd9407b0f66788b07d0617a2bc1356a0e69e66f9a60001b8152602001908152602001600020600081548092919060010191905055505b823373ffffffffffffffffffffffffffffffffffffffff167f9d2e5f03fc65aff196e0f3a8dd924b24099de487e8cffc888921d420ab196e3989898987604051808060200185600560200280838360005b83811015611f99578082015181840152602081019050611f7e565b5050505090500184600560200280838360005b83811015611fc7578082015181840152602081019050611fac565b50505050905001838152602001828103825286818151815260200191508051906020019080838360005b8381101561200c578082015181840152602081019050611ff1565b50505050905090810190601f1680156120395780820380516001836020036101000a031916815260200191505b509550505050505060405180910390a35050505050505050565b61205b6135ec565b6120636135ec565b61206b6135ec565b6120b3846001016033806020026040519081016040528092919082603380156120a9576020028201915b815481526020019060010190808311612095575b5050505050612cdd565b809250819350505060008090505b600581101561215f5760008382600581106120d857fe5b602002015114612122578460430160008383600581106120f457fe5b602002015181526020019081526020016000205484826005811061211457fe5b602002018181525050612152565b84603501816004036005811061213457fe5b600202016000015484826005811061214857fe5b6020020181815250505b80806001019150506120c1565b505050919050565b60008160400160007f97e6eb29f6a85471f7cc9b57f9e4c3deaf398cfc9798673160d7798baf0b13a460001b8152602001908152602001600020544203905060006121b46104b083612e6f565b905060008360400160007fb12aff7664b16cb99339be399b863feecd64d14817be7e1f042f97e3f358e64e60001b8152602001908152602001600020549050610fa0828560400160007fad16221efc80aaf1b7e69bd3ecb61ba5ffa539adf129c3b4ffff769c9b5bbc3360001b8152602001908152602001600020540382028161223a57fe5b059150600082141561224b57600191505b6122588282016001612e88565b8460400160007fb12aff7664b16cb99339be399b863feecd64d14817be7e1f042f97e3f358e64e60001b81526020019081526020016000208190555050505050565b60008360480160008560400160007f969ea04b74d02bb4d9e6e8e57236e1b9ca31627139ae9f0e465249932e82450260001b815260200190815260200160002054815260200190815260200160002090506000846000015490506000603c428161230057fe5b0642039050808660400160007f97e6eb29f6a85471f7cc9b57f9e4c3deaf398cfc9798673160d7798baf0b13a460001b81526020019081526020016000208190555061234a6135ec565b60008090505b600581101561279e576000600190505b60058110156125ae576000866009016000848152602001908152602001600020826005811061238b57fe5b01549050600087600801600085815260200190815260200160002083600581106123b157fe5b0160009054906101000a900473ffffffffffffffffffffffffffffffffffffffff16905060008390505b60008111801561240e5750886009016000868152602001908152602001600020600182036005811061240957fe5b015483105b1561250f57886009016000868152602001908152602001600020600182036005811061243657fe5b0154896009016000878152602001908152602001600020826005811061245857fe5b0181905550886008016000868152602001908152602001600020600182036005811061248057fe5b0160009054906101000a900473ffffffffffffffffffffffffffffffffffffffff1689600801600087815260200190815260200160002082600581106124c257fe5b0160006101000a81548173ffffffffffffffffffffffffffffffffffffffff021916908373ffffffffffffffffffffffffffffffffffffffff1602179055508080600190039150506123db565b8381101561259e5782896009016000878152602001908152602001600020826005811061253857fe5b018190555081896008016000878152602001908152602001600020826005811061255e57fe5b0160006101000a81548173ffffffffffffffffffffffffffffffffffffffff021916908373ffffffffffffffffffffffffffffffffffffffff1602179055505b5050508080600101915050612360565b5060008860480160008884600581106125c357fe5b602002015181526020019081526020016000209050856009016000838152602001908152602001600020600580602002604051908101604052809291908260058015612624576020028201915b815481526020019060010190808311612610575b505050505092508260026005811061263857fe5b60200201518160060160008681526020019081526020016000208190555085600801600083815260200190815260200160002081600801600086815260200190815260200160002090600561268e92919061360e565b508560090160008381526020019081526020016000208160090160008681526020019081526020016000209060056126c792919061364b565b5085600801600083815260200190815260200160002060006126e99190613688565b856009016000838152602001908152602001600020600061270a91906136ab565b80600301849080600181540180825580915050906001820390600052602060002001600090919290919091505550438160050160008681526020019081526020016000208190555060008160040160007f2a9e355a92978430eca9c1aa3a9ba590094bac282594bccf82de16b83046e2c360001b815260200190815260200160002081905550508080600101915050612350565b50827fbeb3b9f46c8d7bb00c873fca10d307538df350866d25f891ffb395147ddbdc458684848b60400160007fd26d9834adf5a73309c4974bf654850bb699df8505e70d4cfde365c417b19dfc60001b8152602001908152602001600020546040518085600560200280838360005b8381101561282857808201518184015260208101905061280d565b5050505090500184815260200183600560200280838360005b8381101561285c578082015181840152602081019050612841565b5050505090500182815260200194505050505060405180910390a28460006005811061288457fe5b602002015187604201600084815260200190815260200160002081905550866034018290806001815401808255809150509060018203906000526020600020016000909192909190915055506128d86136ce565b876048016000876000600581106128eb57fe5b60200201518152602001908152602001600020600801600084815260200190815260200160002060058060200260405190810160405280929190826005801561297f576020028201915b8160009054906101000a900473ffffffffffffffffffffffffffffffffffffffff1673ffffffffffffffffffffffffffffffffffffffff1681526020019060010190808311612935575b505050505090506129908882612ea1565b8760400160007f969ea04b74d02bb4d9e6e8e57236e1b9ca31627139ae9f0e465249932e82450260001b8152602001908152602001600020600081548092919060010191905055506129e06135ec565b6129e989612053565b905060008090505b6005811015612b4657818160058110612a0657fe5b60200201518a6035018260058110612a1a57fe5b600202016000018190555060008a6001018b6048016000858560058110612a3d57fe5b6020020151815260200190815260200160002060040160007f1e344bd070f05f1c5b3f0b1266f4f20d837a0a8190a3a2da8b0375eac2ba86ea60001b81526020019081526020016000205460338110612a9257fe5b0181905550896048016000838360058110612aa957fe5b6020020151815260200190815260200160002060040160007f2a9e355a92978430eca9c1aa3a9ba590094bac282594bccf82de16b83046e2c360001b8152602001908152602001600020548a60400160007fd26d9834adf5a73309c4974bf654850bb699df8505e70d4cfde365c417b19dfc60001b81526020019081526020016000206000828254019250508190555080806001019150506129f1565b50878560014303406040516020018080602001848152602001838152602001828103825285818151815260200191508051906020019080838360005b83811015612b9d578082015181840152602081019050612b82565b50505050905090810190601f168015612bca5780820380516001836020036101000a031916815260200191505b50945050505050604051602081830303815290604052805190602001209450848960000181905550847f1d85ce10456e29b67de37887496d3f1fcf1b64c79c4d07484038703a9f5c1408828b60400160007fb12aff7664b16cb99339be399b863feecd64d14817be7e1f042f97e3f358e64e60001b8152602001908152602001600020548c60400160007fd26d9834adf5a73309c4974bf654850bb699df8505e70d4cfde365c417b19dfc60001b8152602001908152602001600020546040518084600560200280838360005b83811015612cb2578082015181840152602081019050612c97565b50505050905001838152602001828152602001935050505060405180910390a2505050505050505050565b612ce56135ec565b612ced6135ec565b600083600160338110612cfc57fe5b60200201519050600080905060008090505b6005811015612d9557856001820160338110612d2657fe5b6020020151858260058110612d3757fe5b60200201818152505060018101848260058110612d5057fe5b60200201818152505082858260058110612d6657fe5b60200201511015612d8857848160058110612d7d57fe5b602002015192508091505b8080600101915050612d0e565b506000600690505b6033811015612e675782868260338110612db357fe5b60200201511115612e5a57858160338110612dca57fe5b6020020151858360058110612ddb57fe5b60200201818152505080848360058110612df157fe5b602002018181525050858160338110612e0657fe5b6020020151925060008090505b6005811015612e585783868260058110612e2957fe5b60200201511015612e4b57858160058110612e4057fe5b602002015193508092505b8080600101915050612e13565b505b8080600101915050612d9d565b505050915091565b6000818310612e7e5781612e80565b825b905092915050565b6000818313612e975781612e99565b825b905092915050565b60008260400160007f97e6eb29f6a85471f7cc9b57f9e4c3deaf398cfc9798673160d7798baf0b13a460001b815260200190815260200160002054420390506000670de0b6b3a76400009050600061012c82840281612efc57fe5b0490506000600a8660400160007fd26d9834adf5a73309c4974bf654850bb699df8505e70d4cfde365c417b19dfc60001b81526020019081526020016000205481612f4357fe5b049050600060028381612f5257fe5b04905073__$e6d6eab054cf6cc8ad21596dd9777aec01$__63c7bb46ad883089600060058110612f7e57fe5b60200201518688016040518563ffffffff1660e01b8152600401808581526020018473ffffffffffffffffffffffffffffffffffffffff1673ffffffffffffffffffffffffffffffffffffffff1681526020018373ffffffffffffffffffffffffffffffffffffffff1673ffffffffffffffffffffffffffffffffffffffff16815260200182815260200194505050505060006040518083038186803b15801561302757600080fd5b505af415801561303b573d6000803e3d6000fd5b5050505073__$e6d6eab054cf6cc8ad21596dd9777aec01$__63c7bb46ad88308960016005811061306857fe5b60200201518688016040518563ffffffff1660e01b8152600401808581526020018473ffffffffffffffffffffffffffffffffffffffff1673ffffffffffffffffffffffffffffffffffffffff1681526020018373ffffffffffffffffffffffffffffffffffffffff1673ffffffffffffffffffffffffffffffffffffffff16815260200182815260200194505050505060006040518083038186803b15801561311157600080fd5b505af4158015613125573d6000803e3d6000fd5b5050505073__$e6d6eab054cf6cc8ad21596dd9777aec01$__63c7bb46ad88308960026005811061315257fe5b60200201518688016040518563ffffffff1660e01b8152600401808581526020018473ffffffffffffffffffffffffffffffffffffffff1673ffffffffffffffffffffffffffffffffffffffff1681526020018373ffffffffffffffffffffffffffffffffffffffff1673ffffffffffffffffffffffffffffffffffffffff16815260200182815260200194505050505060006040518083038186803b1580156131fb57600080fd5b505af415801561320f573d6000803e3d6000fd5b5050505073__$e6d6eab054cf6cc8ad21596dd9777aec01$__63c7bb46ad88308960036005811061323c57fe5b60200201518688016040518563ffffffff1660e01b8152600401808581526020018473ffffffffffffffffffffffffffffffffffffffff1673ffffffffffffffffffffffffffffffffffffffff1681526020018373ffffffffffffffffffffffffffffffffffffffff1673ffffffffffffffffffffffffffffffffffffffff16815260200182815260200194505050505060006040518083038186803b1580156132e557600080fd5b505af41580156132f9573d6000803e3d6000fd5b5050505073__$e6d6eab054cf6cc8ad21596dd9777aec01$__63c7bb46ad88308960046005811061332657fe5b60200201518688016040518563ffffffff1660e01b8152600401808581526020018473ffffffffffffffffffffffffffffffffffffffff1673ffffffffffffffffffffffffffffffffffffffff1681526020018373ffffffffffffffffffffffffffffffffffffffff1673ffffffffffffffffffffffffffffffffffffffff16815260200182815260200194505050505060006040518083038186803b1580156133cf57600080fd5b505af41580156133e3573d6000803e3d6000fd5b5050505060028760400160007fd26d9834adf5a73309c4974bf654850bb699df8505e70d4cfde365c417b19dfc60001b8152602001908152602001600020548161342957fe5b04600584028201038760400160007fb1557182e4359a1f0c6301278e8f5b35a776ab58d39892581e357578fb28783660001b81526020019081526020016000206000828254019250508190555073__$e6d6eab054cf6cc8ad21596dd9777aec01$__63c7bb46ad88308a603f0160007f9dbc393ddc18fd27b1d9b1b129059925688d2f2d5818a5ec3ebb750b7c286ea660001b815260200190815260200160002060009054906101000a900473ffffffffffffffffffffffffffffffffffffffff16856040518563ffffffff1660e01b8152600401808581526020018473ffffffffffffffffffffffffffffffffffffffff1673ffffffffffffffffffffffffffffffffffffffff1681526020018373ffffffffffffffffffffffffffffffffffffffff1673ffffffffffffffffffffffffffffffffffffffff16815260200182815260200194505050505060006040518083038186803b15801561358d57600080fd5b505af41580156135a1573d6000803e3d6000fd5b5050505060008760400160007fd26d9834adf5a73309c4974bf654850bb699df8505e70d4cfde365c417b19dfc60001b81526020019081526020016000208190555050505050505050565b6040518060a00160405280600590602082028038833980820191505090505090565b826005810192821561363a579182015b8281111561363957825482559160010191906001019061361e565b5b50905061364791906136f0565b5090565b8260058101928215613677579182015b8281111561367657825482559160010191906001019061365b565b5b5090506136849190613733565b5090565b506000815560010160008155600101600081556001016000815560010160009055565b506000815560010160008155600101600081556001016000815560010160009055565b6040518060a00160405280600590602082028038833980820191505090505090565b61373091905b8082111561372c57600081816101000a81549073ffffffffffffffffffffffffffffffffffffffff0219169055506001016136f6565b5090565b90565b61375591905b80821115613751576000816000905550600101613739565b5090565b9056fe4d696e65722063616e206f6e6c792077696e2072657761726473206f6e636520706572203135206d696e4d696e657220616c7265616479207375626d6974746564207468652076616c7565a265627a7a723158209f819394fcca70da25a728b239086b81ebead0c9bb992777276d4819e71b697f64736f6c63430005100032",
  "linkReferences": {
    "contracts/libraries/TellorDispute.sol": {
      "TellorDispute": [
        {
          "length": 20,
          "start": 2754
        },
        {
          "length": 20,
          "start": 3303
        },
        {
          "length": 20,
          "start": 3546
        },
        {
          "length": 20,
          "start": 3742
        },
        {
          "length": 20,
          "start": 4498
        },
        {
          "length": 20,
          "start": 4836
        }
      ]
    },
    "contracts/libraries/TellorLibrary.sol": {
      "TellorLibrary": [
        {
          "length": 20,
          "start": 3069
        },
        {
          "length": 20,
          "start": 3420
        }
      ]
    },
    "contracts/libraries/TellorStake.sol": {
      "TellorStake": [
        {
          "length": 20,
          "start": 2383
        },
        {
          "length": 20,
          "start": 2915
        },
        {
          "length": 20,
          "start": 4273
        }
      ]
    },
    "contracts/libraries/TellorTransfer.sol": {
      "TellorTransfer": [
        {
          "length": 20,
          "start": 2174
        },
        {
          "length": 20,
          "start": 2492
        },
        {
          "length": 20,
          "start": 3894
        },
        {
          "length": 20,
          "start": 12151
        },
        {
          "length": 20,
          "start": 12385
        },
        {
          "length": 20,
          "start": 12619
        },
        {
          "length": 20,
          "start": 12853
        },
        {
          "length": 20,
          "start": 13087
        },
        {
          "length": 20,
          "start": 13464
        }
      ]
    },
    "contracts/mocks/TellorLibraryTest.sol": {
      "TellorLibraryTest": [
        {
          "length": 20,
          "start": 4103
        },
        {
          "length": 20,
          "start": 4381
        }
      ]
    }
  },
  "deployedLinkReferences": {
    "contracts/libraries/TellorDispute.sol": {
      "TellorDispute": [
        {
          "length": 20,
          "start": 2722
        },
        {
          "length": 20,
          "start": 3271
        },
        {
          "length": 20,
          "start": 3514
        },
        {
          "length": 20,
          "start": 3710
        },
        {
          "length": 20,
          "start": 4466
        },
        {
          "length": 20,
          "start": 4804
        }
      ]
    },
    "contracts/libraries/TellorLibrary.sol": {
      "TellorLibrary": [
        {
          "length": 20,
          "start": 3037
        },
        {
          "length": 20,
          "start": 3388
        }
      ]
    },
    "contracts/libraries/TellorStake.sol": {
      "TellorStake": [
        {
          "length": 20,
          "start": 2351
        },
        {
          "length": 20,
          "start": 2883
        },
        {
          "length": 20,
          "start": 4241
        }
      ]
    },
    "contracts/libraries/TellorTransfer.sol": {
      "TellorTransfer": [
        {
          "length": 20,
          "start": 2142
        },
        {
          "length": 20,
          "start": 2460
        },
        {
          "length": 20,
          "start": 3862
        },
        {
          "length": 20,
          "start": 12119
        },
        {
          "length": 20,
          "start": 12353
        },
        {
          "length": 20,
          "start": 12587
        },
        {
          "length": 20,
          "start": 12821
        },
        {
          "length": 20,
          "start": 13055
        },
        {
          "length": 20,
          "start": 13432
        }
      ]
    },
    "contracts/mocks/TellorLibraryTest.sol": {
      "TellorLibraryTest": [
        {
          "length": 20,
          "start": 4071
        },
        {
          "length": 20,
          "start": 4349
        }
      ]
    }
  }
}