{
  "_format": "hh-sol-artifact-1",
  "contractName": "TellorTest",
  "sourceName": "contracts/mocks/TellorTest.sol",
  "abi": [
    {
      "constant": false,
      "inputs": [
        {
          "internalType": "uint256",
          "name": "_requestId",
          "type": "uint256"
        },
        {
          "internalType": "uint256",
          "name": "_tip",
          "type": "uint256"
        }
      ],
      "name": "addTip",
      "outputs": [],
      "payable": false,
      "stateMutability": "nonpayable",
      "type": "function"
    },
    {
      "constant": false,
      "inputs": [
        {
          "internalType": "address",
          "name": "_spender",
          "type": "address"
        },
        {
          "internalType": "uint256",
          "name": "_amount",
          "type": "uint256"
        }
      ],
      "name": "approve",
      "outputs": [
        {
          "internalType": "bool",
          "name": "",
          "type": "bool"
        }
      ],
      "payable": false,
      "stateMutability": "nonpayable",
      "type": "function"
    },
    {
      "constant": false,
      "inputs": [
        {
          "internalType": "uint256",
          "name": "_requestId",
          "type": "uint256"
        },
        {
          "internalType": "uint256",
          "name": "_timestamp",
          "type": "uint256"
        },
        {
          "internalType": "uint256",
          "name": "_minerIndex",
          "type": "uint256"
        }
      ],
      "name": "beginDispute",
      "outputs": [],
      "payable": false,
      "stateMutability": "nonpayable",
      "type": "function"
    },
    {
      "constant": false,
      "inputs": [],
      "name": "claimOwnership",
      "outputs": [],
      "payable": false,
      "stateMutability": "nonpayable",
      "type": "function"
    },
    {
      "constant": true,
      "inputs": [],
      "name": "decimals",
      "outputs": [
        {
          "internalType": "uint8",
          "name": "",
          "type": "uint8"
        }
      ],
      "payable": false,
      "stateMutability": "pure",
      "type": "function"
    },
    {
      "constant": false,
      "inputs": [],
      "name": "depositStake",
      "outputs": [],
      "payable": false,
      "stateMutability": "nonpayable",
      "type": "function"
    },
    {
      "constant": true,
      "inputs": [],
      "name": "getNewCurrentVariables",
      "outputs": [
        {
          "internalType": "bytes32",
          "name": "_challenge",
          "type": "bytes32"
        },
        {
          "internalType": "uint256[5]",
          "name": "_requestIds",
          "type": "uint256[5]"
        },
        {
          "internalType": "uint256",
          "name": "_difficutly",
          "type": "uint256"
        },
        {
          "internalType": "uint256",
          "name": "_tip",
          "type": "uint256"
        }
      ],
      "payable": false,
      "stateMutability": "view",
      "type": "function"
    },
    {
      "constant": true,
      "inputs": [],
      "name": "getNewVariablesOnDeck",
      "outputs": [
        {
          "internalType": "uint256[5]",
          "name": "idsOnDeck",
          "type": "uint256[5]"
        },
        {
          "internalType": "uint256[5]",
          "name": "tipsOnDeck",
          "type": "uint256[5]"
        }
      ],
      "payable": false,
      "stateMutability": "view",
      "type": "function"
    },
    {
      "constant": true,
      "inputs": [],
      "name": "getTopRequestIDs",
      "outputs": [
        {
          "internalType": "uint256[5]",
          "name": "_requestIds",
          "type": "uint256[5]"
        }
      ],
      "payable": false,
      "stateMutability": "view",
      "type": "function"
    },
    {
      "constant": false,
      "inputs": [
        {
          "internalType": "uint256",
          "name": "_diff",
          "type": "uint256"
        }
      ],
      "name": "manuallySetDifficulty",
      "outputs": [],
      "payable": false,
      "stateMutability": "nonpayable",
      "type": "function"
    },
    {
      "constant": true,
      "inputs": [],
      "name": "name",
      "outputs": [
        {
          "internalType": "string",
          "name": "",
          "type": "string"
        }
      ],
      "payable": false,
      "stateMutability": "pure",
      "type": "function"
    },
    {
      "constant": false,
      "inputs": [
        {
          "internalType": "address",
          "name": "_propNewTellorAddress",
          "type": "address"
        }
      ],
      "name": "proposeFork",
      "outputs": [],
      "payable": false,
      "stateMutability": "nonpayable",
      "type": "function"
    },
    {
      "constant": false,
      "inputs": [
        {
          "internalType": "address payable",
          "name": "_pendingOwner",
          "type": "address"
        }
      ],
      "name": "proposeOwnership",
      "outputs": [],
      "payable": false,
      "stateMutability": "nonpayable",
      "type": "function"
    },
    {
      "constant": false,
      "inputs": [],
      "name": "requestStakingWithdraw",
      "outputs": [],
      "payable": false,
      "stateMutability": "nonpayable",
      "type": "function"
    },
    {
      "constant": false,
      "inputs": [
        {
          "internalType": "string",
          "name": "_nonce",
          "type": "string"
        },
        {
          "internalType": "uint256[5]",
          "name": "_requestId",
          "type": "uint256[5]"
        },
        {
          "internalType": "uint256[5]",
          "name": "_value",
          "type": "uint256[5]"
        }
      ],
      "name": "submitMiningSolution",
      "outputs": [],
      "payable": false,
      "stateMutability": "nonpayable",
      "type": "function"
    },
    {
      "constant": false,
      "inputs": [
        {
          "internalType": "string",
          "name": "_nonce",
          "type": "string"
        },
        {
          "internalType": "uint256",
          "name": "_requestId",
          "type": "uint256"
        },
        {
          "internalType": "uint256",
          "name": "_value",
          "type": "uint256"
        }
      ],
      "name": "submitMiningSolution",
      "outputs": [],
      "payable": false,
      "stateMutability": "nonpayable",
      "type": "function"
    },
    {
      "constant": true,
      "inputs": [],
      "name": "symbol",
      "outputs": [
        {
          "internalType": "string",
          "name": "",
          "type": "string"
        }
      ],
      "payable": false,
      "stateMutability": "pure",
      "type": "function"
    },
    {
      "constant": false,
      "inputs": [
        {
          "internalType": "uint256",
          "name": "_disputeId",
          "type": "uint256"
        }
      ],
      "name": "tallyVotes",
      "outputs": [],
      "payable": false,
      "stateMutability": "nonpayable",
      "type": "function"
    },
    {
      "constant": false,
      "inputs": [
        {
          "internalType": "string",
          "name": "_nonce",
          "type": "string"
        },
        {
          "internalType": "uint256[5]",
          "name": "_requestId",
          "type": "uint256[5]"
        },
        {
          "internalType": "uint256[5]",
          "name": "_value",
          "type": "uint256[5]"
        }
      ],
      "name": "testSubmitMiningSolution",
      "outputs": [],
      "payable": false,
      "stateMutability": "nonpayable",
      "type": "function"
    },
    {
      "constant": false,
      "inputs": [
        {
          "internalType": "address",
          "name": "_address",
          "type": "address"
        },
        {
          "internalType": "uint256",
          "name": "_amount",
          "type": "uint256"
        }
      ],
      "name": "theLazyCoon",
      "outputs": [],
      "payable": false,
      "stateMutability": "nonpayable",
      "type": "function"
    },
    {
      "constant": false,
      "inputs": [
        {
          "internalType": "address",
          "name": "_to",
          "type": "address"
        },
        {
          "internalType": "uint256",
          "name": "_amount",
          "type": "uint256"
        }
      ],
      "name": "transfer",
      "outputs": [
        {
          "internalType": "bool",
          "name": "",
          "type": "bool"
        }
      ],
      "payable": false,
      "stateMutability": "nonpayable",
      "type": "function"
    },
    {
      "constant": false,
      "inputs": [
        {
          "internalType": "address",
          "name": "_from",
          "type": "address"
        },
        {
          "internalType": "address",
          "name": "_to",
          "type": "address"
        },
        {
          "internalType": "uint256",
          "name": "_amount",
          "type": "uint256"
        }
      ],
      "name": "transferFrom",
      "outputs": [
        {
          "internalType": "bool",
          "name": "",
          "type": "bool"
        }
      ],
      "payable": false,
      "stateMutability": "nonpayable",
      "type": "function"
    },
    {
      "constant": false,
      "inputs": [
        {
          "internalType": "uint256",
          "name": "_disputeId",
          "type": "uint256"
        }
      ],
      "name": "unlockDisputeFee",
      "outputs": [],
      "payable": false,
      "stateMutability": "nonpayable",
      "type": "function"
    },
    {
      "constant": false,
      "inputs": [
        {
          "internalType": "uint256",
          "name": "_disputeId",
          "type": "uint256"
        }
      ],
      "name": "updateTellor",
      "outputs": [],
      "payable": false,
      "stateMutability": "nonpayable",
      "type": "function"
    },
    {
      "constant": false,
      "inputs": [
        {
          "internalType": "uint256",
          "name": "_disputeId",
          "type": "uint256"
        },
        {
          "internalType": "bool",
          "name": "_supportsDispute",
          "type": "bool"
        }
      ],
      "name": "vote",
      "outputs": [],
      "payable": false,
      "stateMutability": "nonpayable",
      "type": "function"
    },
    {
      "constant": false,
      "inputs": [],
      "name": "withdrawStake",
      "outputs": [],
      "payable": false,
      "stateMutability": "nonpayable",
      "type": "function"
    }
  ],
  "bytecode": "0x608060405234801561001057600080fd5b50613ab7806100206000396000f3fe608060405234801561001057600080fd5b506004361061018e5760003560e01c8063752d49a1116100de578063b079f64a11610097578063c9d27afe11610071578063c9d27afe146107fc578063d47f0dd414610836578063f458ab98146108c4578063fe1cd15d146108f25761018e565b8063b079f64a14610776578063bed9d861146107c4578063c52e9539146107ce5761018e565b8063752d49a1146105705780638581af19146105a857806395d89b41146105ea5780639a01ca131461066d5780639a7077ab1461069b578063a9059cbb146107105761018e565b8063313ce5671161014b5780634d318b0e116101255780634d318b0e146104675780634e71e0c81461049557806368c180d51461049f578063710bf3221461052c5761018e565b8063313ce5671461035a5780634049f1981461037e5780634350283e146103d95761018e565b806306fdde0314610193578063095ea7b3146102165780630d2d76a21461027c57806323b872dd1461028657806326b7d9f61461030c57806328449c3a14610350575b600080fd5b61019b610938565b6040518080602001828103825283818151815260200191508051906020019080838360005b838110156101db5780820151818401526020810190506101c0565b50505050905090810190601f1680156102085780820380516001836020036101000a031916815260200191505b509250505060405180910390f35b6102626004803603604081101561022c57600080fd5b81019080803573ffffffffffffffffffffffffffffffffffffffff16906020019092919080359060200190929190505050610975565b604051808215151515815260200191505060405180910390f35b610284610a47565b005b6102f26004803603606081101561029c57600080fd5b81019080803573ffffffffffffffffffffffffffffffffffffffff169060200190929190803573ffffffffffffffffffffffffffffffffffffffff16906020019092919080359060200190929190505050610ab3565b604051808215151515815260200191505060405180910390f35b61034e6004803603602081101561032257600080fd5b81019080803573ffffffffffffffffffffffffffffffffffffffff169060200190929190505050610bba565b005b610358610c5b565b005b610362610cc7565b604051808260ff1660ff16815260200191505060405180910390f35b610386610cd0565b6040518085815260200184600560200280838360005b838110156103b757808201518184015260208101905061039c565b5050505090500183815260200182815260200194505050505060405180910390f35b61046560048036036101608110156103f057600080fd5b810190808035906020019064010000000081111561040d57600080fd5b82018360208201111561041f57600080fd5b8035906020019184600183028401116401000000008311171561044157600080fd5b90919293919293908060a0019091929192908060a001909192919290505050610cf5565b005b6104936004803603602081101561047d57600080fd5b8101908080359060200190929190505050610ddf565b005b61049d610e54565b005b61052a600480360360608110156104b557600080fd5b81019080803590602001906401000000008111156104d257600080fd5b8201836020820111156104e457600080fd5b8035906020019184600183028401116401000000008311171561050657600080fd5b90919293919293908035906020019092919080359060200190929190505050610ec0565b005b61056e6004803603602081101561054257600080fd5b81019080803573ffffffffffffffffffffffffffffffffffffffff169060200190929190505050610f74565b005b6105a66004803603604081101561058657600080fd5b810190808035906020019092919080359060200190929190505050611015565b005b6105e8600480360360608110156105be57600080fd5b81019080803590602001909291908035906020019092919080359060200190929190505050611093565b005b6105f261111a565b6040518080602001828103825283818151815260200191508051906020019080838360005b83811015610632578082015181840152602081019050610617565b50505050905090810190601f16801561065f5780820380516001836020036101000a031916815260200191505b509250505060405180910390f35b6106996004803603602081101561068357600080fd5b8101908080359060200190929190505050611157565b005b6106a36111cc565b6040518083600560200280838360005b838110156106ce5780820151818401526020810190506106b3565b5050505090500182600560200280838360005b838110156106fc5780820151818401526020810190506106e1565b505050509050019250505060405180910390f35b61075c6004803603604081101561072657600080fd5b81019080803573ffffffffffffffffffffffffffffffffffffffff169060200190929190803590602001909291905050506111ee565b604051808215151515815260200191505060405180910390f35b6107c26004803603604081101561078c57600080fd5b81019080803573ffffffffffffffffffffffffffffffffffffffff169060200190929190803590602001909291905050506112c0565b005b6107cc61136a565b005b6107fa600480360360208110156107e457600080fd5b81019080803590602001909291905050506113d6565b005b6108346004803603604081101561081257600080fd5b810190808035906020019092919080351515906020019092919050505061144b565b005b6108c2600480360361016081101561084d57600080fd5b810190808035906020019064010000000081111561086a57600080fd5b82018360208201111561087c57600080fd5b8035906020019184600183028401116401000000008311171561089e57600080fd5b90919293919293908060a0019091929192908060a0019091929192905050506114cd565b005b6108f0600480360360208110156108da57600080fd5b810190808035906020019092919050505061159d565b005b6108fa611612565b6040518082600560200280838360005b8381101561092557808201518184015260208101905061090a565b5050505090500191505060405180910390f35b60606040518060400160405280600f81526020017f54656c6c6f722054726962757465730000000000000000000000000000000000815250905090565b60008073__$e6d6eab054cf6cc8ad21596dd9777aec01$__63850dcc32909185856040518463ffffffff1660e01b8152600401808481526020018373ffffffffffffffffffffffffffffffffffffffff1673ffffffffffffffffffffffffffffffffffffffff168152602001828152602001935050505060206040518083038186803b158015610a0457600080fd5b505af4158015610a18573d6000803e3d6000fd5b505050506040513d6020811015610a2e57600080fd5b8101908080519060200190929190505050905092915050565b600073__$3c63e47b50370f30fae579c3aa38018afe$__63820a2d6690916040518263ffffffff1660e01b81526004018082815260200191505060006040518083038186803b158015610a9957600080fd5b505af4158015610aad573d6000803e3d6000fd5b50505050565b60008073__$e6d6eab054cf6cc8ad21596dd9777aec01$__63ca50189990918686866040518563ffffffff1660e01b8152600401808581526020018473ffffffffffffffffffffffffffffffffffffffff1673ffffffffffffffffffffffffffffffffffffffff1681526020018373ffffffffffffffffffffffffffffffffffffffff1673ffffffffffffffffffffffffffffffffffffffff16815260200182815260200194505050505060206040518083038186803b158015610b7657600080fd5b505af4158015610b8a573d6000803e3d6000fd5b505050506040513d6020811015610ba057600080fd5b810190808051906020019092919050505090509392505050565b600073__$6eea42fadb496cf5107a5a057a700a86ef$__63694bf49f9091836040518363ffffffff1660e01b8152600401808381526020018273ffffffffffffffffffffffffffffffffffffffff1673ffffffffffffffffffffffffffffffffffffffff1681526020019250505060006040518083038186803b158015610c4057600080fd5b505af4158015610c54573d6000803e3d6000fd5b5050505050565b600073__$3c63e47b50370f30fae579c3aa38018afe$__63c9cf5e4c90916040518263ffffffff1660e01b81526004018082815260200191505060006040518083038186803b158015610cad57600080fd5b505af4158015610cc1573d6000803e3d6000fd5b50505050565b60006012905090565b6000610cda6138cb565b600080610ce76000611629565b935093509350935090919293565b600073__$b4792b85839a28132e2f342dfaea79a7fb$__63a4bc40679091868686866040518663ffffffff1660e01b8152600401808681526020018060200184600560200280828437600081840152601f19601f82011690508083019250505083600560200280828437600081840152601f19601f8201169050808301925050508281038252868682818152602001925080828437600081840152601f19601f820116905080830192505050965050505050505060006040518083038186803b158015610dc157600080fd5b505af4158015610dd5573d6000803e3d6000fd5b5050505050505050565b600073__$6eea42fadb496cf5107a5a057a700a86ef$__63def6fac79091836040518363ffffffff1660e01b8152600401808381526020018281526020019250505060006040518083038186803b158015610e3957600080fd5b505af4158015610e4d573d6000803e3d6000fd5b5050505050565b600073__$b4792b85839a28132e2f342dfaea79a7fb$__63314691ff90916040518263ffffffff1660e01b81526004018082815260200191505060006040518083038186803b158015610ea657600080fd5b505af4158015610eba573d6000803e3d6000fd5b50505050565b600073__$ef9a7d29b765fcdd38046f1a6e0f0fa5d8$__63a098b5b49091868686866040518663ffffffff1660e01b815260040180868152602001806020018481526020018381526020018281038252868682818152602001925080828437600081840152601f19601f820116905080830192505050965050505050505060006040518083038186803b158015610f5657600080fd5b505af4158015610f6a573d6000803e3d6000fd5b5050505050505050565b600073__$b4792b85839a28132e2f342dfaea79a7fb$__63291f8b739091836040518363ffffffff1660e01b8152600401808381526020018273ffffffffffffffffffffffffffffffffffffffff1673ffffffffffffffffffffffffffffffffffffffff1681526020019250505060006040518083038186803b158015610ffa57600080fd5b505af415801561100e573d6000803e3d6000fd5b5050505050565b600073__$b4792b85839a28132e2f342dfaea79a7fb$__6302e8f21b909184846040518463ffffffff1660e01b815260040180848152602001838152602001828152602001935050505060006040518083038186803b15801561107757600080fd5b505af415801561108b573d6000803e3d6000fd5b505050505050565b600073__$6eea42fadb496cf5107a5a057a700a86ef$__63ca9a4ea590918585856040518563ffffffff1660e01b81526004018085815260200184815260200183815260200182815260200194505050505060006040518083038186803b1580156110fd57600080fd5b505af4158015611111573d6000803e3d6000fd5b50505050505050565b60606040518060400160405280600381526020017f5452420000000000000000000000000000000000000000000000000000000000815250905090565b600073__$6eea42fadb496cf5107a5a057a700a86ef$__6397f5f9729091836040518363ffffffff1660e01b8152600401808381526020018281526020019250505060006040518083038186803b1580156111b157600080fd5b505af41580156111c5573d6000803e3d6000fd5b5050505050565b6111d46138cb565b6111dc6138cb565b6111e6600061172a565b915091509091565b60008073__$e6d6eab054cf6cc8ad21596dd9777aec01$__63c84b96f5909185856040518463ffffffff1660e01b8152600401808481526020018373ffffffffffffffffffffffffffffffffffffffff1673ffffffffffffffffffffffffffffffffffffffff168152602001828152602001935050505060206040518083038186803b15801561127d57600080fd5b505af4158015611291573d6000803e3d6000fd5b505050506040513d60208110156112a757600080fd5b8101908080519060200190929190505050905092915050565b600073__$ef9a7d29b765fcdd38046f1a6e0f0fa5d8$__6348656ba6909184846040518463ffffffff1660e01b8152600401808481526020018373ffffffffffffffffffffffffffffffffffffffff1673ffffffffffffffffffffffffffffffffffffffff168152602001828152602001935050505060006040518083038186803b15801561134e57600080fd5b505af4158015611362573d6000803e3d6000fd5b505050505050565b600073__$3c63e47b50370f30fae579c3aa38018afe$__6344bacc4b90916040518263ffffffff1660e01b81526004018082815260200191505060006040518083038186803b1580156113bc57600080fd5b505af41580156113d0573d6000803e3d6000fd5b50505050565b600073__$ef9a7d29b765fcdd38046f1a6e0f0fa5d8$__633a7f80789091836040518363ffffffff1660e01b8152600401808381526020018281526020019250505060006040518083038186803b15801561143057600080fd5b505af4158015611444573d6000803e3d6000fd5b5050505050565b600073__$6eea42fadb496cf5107a5a057a700a86ef$__632da0706e909184846040518463ffffffff1660e01b81526004018084815260200183815260200182151515158152602001935050505060006040518083038186803b1580156114b157600080fd5b505af41580156114c5573d6000803e3d6000fd5b505050505050565b61159784848080601f016020809104026020016040519081016040528093929190818152602001838380828437600081840152601f19601f82011690508083019250505050505050836005806020026040519081016040528092919082600560200280828437600081840152601f19601f820116905080830192505050505050836005806020026040519081016040528092919082600560200280828437600081840152601f19601f82011690508083019250505050505060006117eb909392919063ffffffff16565b50505050565b600073__$6eea42fadb496cf5107a5a057a700a86ef$__6322048ecf9091836040518363ffffffff1660e01b8152600401808381526020018281526020019250505060006040518083038186803b1580156115f757600080fd5b505af415801561160b573d6000803e3d6000fd5b5050505050565b61161a6138cb565b6116246000612373565b905090565b60006116336138cb565b60008060008090505b600581101561167e5785603501816005811061165457fe5b600202016000015484826005811061166857fe5b602002018181525050808060010191505061163c565b5084600001548386604001600060405180807f646966666963756c747900000000000000000000000000000000000000000000815250600a019050604051809103902081526020019081526020016000205487604001600060405180807f63757272656e74546f74616c54697073000000000000000000000000000000008152506010019050604051809103902081526020019081526020016000205493509350935093509193509193565b6117326138cb565b61173a6138cb565b61174383612373565b915060008090505b60058110156117e55783604801600084836005811061176657fe5b60200201518152602001908152602001600020600401600060405180807f746f74616c546970000000000000000000000000000000000000000000000000815250600801905060405180910390208152602001908152602001600020548282600581106117cf57fe5b602002018181525050808060010191505061174b565b50915091565b600033604051602001808273ffffffffffffffffffffffffffffffffffffffff1673ffffffffffffffffffffffffffffffffffffffff16815260200191505060405160208183030381529060405280519060200120905060018560470160003373ffffffffffffffffffffffffffffffffffffffff1673ffffffffffffffffffffffffffffffffffffffff16815260200190815260200160002060000154146118fc576040517f08c379a000000000000000000000000000000000000000000000000000000000815260040180806020018281038252601a8152602001807f4d696e657220737461747573206973206e6f74207374616b657200000000000081525060200191505060405180910390fd5b6103848560400160008381526020019081526020016000205442031161196d576040517f08c379a000000000000000000000000000000000000000000000000000000000815260040180806020018281038252602a815260200180613a38602a913960400191505060405180910390fd5b8460350160006005811061197d57fe5b60020201600001548360006005811061199257fe5b602002015114611a0a576040517f08c379a00000000000000000000000000000000000000000000000000000000081526004018080602001828103825260138152602001807f526571756573742049442069732077726f6e670000000000000000000000000081525060200191505060405180910390fd5b84603501600160058110611a1a57fe5b600202016000015483600160058110611a2f57fe5b602002015114611aa7576040517f08c379a00000000000000000000000000000000000000000000000000000000081526004018080602001828103825260138152602001807f526571756573742049442069732077726f6e670000000000000000000000000081525060200191505060405180910390fd5b84603501600260058110611ab757fe5b600202016000015483600260058110611acc57fe5b602002015114611b44576040517f08c379a00000000000000000000000000000000000000000000000000000000081526004018080602001828103825260138152602001807f526571756573742049442069732077726f6e670000000000000000000000000081525060200191505060405180910390fd5b84603501600360058110611b5457fe5b600202016000015483600360058110611b6957fe5b602002015114611be1576040517f08c379a00000000000000000000000000000000000000000000000000000000081526004018080602001828103825260138152602001807f526571756573742049442069732077726f6e670000000000000000000000000081525060200191505060405180910390fd5b84603501600460058110611bf157fe5b600202016000015483600460058110611c0657fe5b602002015114611c7e576040517f08c379a00000000000000000000000000000000000000000000000000000000081526004018080602001828103825260138152602001807f526571756573742049442069732077726f6e670000000000000000000000000081525060200191505060405180910390fd5b428560400160008381526020019081526020016000208190555060008560000154905060008660400160007f6c505cb2db6644f57b42d87bd9407b0f66788b07d0617a2bc1356a0e69e66f9a60001b81526020019081526020016000205490506000151587604101600084815260200190815260200160002060003373ffffffffffffffffffffffffffffffffffffffff1673ffffffffffffffffffffffffffffffffffffffff16815260200190815260200160002060009054906101000a900460ff16151514611d9a576040517f08c379a0000000000000000000000000000000000000000000000000000000008152600401808060200182810382526021815260200180613a626021913960400191505060405180910390fd5b600187604101600084815260200190815260200160002060003373ffffffffffffffffffffffffffffffffffffffff1673ffffffffffffffffffffffffffffffffffffffff16815260200190815260200160002060006101000a81548160ff02191690831515021790555060008760480160008960400160007f969ea04b74d02bb4d9e6e8e57236e1b9ca31627139ae9f0e465249932e82450260001b8152602001908152602001600020548152602001908152602001600020905033816008016000600181526020019081526020016000208360058110611e7857fe5b0160006101000a81548173ffffffffffffffffffffffffffffffffffffffff021916908373ffffffffffffffffffffffffffffffffffffffff16021790555084600060058110611ec457fe5b60200201518160090160008081526020019081526020016000208360058110611ee957fe5b018190555084600160058110611efb57fe5b6020020151816009016000600181526020019081526020016000208360058110611f2157fe5b018190555084600260058110611f3357fe5b6020020151816009016000600281526020019081526020016000208360058110611f5957fe5b018190555084600360058110611f6b57fe5b6020020151816009016000600381526020019081526020016000208360058110611f9157fe5b018190555084600460058110611fa357fe5b6020020151816009016000600481526020019081526020016000208360058110611fc957fe5b0181905550338160080160008081526020019081526020016000208360058110611fef57fe5b0160006101000a81548173ffffffffffffffffffffffffffffffffffffffff021916908373ffffffffffffffffffffffffffffffffffffffff1602179055503381600801600060018152602001908152602001600020836005811061205057fe5b0160006101000a81548173ffffffffffffffffffffffffffffffffffffffff021916908373ffffffffffffffffffffffffffffffffffffffff160217905550338160080160006002815260200190815260200160002083600581106120b157fe5b0160006101000a81548173ffffffffffffffffffffffffffffffffffffffff021916908373ffffffffffffffffffffffffffffffffffffffff1602179055503381600801600060038152602001908152602001600020836005811061211257fe5b0160006101000a81548173ffffffffffffffffffffffffffffffffffffffff021916908373ffffffffffffffffffffffffffffffffffffffff1602179055503381600801600060048152602001908152602001600020836005811061217357fe5b0160006101000a81548173ffffffffffffffffffffffffffffffffffffffff021916908373ffffffffffffffffffffffffffffffffffffffff160217905550600560018301141561220c576121c9888888612487565b60008860400160007f6c505cb2db6644f57b42d87bd9407b0f66788b07d0617a2bc1356a0e69e66f9a60001b815260200190815260200160002081905550612255565b8760400160007f6c505cb2db6644f57b42d87bd9407b0f66788b07d0617a2bc1356a0e69e66f9a60001b8152602001908152602001600020600081548092919060010191905055505b823373ffffffffffffffffffffffffffffffffffffffff167f0e4e65dc389613b6884b7f8c615e54fd3b894fbbbc534c990037744eea942000898989604051808060200184600560200280838360005b838110156122c05780820151818401526020810190506122a5565b5050505090500183600560200280838360005b838110156122ee5780820151818401526020810190506122d3565b50505050905001828103825285818151815260200191508051906020019080838360005b8381101561232d578082015181840152602081019050612312565b50505050905090810190601f16801561235a5780820380516001836020036101000a031916815260200191505b5094505050505060405180910390a35050505050505050565b61237b6138cb565b6123836138cb565b61238b6138cb565b6123d3846001016033806020026040519081016040528092919082603380156123c9576020028201915b8154815260200190600101908083116123b5575b5050505050612ffb565b809250819350505060008090505b600581101561247f5760008382600581106123f857fe5b6020020151146124425784604301600083836005811061241457fe5b602002015181526020019081526020016000205484826005811061243457fe5b602002018181525050612472565b84603501816004036005811061245457fe5b600202016000015484826005811061246857fe5b6020020181815250505b80806001019150506123e1565b505050919050565b60008360480160008560400160007f969ea04b74d02bb4d9e6e8e57236e1b9ca31627139ae9f0e465249932e82450260001b8152602001908152602001600020548152602001908152602001600020905060008460400160007f97e6eb29f6a85471f7cc9b57f9e4c3deaf398cfc9798673160d7798baf0b13a460001b8152602001908152602001600020544203905060006125256104b08361318d565b905060008660400160007fb12aff7664b16cb99339be399b863feecd64d14817be7e1f042f97e3f358e64e60001b8152602001908152602001600020549050610fa0828860400160007fad16221efc80aaf1b7e69bd3ecb61ba5ffa539adf129c3b4ffff769c9b5bbc3360001b815260200190815260200160002054038202816125ab57fe5b05915060008214156125bc57600191505b6125c982820160016131a6565b8760400160007fb12aff7664b16cb99339be399b863feecd64d14817be7e1f042f97e3f358e64e60001b8152602001908152602001600020819055506000876000015490506000603c428161261a57fe5b0642039050808960400160007f97e6eb29f6a85471f7cc9b57f9e4c3deaf398cfc9798673160d7798baf0b13a460001b8152602001908152602001600020819055506126646138cb565b60008090505b6005811015612ab8576000600190505b60058110156128c857600089600901600084815260200190815260200160002082600581106126a557fe5b0154905060008a600801600085815260200190815260200160002083600581106126cb57fe5b0160009054906101000a900473ffffffffffffffffffffffffffffffffffffffff16905060008390505b60008111801561272857508b6009016000868152602001908152602001600020600182036005811061272357fe5b015483105b15612829578b6009016000868152602001908152602001600020600182036005811061275057fe5b01548c6009016000878152602001908152602001600020826005811061277257fe5b01819055508b6008016000868152602001908152602001600020600182036005811061279a57fe5b0160009054906101000a900473ffffffffffffffffffffffffffffffffffffffff168c600801600087815260200190815260200160002082600581106127dc57fe5b0160006101000a81548173ffffffffffffffffffffffffffffffffffffffff021916908373ffffffffffffffffffffffffffffffffffffffff1602179055508080600190039150506126f5565b838110156128b857828c6009016000878152602001908152602001600020826005811061285257fe5b0181905550818c6008016000878152602001908152602001600020826005811061287857fe5b0160006101000a81548173ffffffffffffffffffffffffffffffffffffffff021916908373ffffffffffffffffffffffffffffffffffffffff1602179055505b505050808060010191505061267a565b5060008b60480160008b84600581106128dd57fe5b60200201518152602001908152602001600020905088600901600083815260200190815260200160002060058060200260405190810160405280929190826005801561293e576020028201915b81548152602001906001019080831161292a575b505050505092508260026005811061295257fe5b6020020151816006016000868152602001908152602001600020819055508860080160008381526020019081526020016000208160080160008681526020019081526020016000209060056129a89291906138ed565b508860090160008381526020019081526020016000208160090160008681526020019081526020016000209060056129e192919061392a565b508860080160008381526020019081526020016000206000612a039190613967565b8860090160008381526020019081526020016000206000612a24919061398a565b80600301849080600181540180825580915050906001820390600052602060002001600090919290919091505550438160050160008681526020019081526020016000208190555060008160040160007f2a9e355a92978430eca9c1aa3a9ba590094bac282594bccf82de16b83046e2c360001b81526020019081526020016000208190555050808060010191505061266a565b50827fbeb3b9f46c8d7bb00c873fca10d307538df350866d25f891ffb395147ddbdc458984848e60400160007fdb21f0c4accc4f2f5f1045353763a9ffe7091ceaf0fcceb5831858d96cf8463160001b8152602001908152602001600020546040518085600560200280838360005b83811015612b42578082015181840152602081019050612b27565b5050505090500184815260200183600560200280838360005b83811015612b76578082015181840152602081019050612b5b565b5050505090500182815260200194505050505060405180910390a287600060058110612b9e57fe5b60200201518a60420160008481526020019081526020016000208190555089603401829080600181540180825580915050906001820390600052602060002001600090919290919091505550612bf26139ad565b8a60480160008a600060058110612c0557fe5b602002015181526020019081526020016000206008016000848152602001908152602001600020600580602002604051908101604052809291908260058015612c99576020028201915b8160009054906101000a900473ffffffffffffffffffffffffffffffffffffffff1673ffffffffffffffffffffffffffffffffffffffff1681526020019060010190808311612c4f575b50505050509050612cab8b88836131bf565b8a60400160007f969ea04b74d02bb4d9e6e8e57236e1b9ca31627139ae9f0e465249932e82450260001b815260200190815260200160002060008154809291906001019190505550612cfb6138cb565b612d048c612373565b905060008090505b6005811015612e6157818160058110612d2157fe5b60200201518d6035018260058110612d3557fe5b600202016000018190555060008d6001018e6048016000858560058110612d5857fe5b6020020151815260200190815260200160002060040160007f1e344bd070f05f1c5b3f0b1266f4f20d837a0a8190a3a2da8b0375eac2ba86ea60001b81526020019081526020016000205460338110612dad57fe5b01819055508c6048016000838360058110612dc457fe5b6020020151815260200190815260200160002060040160007f2a9e355a92978430eca9c1aa3a9ba590094bac282594bccf82de16b83046e2c360001b8152602001908152602001600020548d60400160007fd26d9834adf5a73309c4974bf654850bb699df8505e70d4cfde365c417b19dfc60001b8152602001908152602001600020600082825401925050819055508080600101915050612d0c565b508a8560014303406040516020018080602001848152602001838152602001828103825285818151815260200191508051906020019080838360005b83811015612eb8578082015181840152602081019050612e9d565b50505050905090810190601f168015612ee55780820380516001836020036101000a031916815260200191505b50945050505050604051602081830303815290604052805190602001209450848c60000181905550847f1d85ce10456e29b67de37887496d3f1fcf1b64c79c4d07484038703a9f5c1408828e60400160007fb12aff7664b16cb99339be399b863feecd64d14817be7e1f042f97e3f358e64e60001b8152602001908152602001600020548f60400160007fd26d9834adf5a73309c4974bf654850bb699df8505e70d4cfde365c417b19dfc60001b8152602001908152602001600020546040518084600560200280838360005b83811015612fcd578082015181840152602081019050612fb2565b50505050905001838152602001828152602001935050505060405180910390a2505050505050505050505050565b6130036138cb565b61300b6138cb565b60008360016033811061301a57fe5b60200201519050600080905060008090505b60058110156130b35785600182016033811061304457fe5b602002015185826005811061305557fe5b6020020181815250506001810184826005811061306e57fe5b6020020181815250508285826005811061308457fe5b602002015110156130a65784816005811061309b57fe5b602002015192508091505b808060010191505061302c565b506000600690505b603381101561318557828682603381106130d157fe5b60200201511115613178578581603381106130e857fe5b60200201518583600581106130f957fe5b6020020181815250508084836005811061310f57fe5b60200201818152505085816033811061312457fe5b6020020151925060008090505b6005811015613176578386826005811061314757fe5b602002015110156131695785816005811061315e57fe5b602002015193508092505b8080600101915050613131565b505b80806001019150506130bb565b505050915091565b600081831061319c578161319e565b825b905092915050565b60008183136131b557816131b7565b825b905092915050565b6000670de0b6b3a76400009050600061012c828502816131db57fe5b0490506000600a8660400160007fd26d9834adf5a73309c4974bf654850bb699df8505e70d4cfde365c417b19dfc60001b8152602001908152602001600020548161322257fe5b04905060006002838161323157fe5b04905073__$e6d6eab054cf6cc8ad21596dd9777aec01$__63c7bb46ad88308860006005811061325d57fe5b60200201518688016040518563ffffffff1660e01b8152600401808581526020018473ffffffffffffffffffffffffffffffffffffffff1673ffffffffffffffffffffffffffffffffffffffff1681526020018373ffffffffffffffffffffffffffffffffffffffff1673ffffffffffffffffffffffffffffffffffffffff16815260200182815260200194505050505060006040518083038186803b15801561330657600080fd5b505af415801561331a573d6000803e3d6000fd5b5050505073__$e6d6eab054cf6cc8ad21596dd9777aec01$__63c7bb46ad88308860016005811061334757fe5b60200201518688016040518563ffffffff1660e01b8152600401808581526020018473ffffffffffffffffffffffffffffffffffffffff1673ffffffffffffffffffffffffffffffffffffffff1681526020018373ffffffffffffffffffffffffffffffffffffffff1673ffffffffffffffffffffffffffffffffffffffff16815260200182815260200194505050505060006040518083038186803b1580156133f057600080fd5b505af4158015613404573d6000803e3d6000fd5b5050505073__$e6d6eab054cf6cc8ad21596dd9777aec01$__63c7bb46ad88308860026005811061343157fe5b60200201518688016040518563ffffffff1660e01b8152600401808581526020018473ffffffffffffffffffffffffffffffffffffffff1673ffffffffffffffffffffffffffffffffffffffff1681526020018373ffffffffffffffffffffffffffffffffffffffff1673ffffffffffffffffffffffffffffffffffffffff16815260200182815260200194505050505060006040518083038186803b1580156134da57600080fd5b505af41580156134ee573d6000803e3d6000fd5b5050505073__$e6d6eab054cf6cc8ad21596dd9777aec01$__63c7bb46ad88308860036005811061351b57fe5b60200201518688016040518563ffffffff1660e01b8152600401808581526020018473ffffffffffffffffffffffffffffffffffffffff1673ffffffffffffffffffffffffffffffffffffffff1681526020018373ffffffffffffffffffffffffffffffffffffffff1673ffffffffffffffffffffffffffffffffffffffff16815260200182815260200194505050505060006040518083038186803b1580156135c457600080fd5b505af41580156135d8573d6000803e3d6000fd5b5050505073__$e6d6eab054cf6cc8ad21596dd9777aec01$__63c7bb46ad88308860046005811061360557fe5b60200201518688016040518563ffffffff1660e01b8152600401808581526020018473ffffffffffffffffffffffffffffffffffffffff1673ffffffffffffffffffffffffffffffffffffffff1681526020018373ffffffffffffffffffffffffffffffffffffffff1673ffffffffffffffffffffffffffffffffffffffff16815260200182815260200194505050505060006040518083038186803b1580156136ae57600080fd5b505af41580156136c2573d6000803e3d6000fd5b5050505060028760400160007fd26d9834adf5a73309c4974bf654850bb699df8505e70d4cfde365c417b19dfc60001b8152602001908152602001600020548161370857fe5b04600584028201038760400160007fb1557182e4359a1f0c6301278e8f5b35a776ab58d39892581e357578fb28783660001b81526020019081526020016000206000828254019250508190555073__$e6d6eab054cf6cc8ad21596dd9777aec01$__63c7bb46ad88308a603f0160007f9dbc393ddc18fd27b1d9b1b129059925688d2f2d5818a5ec3ebb750b7c286ea660001b815260200190815260200160002060009054906101000a900473ffffffffffffffffffffffffffffffffffffffff16856040518563ffffffff1660e01b8152600401808581526020018473ffffffffffffffffffffffffffffffffffffffff1673ffffffffffffffffffffffffffffffffffffffff1681526020018373ffffffffffffffffffffffffffffffffffffffff1673ffffffffffffffffffffffffffffffffffffffff16815260200182815260200194505050505060006040518083038186803b15801561386c57600080fd5b505af4158015613880573d6000803e3d6000fd5b5050505060008760400160007fd26d9834adf5a73309c4974bf654850bb699df8505e70d4cfde365c417b19dfc60001b81526020019081526020016000208190555050505050505050565b6040518060a00160405280600590602082028038833980820191505090505090565b8260058101928215613919579182015b828111156139185782548255916001019190600101906138fd565b5b50905061392691906139cf565b5090565b8260058101928215613956579182015b8281111561395557825482559160010191906001019061393a565b5b5090506139639190613a12565b5090565b506000815560010160008155600101600081556001016000815560010160009055565b506000815560010160008155600101600081556001016000815560010160009055565b6040518060a00160405280600590602082028038833980820191505090505090565b613a0f91905b80821115613a0b57600081816101000a81549073ffffffffffffffffffffffffffffffffffffffff0219169055506001016139d5565b5090565b90565b613a3491905b80821115613a30576000816000905550600101613a18565b5090565b9056fe4d696e65722063616e206f6e6c792077696e2072657761726473206f6e636520706572203135206d696e4d696e657220616c7265616479207375626d6974746564207468652076616c7565a265627a7a723158203ce4ad824daac60c4f6f4db3d4f60df3929b1dfd460b68ec67b7ae8539778e4064736f6c63430005100032",
  "linkReferences": {
    "contracts/libraries/TellorDispute.sol": {
      "TellorDispute": [
        {
          "length": 20,
          "start": 3038
        },
        {
          "length": 20,
          "start": 3587
        },
        {
          "length": 20,
          "start": 4279
        },
        {
          "length": 20,
          "start": 4475
        },
        {
          "length": 20,
          "start": 5231
        },
        {
          "length": 20,
          "start": 5569
        }
      ]
    },
    "contracts/libraries/TellorLibrary.sol": {
      "TellorLibrary": [
        {
          "length": 20,
          "start": 3353
        },
        {
          "length": 20,
          "start": 3704
        },
        {
          "length": 20,
          "start": 3992
        },
        {
          "length": 20,
          "start": 4153
        }
      ]
    },
    "contracts/libraries/TellorStake.sol": {
      "TellorStake": [
        {
          "length": 20,
          "start": 2667
        },
        {
          "length": 20,
          "start": 3199
        },
        {
          "length": 20,
          "start": 5006
        }
      ]
    },
    "contracts/libraries/TellorTransfer.sol": {
      "TellorTransfer": [
        {
          "length": 20,
          "start": 2458
        },
        {
          "length": 20,
          "start": 2776
        },
        {
          "length": 20,
          "start": 4627
        },
        {
          "length": 20,
          "start": 12886
        },
        {
          "length": 20,
          "start": 13120
        },
        {
          "length": 20,
          "start": 13354
        },
        {
          "length": 20,
          "start": 13588
        },
        {
          "length": 20,
          "start": 13822
        },
        {
          "length": 20,
          "start": 14199
        }
      ]
    },
    "contracts/mocks/TellorLibraryTest.sol": {
      "TellorLibraryTest": [
        {
          "length": 20,
          "start": 3812
        },
        {
          "length": 20,
          "start": 4836
        },
        {
          "length": 20,
          "start": 5114
        }
      ]
    }
  },
  "deployedLinkReferences": {
    "contracts/libraries/TellorDispute.sol": {
      "TellorDispute": [
        {
          "length": 20,
          "start": 3006
        },
        {
          "length": 20,
          "start": 3555
        },
        {
          "length": 20,
          "start": 4247
        },
        {
          "length": 20,
          "start": 4443
        },
        {
          "length": 20,
          "start": 5199
        },
        {
          "length": 20,
          "start": 5537
        }
      ]
    },
    "contracts/libraries/TellorLibrary.sol": {
      "TellorLibrary": [
        {
          "length": 20,
          "start": 3321
        },
        {
          "length": 20,
          "start": 3672
        },
        {
          "length": 20,
          "start": 3960
        },
        {
          "length": 20,
          "start": 4121
        }
      ]
    },
    "contracts/libraries/TellorStake.sol": {
      "TellorStake": [
        {
          "length": 20,
          "start": 2635
        },
        {
          "length": 20,
          "start": 3167
        },
        {
          "length": 20,
          "start": 4974
        }
      ]
    },
    "contracts/libraries/TellorTransfer.sol": {
      "TellorTransfer": [
        {
          "length": 20,
          "start": 2426
        },
        {
          "length": 20,
          "start": 2744
        },
        {
          "length": 20,
          "start": 4595
        },
        {
          "length": 20,
          "start": 12854
        },
        {
          "length": 20,
          "start": 13088
        },
        {
          "length": 20,
          "start": 13322
        },
        {
          "length": 20,
          "start": 13556
        },
        {
          "length": 20,
          "start": 13790
        },
        {
          "length": 20,
          "start": 14167
        }
      ]
    },
    "contracts/mocks/TellorLibraryTest.sol": {
      "TellorLibraryTest": [
        {
          "length": 20,
          "start": 3780
        },
        {
          "length": 20,
          "start": 4804
        },
        {
          "length": 20,
          "start": 5082
        }
      ]
    }
  }
}