{
  "_format": "hh-sol-artifact-1",
  "contractName": "TellorTest",
  "sourceName": "contracts/mocks/TellorTest.sol",
  "abi": [
    {
      "constant": false,
      "inputs": [
        {
          "internalType": "uint256",
          "name": "_requestId",
          "type": "uint256"
        },
        {
          "internalType": "uint256",
          "name": "_tip",
          "type": "uint256"
        }
      ],
      "name": "addTip",
      "outputs": [],
      "payable": false,
      "stateMutability": "nonpayable",
      "type": "function"
    },
    {
      "constant": false,
      "inputs": [
        {
          "internalType": "address",
          "name": "_spender",
          "type": "address"
        },
        {
          "internalType": "uint256",
          "name": "_amount",
          "type": "uint256"
        }
      ],
      "name": "approve",
      "outputs": [
        {
          "internalType": "bool",
          "name": "",
          "type": "bool"
        }
      ],
      "payable": false,
      "stateMutability": "nonpayable",
      "type": "function"
    },
    {
      "constant": false,
      "inputs": [
        {
          "internalType": "uint256",
          "name": "_requestId",
          "type": "uint256"
        },
        {
          "internalType": "uint256",
          "name": "_timestamp",
          "type": "uint256"
        },
        {
          "internalType": "uint256",
          "name": "_minerIndex",
          "type": "uint256"
        }
      ],
      "name": "beginDispute",
      "outputs": [],
      "payable": false,
      "stateMutability": "nonpayable",
      "type": "function"
    },
    {
      "constant": false,
      "inputs": [],
      "name": "claimOwnership",
      "outputs": [],
      "payable": false,
      "stateMutability": "nonpayable",
      "type": "function"
    },
    {
      "constant": true,
      "inputs": [],
      "name": "decimals",
      "outputs": [
        {
          "internalType": "uint8",
          "name": "",
          "type": "uint8"
        }
      ],
      "payable": false,
      "stateMutability": "pure",
      "type": "function"
    },
    {
      "constant": false,
      "inputs": [],
      "name": "depositStake",
      "outputs": [],
      "payable": false,
      "stateMutability": "nonpayable",
      "type": "function"
    },
    {
      "constant": true,
      "inputs": [],
      "name": "getNewCurrentVariables",
      "outputs": [
        {
          "internalType": "bytes32",
          "name": "_challenge",
          "type": "bytes32"
        },
        {
          "internalType": "uint256[5]",
          "name": "_requestIds",
          "type": "uint256[5]"
        },
        {
          "internalType": "uint256",
          "name": "_difficutly",
          "type": "uint256"
        },
        {
          "internalType": "uint256",
          "name": "_tip",
          "type": "uint256"
        }
      ],
      "payable": false,
      "stateMutability": "view",
      "type": "function"
    },
    {
      "constant": true,
      "inputs": [],
      "name": "getNewVariablesOnDeck",
      "outputs": [
        {
          "internalType": "uint256[5]",
          "name": "idsOnDeck",
          "type": "uint256[5]"
        },
        {
          "internalType": "uint256[5]",
          "name": "tipsOnDeck",
          "type": "uint256[5]"
        }
      ],
      "payable": false,
      "stateMutability": "view",
      "type": "function"
    },
    {
      "constant": true,
      "inputs": [],
      "name": "getTopRequestIDs",
      "outputs": [
        {
          "internalType": "uint256[5]",
          "name": "_requestIds",
          "type": "uint256[5]"
        }
      ],
      "payable": false,
      "stateMutability": "view",
      "type": "function"
    },
    {
      "constant": false,
      "inputs": [
        {
          "internalType": "uint256",
          "name": "_diff",
          "type": "uint256"
        }
      ],
      "name": "manuallySetDifficulty",
      "outputs": [],
      "payable": false,
      "stateMutability": "nonpayable",
      "type": "function"
    },
    {
      "constant": true,
      "inputs": [],
      "name": "name",
      "outputs": [
        {
          "internalType": "string",
          "name": "",
          "type": "string"
        }
      ],
      "payable": false,
      "stateMutability": "pure",
      "type": "function"
    },
    {
      "constant": false,
      "inputs": [
        {
          "internalType": "address",
          "name": "_propNewTellorAddress",
          "type": "address"
        }
      ],
      "name": "proposeFork",
      "outputs": [],
      "payable": false,
      "stateMutability": "nonpayable",
      "type": "function"
    },
    {
      "constant": false,
      "inputs": [
        {
          "internalType": "address payable",
          "name": "_pendingOwner",
          "type": "address"
        }
      ],
      "name": "proposeOwnership",
      "outputs": [],
      "payable": false,
      "stateMutability": "nonpayable",
      "type": "function"
    },
    {
      "constant": false,
      "inputs": [],
      "name": "requestStakingWithdraw",
      "outputs": [],
      "payable": false,
      "stateMutability": "nonpayable",
      "type": "function"
    },
    {
      "constant": false,
      "inputs": [
        {
          "internalType": "string",
          "name": "_nonce",
          "type": "string"
        },
        {
          "internalType": "uint256[5]",
          "name": "_requestId",
          "type": "uint256[5]"
        },
        {
          "internalType": "uint256[5]",
          "name": "_value",
          "type": "uint256[5]"
        }
      ],
      "name": "submitMiningSolution",
      "outputs": [],
      "payable": false,
      "stateMutability": "nonpayable",
      "type": "function"
    },
    {
      "constant": true,
      "inputs": [],
      "name": "symbol",
      "outputs": [
        {
          "internalType": "string",
          "name": "",
          "type": "string"
        }
      ],
      "payable": false,
      "stateMutability": "pure",
      "type": "function"
    },
    {
      "constant": false,
      "inputs": [
        {
          "internalType": "uint256",
          "name": "_disputeId",
          "type": "uint256"
        }
      ],
      "name": "tallyVotes",
      "outputs": [],
      "payable": false,
      "stateMutability": "nonpayable",
      "type": "function"
    },
    {
      "constant": false,
      "inputs": [
        {
          "internalType": "string",
          "name": "_nonce",
          "type": "string"
        },
        {
          "internalType": "uint256[5]",
          "name": "_requestId",
          "type": "uint256[5]"
        },
        {
          "internalType": "uint256[5]",
          "name": "_value",
          "type": "uint256[5]"
        }
      ],
      "name": "testSubmitMiningSolution",
      "outputs": [],
      "payable": false,
      "stateMutability": "nonpayable",
      "type": "function"
    },
    {
      "constant": false,
      "inputs": [
        {
          "internalType": "address",
          "name": "_address",
          "type": "address"
        },
        {
          "internalType": "uint256",
          "name": "_amount",
          "type": "uint256"
        }
      ],
      "name": "theLazyCoon",
      "outputs": [],
      "payable": false,
      "stateMutability": "nonpayable",
      "type": "function"
    },
    {
      "constant": false,
      "inputs": [
        {
          "internalType": "address",
          "name": "_to",
          "type": "address"
        },
        {
          "internalType": "uint256",
          "name": "_amount",
          "type": "uint256"
        }
      ],
      "name": "transfer",
      "outputs": [
        {
          "internalType": "bool",
          "name": "",
          "type": "bool"
        }
      ],
      "payable": false,
      "stateMutability": "nonpayable",
      "type": "function"
    },
    {
      "constant": false,
      "inputs": [
        {
          "internalType": "address",
          "name": "_from",
          "type": "address"
        },
        {
          "internalType": "address",
          "name": "_to",
          "type": "address"
        },
        {
          "internalType": "uint256",
          "name": "_amount",
          "type": "uint256"
        }
      ],
      "name": "transferFrom",
      "outputs": [
        {
          "internalType": "bool",
          "name": "",
          "type": "bool"
        }
      ],
      "payable": false,
      "stateMutability": "nonpayable",
      "type": "function"
    },
    {
      "constant": false,
      "inputs": [
        {
          "internalType": "uint256",
          "name": "_disputeId",
          "type": "uint256"
        }
      ],
      "name": "unlockDisputeFee",
      "outputs": [],
      "payable": false,
      "stateMutability": "nonpayable",
      "type": "function"
    },
    {
      "constant": false,
      "inputs": [
        {
          "internalType": "uint256",
          "name": "_disputeId",
          "type": "uint256"
        }
      ],
      "name": "updateTellor",
      "outputs": [],
      "payable": false,
      "stateMutability": "nonpayable",
      "type": "function"
    },
    {
      "constant": false,
      "inputs": [
        {
          "internalType": "uint256",
          "name": "_disputeId",
          "type": "uint256"
        },
        {
          "internalType": "bool",
          "name": "_supportsDispute",
          "type": "bool"
        }
      ],
      "name": "vote",
      "outputs": [],
      "payable": false,
      "stateMutability": "nonpayable",
      "type": "function"
    },
    {
      "constant": false,
      "inputs": [],
      "name": "withdrawStake",
      "outputs": [],
      "payable": false,
      "stateMutability": "nonpayable",
      "type": "function"
    }
  ],
  "bytecode": "0x608060405234801561001057600080fd5b5061395b806100206000396000f3fe608060405234801561001057600080fd5b50600436106101735760003560e01c8063752d49a1116100de578063b079f64a11610097578063c9d27afe11610071578063c9d27afe14610754578063d47f0dd41461078e578063f458ab981461081c578063fe1cd15d1461084a57610173565b8063b079f64a146106ce578063bed9d8611461071c578063c52e95391461072657610173565b8063752d49a1146104c85780638581af191461050057806395d89b41146105425780639a01ca13146105c55780639a7077ab146105f3578063a9059cbb1461066857610173565b8063313ce56711610130578063313ce5671461033f5780634049f198146103635780634350283e146103be5780634d318b0e1461044c5780634e71e0c81461047a578063710bf3221461048457610173565b806306fdde0314610178578063095ea7b3146101fb5780630d2d76a21461026157806323b872dd1461026b57806326b7d9f6146102f157806328449c3a14610335575b600080fd5b610180610890565b6040518080602001828103825283818151815260200191508051906020019080838360005b838110156101c05780820151818401526020810190506101a5565b50505050905090810190601f1680156101ed5780820380516001836020036101000a031916815260200191505b509250505060405180910390f35b6102476004803603604081101561021157600080fd5b81019080803573ffffffffffffffffffffffffffffffffffffffff169060200190929190803590602001909291905050506108cd565b604051808215151515815260200191505060405180910390f35b61026961099f565b005b6102d76004803603606081101561028157600080fd5b81019080803573ffffffffffffffffffffffffffffffffffffffff169060200190929190803573ffffffffffffffffffffffffffffffffffffffff16906020019092919080359060200190929190505050610a0b565b604051808215151515815260200191505060405180910390f35b6103336004803603602081101561030757600080fd5b81019080803573ffffffffffffffffffffffffffffffffffffffff169060200190929190505050610b12565b005b61033d610bb3565b005b610347610c1f565b604051808260ff1660ff16815260200191505060405180910390f35b61036b610c28565b6040518085815260200184600560200280838360005b8381101561039c578082015181840152602081019050610381565b5050505090500183815260200182815260200194505050505060405180910390f35b61044a60048036036101608110156103d557600080fd5b81019080803590602001906401000000008111156103f257600080fd5b82018360208201111561040457600080fd5b8035906020019184600183028401116401000000008311171561042657600080fd5b90919293919293908060a0019091929192908060a001909192919290505050610c4d565b005b6104786004803603602081101561046257600080fd5b8101908080359060200190929190505050610d37565b005b610482610dac565b005b6104c66004803603602081101561049a57600080fd5b81019080803573ffffffffffffffffffffffffffffffffffffffff169060200190929190505050610e18565b005b6104fe600480360360408110156104de57600080fd5b810190808035906020019092919080359060200190929190505050610eb9565b005b6105406004803603606081101561051657600080fd5b81019080803590602001909291908035906020019092919080359060200190929190505050610f37565b005b61054a610fbe565b6040518080602001828103825283818151815260200191508051906020019080838360005b8381101561058a57808201518184015260208101905061056f565b50505050905090810190601f1680156105b75780820380516001836020036101000a031916815260200191505b509250505060405180910390f35b6105f1600480360360208110156105db57600080fd5b8101908080359060200190929190505050610ffb565b005b6105fb611070565b6040518083600560200280838360005b8381101561062657808201518184015260208101905061060b565b5050505090500182600560200280838360005b83811015610654578082015181840152602081019050610639565b505050509050019250505060405180910390f35b6106b46004803603604081101561067e57600080fd5b81019080803573ffffffffffffffffffffffffffffffffffffffff16906020019092919080359060200190929190505050611092565b604051808215151515815260200191505060405180910390f35b61071a600480360360408110156106e457600080fd5b81019080803573ffffffffffffffffffffffffffffffffffffffff16906020019092919080359060200190929190505050611164565b005b61072461120e565b005b6107526004803603602081101561073c57600080fd5b810190808035906020019092919050505061127a565b005b61078c6004803603604081101561076a57600080fd5b81019080803590602001909291908035151590602001909291905050506112ef565b005b61081a60048036036101608110156107a557600080fd5b81019080803590602001906401000000008111156107c257600080fd5b8201836020820111156107d457600080fd5b803590602001918460018302840111640100000000831117156107f657600080fd5b90919293919293908060a0019091929192908060a001909192919290505050611371565b005b6108486004803603602081101561083257600080fd5b8101908080359060200190929190505050611441565b005b6108526114b6565b6040518082600560200280838360005b8381101561087d578082015181840152602081019050610862565b5050505090500191505060405180910390f35b60606040518060400160405280600f81526020017f54656c6c6f722054726962757465730000000000000000000000000000000000815250905090565b60008073__$e6d6eab054cf6cc8ad21596dd9777aec01$__63850dcc32909185856040518463ffffffff1660e01b8152600401808481526020018373ffffffffffffffffffffffffffffffffffffffff1673ffffffffffffffffffffffffffffffffffffffff168152602001828152602001935050505060206040518083038186803b15801561095c57600080fd5b505af4158015610970573d6000803e3d6000fd5b505050506040513d602081101561098657600080fd5b8101908080519060200190929190505050905092915050565b600073__$3c63e47b50370f30fae579c3aa38018afe$__63820a2d6690916040518263ffffffff1660e01b81526004018082815260200191505060006040518083038186803b1580156109f157600080fd5b505af4158015610a05573d6000803e3d6000fd5b50505050565b60008073__$e6d6eab054cf6cc8ad21596dd9777aec01$__63ca50189990918686866040518563ffffffff1660e01b8152600401808581526020018473ffffffffffffffffffffffffffffffffffffffff1673ffffffffffffffffffffffffffffffffffffffff1681526020018373ffffffffffffffffffffffffffffffffffffffff1673ffffffffffffffffffffffffffffffffffffffff16815260200182815260200194505050505060206040518083038186803b158015610ace57600080fd5b505af4158015610ae2573d6000803e3d6000fd5b505050506040513d6020811015610af857600080fd5b810190808051906020019092919050505090509392505050565b600073__$6eea42fadb496cf5107a5a057a700a86ef$__63694bf49f9091836040518363ffffffff1660e01b8152600401808381526020018273ffffffffffffffffffffffffffffffffffffffff1673ffffffffffffffffffffffffffffffffffffffff1681526020019250505060006040518083038186803b158015610b9857600080fd5b505af4158015610bac573d6000803e3d6000fd5b5050505050565b600073__$3c63e47b50370f30fae579c3aa38018afe$__63c9cf5e4c90916040518263ffffffff1660e01b81526004018082815260200191505060006040518083038186803b158015610c0557600080fd5b505af4158015610c19573d6000803e3d6000fd5b50505050565b60006012905090565b6000610c3261376f565b600080610c3f60006114cd565b935093509350935090919293565b600073__$b4792b85839a28132e2f342dfaea79a7fb$__63a4bc40679091868686866040518663ffffffff1660e01b8152600401808681526020018060200184600560200280828437600081840152601f19601f82011690508083019250505083600560200280828437600081840152601f19601f8201169050808301925050508281038252868682818152602001925080828437600081840152601f19601f820116905080830192505050965050505050505060006040518083038186803b158015610d1957600080fd5b505af4158015610d2d573d6000803e3d6000fd5b5050505050505050565b600073__$6eea42fadb496cf5107a5a057a700a86ef$__63def6fac79091836040518363ffffffff1660e01b8152600401808381526020018281526020019250505060006040518083038186803b158015610d9157600080fd5b505af4158015610da5573d6000803e3d6000fd5b5050505050565b600073__$b4792b85839a28132e2f342dfaea79a7fb$__63314691ff90916040518263ffffffff1660e01b81526004018082815260200191505060006040518083038186803b158015610dfe57600080fd5b505af4158015610e12573d6000803e3d6000fd5b50505050565b600073__$b4792b85839a28132e2f342dfaea79a7fb$__63291f8b739091836040518363ffffffff1660e01b8152600401808381526020018273ffffffffffffffffffffffffffffffffffffffff1673ffffffffffffffffffffffffffffffffffffffff1681526020019250505060006040518083038186803b158015610e9e57600080fd5b505af4158015610eb2573d6000803e3d6000fd5b5050505050565b600073__$b4792b85839a28132e2f342dfaea79a7fb$__6302e8f21b909184846040518463ffffffff1660e01b815260040180848152602001838152602001828152602001935050505060006040518083038186803b158015610f1b57600080fd5b505af4158015610f2f573d6000803e3d6000fd5b505050505050565b600073__$6eea42fadb496cf5107a5a057a700a86ef$__63ca9a4ea590918585856040518563ffffffff1660e01b81526004018085815260200184815260200183815260200182815260200194505050505060006040518083038186803b158015610fa157600080fd5b505af4158015610fb5573d6000803e3d6000fd5b50505050505050565b60606040518060400160405280600381526020017f5452420000000000000000000000000000000000000000000000000000000000815250905090565b600073__$6eea42fadb496cf5107a5a057a700a86ef$__6397f5f9729091836040518363ffffffff1660e01b8152600401808381526020018281526020019250505060006040518083038186803b15801561105557600080fd5b505af4158015611069573d6000803e3d6000fd5b5050505050565b61107861376f565b61108061376f565b61108a60006115ce565b915091509091565b60008073__$e6d6eab054cf6cc8ad21596dd9777aec01$__63c84b96f5909185856040518463ffffffff1660e01b8152600401808481526020018373ffffffffffffffffffffffffffffffffffffffff1673ffffffffffffffffffffffffffffffffffffffff168152602001828152602001935050505060206040518083038186803b15801561112157600080fd5b505af4158015611135573d6000803e3d6000fd5b505050506040513d602081101561114b57600080fd5b8101908080519060200190929190505050905092915050565b600073__$ef9a7d29b765fcdd38046f1a6e0f0fa5d8$__6348656ba6909184846040518463ffffffff1660e01b8152600401808481526020018373ffffffffffffffffffffffffffffffffffffffff1673ffffffffffffffffffffffffffffffffffffffff168152602001828152602001935050505060006040518083038186803b1580156111f257600080fd5b505af4158015611206573d6000803e3d6000fd5b505050505050565b600073__$3c63e47b50370f30fae579c3aa38018afe$__6344bacc4b90916040518263ffffffff1660e01b81526004018082815260200191505060006040518083038186803b15801561126057600080fd5b505af4158015611274573d6000803e3d6000fd5b50505050565b600073__$ef9a7d29b765fcdd38046f1a6e0f0fa5d8$__633a7f80789091836040518363ffffffff1660e01b8152600401808381526020018281526020019250505060006040518083038186803b1580156112d457600080fd5b505af41580156112e8573d6000803e3d6000fd5b5050505050565b600073__$6eea42fadb496cf5107a5a057a700a86ef$__632da0706e909184846040518463ffffffff1660e01b81526004018084815260200183815260200182151515158152602001935050505060006040518083038186803b15801561135557600080fd5b505af4158015611369573d6000803e3d6000fd5b505050505050565b61143b84848080601f016020809104026020016040519081016040528093929190818152602001838380828437600081840152601f19601f82011690508083019250505050505050836005806020026040519081016040528092919082600560200280828437600081840152601f19601f820116905080830192505050505050836005806020026040519081016040528092919082600560200280828437600081840152601f19601f820116905080830192505050505050600061168f909392919063ffffffff16565b50505050565b600073__$6eea42fadb496cf5107a5a057a700a86ef$__6322048ecf9091836040518363ffffffff1660e01b8152600401808381526020018281526020019250505060006040518083038186803b15801561149b57600080fd5b505af41580156114af573d6000803e3d6000fd5b5050505050565b6114be61376f565b6114c86000612217565b905090565b60006114d761376f565b60008060008090505b6005811015611522578560350181600581106114f857fe5b600202016000015484826005811061150c57fe5b60200201818152505080806001019150506114e0565b5084600001548386604001600060405180807f646966666963756c747900000000000000000000000000000000000000000000815250600a019050604051809103902081526020019081526020016000205487604001600060405180807f63757272656e74546f74616c54697073000000000000000000000000000000008152506010019050604051809103902081526020019081526020016000205493509350935093509193509193565b6115d661376f565b6115de61376f565b6115e783612217565b915060008090505b60058110156116895783604801600084836005811061160a57fe5b60200201518152602001908152602001600020600401600060405180807f746f74616c5469700000000000000000000000000000000000000000000000008152506008019050604051809103902081526020019081526020016000205482826005811061167357fe5b60200201818152505080806001019150506115ef565b50915091565b600033604051602001808273ffffffffffffffffffffffffffffffffffffffff1673ffffffffffffffffffffffffffffffffffffffff16815260200191505060405160208183030381529060405280519060200120905060018560470160003373ffffffffffffffffffffffffffffffffffffffff1673ffffffffffffffffffffffffffffffffffffffff16815260200190815260200160002060000154146117a0576040517f08c379a000000000000000000000000000000000000000000000000000000000815260040180806020018281038252601a8152602001807f4d696e657220737461747573206973206e6f74207374616b657200000000000081525060200191505060405180910390fd5b61038485604001600083815260200190815260200160002054420311611811576040517f08c379a000000000000000000000000000000000000000000000000000000000815260040180806020018281038252602a8152602001806138dc602a913960400191505060405180910390fd5b8460350160006005811061182157fe5b60020201600001548360006005811061183657fe5b6020020151146118ae576040517f08c379a00000000000000000000000000000000000000000000000000000000081526004018080602001828103825260138152602001807f526571756573742049442069732077726f6e670000000000000000000000000081525060200191505060405180910390fd5b846035016001600581106118be57fe5b6002020160000154836001600581106118d357fe5b60200201511461194b576040517f08c379a00000000000000000000000000000000000000000000000000000000081526004018080602001828103825260138152602001807f526571756573742049442069732077726f6e670000000000000000000000000081525060200191505060405180910390fd5b8460350160026005811061195b57fe5b60020201600001548360026005811061197057fe5b6020020151146119e8576040517f08c379a00000000000000000000000000000000000000000000000000000000081526004018080602001828103825260138152602001807f526571756573742049442069732077726f6e670000000000000000000000000081525060200191505060405180910390fd5b846035016003600581106119f857fe5b600202016000015483600360058110611a0d57fe5b602002015114611a85576040517f08c379a00000000000000000000000000000000000000000000000000000000081526004018080602001828103825260138152602001807f526571756573742049442069732077726f6e670000000000000000000000000081525060200191505060405180910390fd5b84603501600460058110611a9557fe5b600202016000015483600460058110611aaa57fe5b602002015114611b22576040517f08c379a00000000000000000000000000000000000000000000000000000000081526004018080602001828103825260138152602001807f526571756573742049442069732077726f6e670000000000000000000000000081525060200191505060405180910390fd5b428560400160008381526020019081526020016000208190555060008560000154905060008660400160007f6c505cb2db6644f57b42d87bd9407b0f66788b07d0617a2bc1356a0e69e66f9a60001b81526020019081526020016000205490506000151587604101600084815260200190815260200160002060003373ffffffffffffffffffffffffffffffffffffffff1673ffffffffffffffffffffffffffffffffffffffff16815260200190815260200160002060009054906101000a900460ff16151514611c3e576040517f08c379a00000000000000000000000000000000000000000000000000000000081526004018080602001828103825260218152602001806139066021913960400191505060405180910390fd5b600187604101600084815260200190815260200160002060003373ffffffffffffffffffffffffffffffffffffffff1673ffffffffffffffffffffffffffffffffffffffff16815260200190815260200160002060006101000a81548160ff02191690831515021790555060008760480160008960400160007f969ea04b74d02bb4d9e6e8e57236e1b9ca31627139ae9f0e465249932e82450260001b8152602001908152602001600020548152602001908152602001600020905033816008016000600181526020019081526020016000208360058110611d1c57fe5b0160006101000a81548173ffffffffffffffffffffffffffffffffffffffff021916908373ffffffffffffffffffffffffffffffffffffffff16021790555084600060058110611d6857fe5b60200201518160090160008081526020019081526020016000208360058110611d8d57fe5b018190555084600160058110611d9f57fe5b6020020151816009016000600181526020019081526020016000208360058110611dc557fe5b018190555084600260058110611dd757fe5b6020020151816009016000600281526020019081526020016000208360058110611dfd57fe5b018190555084600360058110611e0f57fe5b6020020151816009016000600381526020019081526020016000208360058110611e3557fe5b018190555084600460058110611e4757fe5b6020020151816009016000600481526020019081526020016000208360058110611e6d57fe5b0181905550338160080160008081526020019081526020016000208360058110611e9357fe5b0160006101000a81548173ffffffffffffffffffffffffffffffffffffffff021916908373ffffffffffffffffffffffffffffffffffffffff16021790555033816008016000600181526020019081526020016000208360058110611ef457fe5b0160006101000a81548173ffffffffffffffffffffffffffffffffffffffff021916908373ffffffffffffffffffffffffffffffffffffffff16021790555033816008016000600281526020019081526020016000208360058110611f5557fe5b0160006101000a81548173ffffffffffffffffffffffffffffffffffffffff021916908373ffffffffffffffffffffffffffffffffffffffff16021790555033816008016000600381526020019081526020016000208360058110611fb657fe5b0160006101000a81548173ffffffffffffffffffffffffffffffffffffffff021916908373ffffffffffffffffffffffffffffffffffffffff1602179055503381600801600060048152602001908152602001600020836005811061201757fe5b0160006101000a81548173ffffffffffffffffffffffffffffffffffffffff021916908373ffffffffffffffffffffffffffffffffffffffff16021790555060056001830114156120b05761206d88888861232b565b60008860400160007f6c505cb2db6644f57b42d87bd9407b0f66788b07d0617a2bc1356a0e69e66f9a60001b8152602001908152602001600020819055506120f9565b8760400160007f6c505cb2db6644f57b42d87bd9407b0f66788b07d0617a2bc1356a0e69e66f9a60001b8152602001908152602001600020600081548092919060010191905055505b823373ffffffffffffffffffffffffffffffffffffffff167f0e4e65dc389613b6884b7f8c615e54fd3b894fbbbc534c990037744eea942000898989604051808060200184600560200280838360005b83811015612164578082015181840152602081019050612149565b5050505090500183600560200280838360005b83811015612192578082015181840152602081019050612177565b50505050905001828103825285818151815260200191508051906020019080838360005b838110156121d15780820151818401526020810190506121b6565b50505050905090810190601f1680156121fe5780820380516001836020036101000a031916815260200191505b5094505050505060405180910390a35050505050505050565b61221f61376f565b61222761376f565b61222f61376f565b6122778460010160338060200260405190810160405280929190826033801561226d576020028201915b815481526020019060010190808311612259575b5050505050612e9f565b809250819350505060008090505b600581101561232357600083826005811061229c57fe5b6020020151146122e6578460430160008383600581106122b857fe5b60200201518152602001908152602001600020548482600581106122d857fe5b602002018181525050612316565b8460350181600403600581106122f857fe5b600202016000015484826005811061230c57fe5b6020020181815250505b8080600101915050612285565b505050919050565b60008360480160008560400160007f969ea04b74d02bb4d9e6e8e57236e1b9ca31627139ae9f0e465249932e82450260001b8152602001908152602001600020548152602001908152602001600020905060008460400160007f97e6eb29f6a85471f7cc9b57f9e4c3deaf398cfc9798673160d7798baf0b13a460001b8152602001908152602001600020544203905060006123c96104b083613031565b905060008660400160007fb12aff7664b16cb99339be399b863feecd64d14817be7e1f042f97e3f358e64e60001b8152602001908152602001600020549050610fa0828860400160007fad16221efc80aaf1b7e69bd3ecb61ba5ffa539adf129c3b4ffff769c9b5bbc3360001b8152602001908152602001600020540382028161244f57fe5b059150600082141561246057600191505b61246d828201600161304a565b8760400160007fb12aff7664b16cb99339be399b863feecd64d14817be7e1f042f97e3f358e64e60001b8152602001908152602001600020819055506000876000015490506000603c42816124be57fe5b0642039050808960400160007f97e6eb29f6a85471f7cc9b57f9e4c3deaf398cfc9798673160d7798baf0b13a460001b81526020019081526020016000208190555061250861376f565b60008090505b600581101561295c576000600190505b600581101561276c576000896009016000848152602001908152602001600020826005811061254957fe5b0154905060008a6008016000858152602001908152602001600020836005811061256f57fe5b0160009054906101000a900473ffffffffffffffffffffffffffffffffffffffff16905060008390505b6000811180156125cc57508b600901600086815260200190815260200160002060018203600581106125c757fe5b015483105b156126cd578b600901600086815260200190815260200160002060018203600581106125f457fe5b01548c6009016000878152602001908152602001600020826005811061261657fe5b01819055508b6008016000868152602001908152602001600020600182036005811061263e57fe5b0160009054906101000a900473ffffffffffffffffffffffffffffffffffffffff168c6008016000878152602001908152602001600020826005811061268057fe5b0160006101000a81548173ffffffffffffffffffffffffffffffffffffffff021916908373ffffffffffffffffffffffffffffffffffffffff160217905550808060019003915050612599565b8381101561275c57828c600901600087815260200190815260200160002082600581106126f657fe5b0181905550818c6008016000878152602001908152602001600020826005811061271c57fe5b0160006101000a81548173ffffffffffffffffffffffffffffffffffffffff021916908373ffffffffffffffffffffffffffffffffffffffff1602179055505b505050808060010191505061251e565b5060008b60480160008b846005811061278157fe5b6020020151815260200190815260200160002090508860090160008381526020019081526020016000206005806020026040519081016040528092919082600580156127e2576020028201915b8154815260200190600101908083116127ce575b50505050509250826002600581106127f657fe5b60200201518160060160008681526020019081526020016000208190555088600801600083815260200190815260200160002081600801600086815260200190815260200160002090600561284c929190613791565b508860090160008381526020019081526020016000208160090160008681526020019081526020016000209060056128859291906137ce565b5088600801600083815260200190815260200160002060006128a7919061380b565b88600901600083815260200190815260200160002060006128c8919061382e565b80600301849080600181540180825580915050906001820390600052602060002001600090919290919091505550438160050160008681526020019081526020016000208190555060008160040160007f2a9e355a92978430eca9c1aa3a9ba590094bac282594bccf82de16b83046e2c360001b81526020019081526020016000208190555050808060010191505061250e565b50827fbeb3b9f46c8d7bb00c873fca10d307538df350866d25f891ffb395147ddbdc458984848e60400160007fdb21f0c4accc4f2f5f1045353763a9ffe7091ceaf0fcceb5831858d96cf8463160001b8152602001908152602001600020546040518085600560200280838360005b838110156129e65780820151818401526020810190506129cb565b5050505090500184815260200183600560200280838360005b83811015612a1a5780820151818401526020810190506129ff565b5050505090500182815260200194505050505060405180910390a287600060058110612a4257fe5b60200201518a60420160008481526020019081526020016000208190555089603401829080600181540180825580915050906001820390600052602060002001600090919290919091505550612a96613851565b8a60480160008a600060058110612aa957fe5b602002015181526020019081526020016000206008016000848152602001908152602001600020600580602002604051908101604052809291908260058015612b3d576020028201915b8160009054906101000a900473ffffffffffffffffffffffffffffffffffffffff1673ffffffffffffffffffffffffffffffffffffffff1681526020019060010190808311612af3575b50505050509050612b4f8b8883613063565b8a60400160007f969ea04b74d02bb4d9e6e8e57236e1b9ca31627139ae9f0e465249932e82450260001b815260200190815260200160002060008154809291906001019190505550612b9f61376f565b612ba88c612217565b905060008090505b6005811015612d0557818160058110612bc557fe5b60200201518d6035018260058110612bd957fe5b600202016000018190555060008d6001018e6048016000858560058110612bfc57fe5b6020020151815260200190815260200160002060040160007f1e344bd070f05f1c5b3f0b1266f4f20d837a0a8190a3a2da8b0375eac2ba86ea60001b81526020019081526020016000205460338110612c5157fe5b01819055508c6048016000838360058110612c6857fe5b6020020151815260200190815260200160002060040160007f2a9e355a92978430eca9c1aa3a9ba590094bac282594bccf82de16b83046e2c360001b8152602001908152602001600020548d60400160007fd26d9834adf5a73309c4974bf654850bb699df8505e70d4cfde365c417b19dfc60001b8152602001908152602001600020600082825401925050819055508080600101915050612bb0565b508a8560014303406040516020018080602001848152602001838152602001828103825285818151815260200191508051906020019080838360005b83811015612d5c578082015181840152602081019050612d41565b50505050905090810190601f168015612d895780820380516001836020036101000a031916815260200191505b50945050505050604051602081830303815290604052805190602001209450848c60000181905550847f1d85ce10456e29b67de37887496d3f1fcf1b64c79c4d07484038703a9f5c1408828e60400160007fb12aff7664b16cb99339be399b863feecd64d14817be7e1f042f97e3f358e64e60001b8152602001908152602001600020548f60400160007fd26d9834adf5a73309c4974bf654850bb699df8505e70d4cfde365c417b19dfc60001b8152602001908152602001600020546040518084600560200280838360005b83811015612e71578082015181840152602081019050612e56565b50505050905001838152602001828152602001935050505060405180910390a2505050505050505050505050565b612ea761376f565b612eaf61376f565b600083600160338110612ebe57fe5b60200201519050600080905060008090505b6005811015612f5757856001820160338110612ee857fe5b6020020151858260058110612ef957fe5b60200201818152505060018101848260058110612f1257fe5b60200201818152505082858260058110612f2857fe5b60200201511015612f4a57848160058110612f3f57fe5b602002015192508091505b8080600101915050612ed0565b506000600690505b60338110156130295782868260338110612f7557fe5b6020020151111561301c57858160338110612f8c57fe5b6020020151858360058110612f9d57fe5b60200201818152505080848360058110612fb357fe5b602002018181525050858160338110612fc857fe5b6020020151925060008090505b600581101561301a5783868260058110612feb57fe5b6020020151101561300d5785816005811061300257fe5b602002015193508092505b8080600101915050612fd5565b505b8080600101915050612f5f565b505050915091565b60008183106130405781613042565b825b905092915050565b6000818313613059578161305b565b825b905092915050565b6000670de0b6b3a76400009050600061012c8285028161307f57fe5b0490506000600a8660400160007fd26d9834adf5a73309c4974bf654850bb699df8505e70d4cfde365c417b19dfc60001b815260200190815260200160002054816130c657fe5b0490506000600283816130d557fe5b04905073__$e6d6eab054cf6cc8ad21596dd9777aec01$__63c7bb46ad88308860006005811061310157fe5b60200201518688016040518563ffffffff1660e01b8152600401808581526020018473ffffffffffffffffffffffffffffffffffffffff1673ffffffffffffffffffffffffffffffffffffffff1681526020018373ffffffffffffffffffffffffffffffffffffffff1673ffffffffffffffffffffffffffffffffffffffff16815260200182815260200194505050505060006040518083038186803b1580156131aa57600080fd5b505af41580156131be573d6000803e3d6000fd5b5050505073__$e6d6eab054cf6cc8ad21596dd9777aec01$__63c7bb46ad8830886001600581106131eb57fe5b60200201518688016040518563ffffffff1660e01b8152600401808581526020018473ffffffffffffffffffffffffffffffffffffffff1673ffffffffffffffffffffffffffffffffffffffff1681526020018373ffffffffffffffffffffffffffffffffffffffff1673ffffffffffffffffffffffffffffffffffffffff16815260200182815260200194505050505060006040518083038186803b15801561329457600080fd5b505af41580156132a8573d6000803e3d6000fd5b5050505073__$e6d6eab054cf6cc8ad21596dd9777aec01$__63c7bb46ad8830886002600581106132d557fe5b60200201518688016040518563ffffffff1660e01b8152600401808581526020018473ffffffffffffffffffffffffffffffffffffffff1673ffffffffffffffffffffffffffffffffffffffff1681526020018373ffffffffffffffffffffffffffffffffffffffff1673ffffffffffffffffffffffffffffffffffffffff16815260200182815260200194505050505060006040518083038186803b15801561337e57600080fd5b505af4158015613392573d6000803e3d6000fd5b5050505073__$e6d6eab054cf6cc8ad21596dd9777aec01$__63c7bb46ad8830886003600581106133bf57fe5b60200201518688016040518563ffffffff1660e01b8152600401808581526020018473ffffffffffffffffffffffffffffffffffffffff1673ffffffffffffffffffffffffffffffffffffffff1681526020018373ffffffffffffffffffffffffffffffffffffffff1673ffffffffffffffffffffffffffffffffffffffff16815260200182815260200194505050505060006040518083038186803b15801561346857600080fd5b505af415801561347c573d6000803e3d6000fd5b5050505073__$e6d6eab054cf6cc8ad21596dd9777aec01$__63c7bb46ad8830886004600581106134a957fe5b60200201518688016040518563ffffffff1660e01b8152600401808581526020018473ffffffffffffffffffffffffffffffffffffffff1673ffffffffffffffffffffffffffffffffffffffff1681526020018373ffffffffffffffffffffffffffffffffffffffff1673ffffffffffffffffffffffffffffffffffffffff16815260200182815260200194505050505060006040518083038186803b15801561355257600080fd5b505af4158015613566573d6000803e3d6000fd5b5050505060028760400160007fd26d9834adf5a73309c4974bf654850bb699df8505e70d4cfde365c417b19dfc60001b815260200190815260200160002054816135ac57fe5b04600584028201038760400160007fb1557182e4359a1f0c6301278e8f5b35a776ab58d39892581e357578fb28783660001b81526020019081526020016000206000828254019250508190555073__$e6d6eab054cf6cc8ad21596dd9777aec01$__63c7bb46ad88308a603f0160007f9dbc393ddc18fd27b1d9b1b129059925688d2f2d5818a5ec3ebb750b7c286ea660001b815260200190815260200160002060009054906101000a900473ffffffffffffffffffffffffffffffffffffffff16856040518563ffffffff1660e01b8152600401808581526020018473ffffffffffffffffffffffffffffffffffffffff1673ffffffffffffffffffffffffffffffffffffffff1681526020018373ffffffffffffffffffffffffffffffffffffffff1673ffffffffffffffffffffffffffffffffffffffff16815260200182815260200194505050505060006040518083038186803b15801561371057600080fd5b505af4158015613724573d6000803e3d6000fd5b5050505060008760400160007fd26d9834adf5a73309c4974bf654850bb699df8505e70d4cfde365c417b19dfc60001b81526020019081526020016000208190555050505050505050565b6040518060a00160405280600590602082028038833980820191505090505090565b82600581019282156137bd579182015b828111156137bc5782548255916001019190600101906137a1565b5b5090506137ca9190613873565b5090565b82600581019282156137fa579182015b828111156137f95782548255916001019190600101906137de565b5b50905061380791906138b6565b5090565b506000815560010160008155600101600081556001016000815560010160009055565b506000815560010160008155600101600081556001016000815560010160009055565b6040518060a00160405280600590602082028038833980820191505090505090565b6138b391905b808211156138af57600081816101000a81549073ffffffffffffffffffffffffffffffffffffffff021916905550600101613879565b5090565b90565b6138d891905b808211156138d45760008160009055506001016138bc565b5090565b9056fe4d696e65722063616e206f6e6c792077696e2072657761726473206f6e636520706572203135206d696e4d696e657220616c7265616479207375626d6974746564207468652076616c7565a265627a7a7231582042aa8a8e454e0999e83d42845ceb723079bbd99bc56fb275167ad95d9f76fda864736f6c63430005100032",
  "linkReferences": {
    "contracts/libraries/TellorDispute.sol": {
      "TellorDispute": [
        {
          "length": 20,
          "start": 2870
        },
        {
          "length": 20,
          "start": 3419
        },
        {
          "length": 20,
          "start": 3931
        },
        {
          "length": 20,
          "start": 4127
        },
        {
          "length": 20,
          "start": 4883
        },
        {
          "length": 20,
          "start": 5221
        }
      ]
    },
    "contracts/libraries/TellorLibrary.sol": {
      "TellorLibrary": [
        {
          "length": 20,
          "start": 3185
        },
        {
          "length": 20,
          "start": 3536
        },
        {
          "length": 20,
          "start": 3644
        },
        {
          "length": 20,
          "start": 3805
        }
      ]
    },
    "contracts/libraries/TellorStake.sol": {
      "TellorStake": [
        {
          "length": 20,
          "start": 2499
        },
        {
          "length": 20,
          "start": 3031
        },
        {
          "length": 20,
          "start": 4658
        }
      ]
    },
    "contracts/libraries/TellorTransfer.sol": {
      "TellorTransfer": [
        {
          "length": 20,
          "start": 2290
        },
        {
          "length": 20,
          "start": 2608
        },
        {
          "length": 20,
          "start": 4279
        },
        {
          "length": 20,
          "start": 12538
        },
        {
          "length": 20,
          "start": 12772
        },
        {
          "length": 20,
          "start": 13006
        },
        {
          "length": 20,
          "start": 13240
        },
        {
          "length": 20,
          "start": 13474
        },
        {
          "length": 20,
          "start": 13851
        }
      ]
    },
    "contracts/mocks/TellorLibraryTest.sol": {
      "TellorLibraryTest": [
        {
          "length": 20,
          "start": 4488
        },
        {
          "length": 20,
          "start": 4766
        }
      ]
    }
  },
  "deployedLinkReferences": {
    "contracts/libraries/TellorDispute.sol": {
      "TellorDispute": [
        {
          "length": 20,
          "start": 2838
        },
        {
          "length": 20,
          "start": 3387
        },
        {
          "length": 20,
          "start": 3899
        },
        {
          "length": 20,
          "start": 4095
        },
        {
          "length": 20,
          "start": 4851
        },
        {
          "length": 20,
          "start": 5189
        }
      ]
    },
    "contracts/libraries/TellorLibrary.sol": {
      "TellorLibrary": [
        {
          "length": 20,
          "start": 3153
        },
        {
          "length": 20,
          "start": 3504
        },
        {
          "length": 20,
          "start": 3612
        },
        {
          "length": 20,
          "start": 3773
        }
      ]
    },
    "contracts/libraries/TellorStake.sol": {
      "TellorStake": [
        {
          "length": 20,
          "start": 2467
        },
        {
          "length": 20,
          "start": 2999
        },
        {
          "length": 20,
          "start": 4626
        }
      ]
    },
    "contracts/libraries/TellorTransfer.sol": {
      "TellorTransfer": [
        {
          "length": 20,
          "start": 2258
        },
        {
          "length": 20,
          "start": 2576
        },
        {
          "length": 20,
          "start": 4247
        },
        {
          "length": 20,
          "start": 12506
        },
        {
          "length": 20,
          "start": 12740
        },
        {
          "length": 20,
          "start": 12974
        },
        {
          "length": 20,
          "start": 13208
        },
        {
          "length": 20,
          "start": 13442
        },
        {
          "length": 20,
          "start": 13819
        }
      ]
    },
    "contracts/mocks/TellorLibraryTest.sol": {
      "TellorLibraryTest": [
        {
          "length": 20,
          "start": 4456
        },
        {
          "length": 20,
          "start": 4734
        }
      ]
    }
  }
}