{
  "_format": "hh-sol-artifact-1",
  "contractName": "Tellor",
  "sourceName": "contracts/Tellor.sol",
  "abi": [
    {
      "constant": false,
      "inputs": [
        {
          "internalType": "uint256",
          "name": "_requestId",
          "type": "uint256"
        },
        {
          "internalType": "uint256",
          "name": "_tip",
          "type": "uint256"
        }
      ],
      "name": "addTip",
      "outputs": [],
      "payable": false,
      "stateMutability": "nonpayable",
      "type": "function"
    },
    {
      "constant": false,
      "inputs": [
        {
          "internalType": "address",
          "name": "_spender",
          "type": "address"
        },
        {
          "internalType": "uint256",
          "name": "_amount",
          "type": "uint256"
        }
      ],
      "name": "approve",
      "outputs": [
        {
          "internalType": "bool",
          "name": "",
          "type": "bool"
        }
      ],
      "payable": false,
      "stateMutability": "nonpayable",
      "type": "function"
    },
    {
      "constant": false,
      "inputs": [
        {
          "internalType": "uint256",
          "name": "_requestId",
          "type": "uint256"
        },
        {
          "internalType": "uint256",
          "name": "_timestamp",
          "type": "uint256"
        },
        {
          "internalType": "uint256",
          "name": "_minerIndex",
          "type": "uint256"
        }
      ],
      "name": "beginDispute",
      "outputs": [],
      "payable": false,
      "stateMutability": "nonpayable",
      "type": "function"
    },
    {
      "constant": true,
      "inputs": [],
      "name": "decimals",
      "outputs": [
        {
          "internalType": "uint8",
          "name": "",
          "type": "uint8"
        }
      ],
      "payable": false,
      "stateMutability": "pure",
      "type": "function"
    },
    {
      "constant": false,
      "inputs": [],
      "name": "depositStake",
      "outputs": [],
      "payable": false,
      "stateMutability": "nonpayable",
      "type": "function"
    },
    {
      "constant": true,
      "inputs": [],
      "name": "getNewCurrentVariables",
      "outputs": [
        {
          "internalType": "bytes32",
          "name": "_challenge",
          "type": "bytes32"
        },
        {
          "internalType": "uint256[5]",
          "name": "_requestIds",
          "type": "uint256[5]"
        },
        {
          "internalType": "uint256",
          "name": "_difficutly",
          "type": "uint256"
        },
        {
          "internalType": "uint256",
          "name": "_tip",
          "type": "uint256"
        }
      ],
      "payable": false,
      "stateMutability": "view",
      "type": "function"
    },
    {
      "constant": true,
      "inputs": [],
      "name": "getNewVariablesOnDeck",
      "outputs": [
        {
          "internalType": "uint256[5]",
          "name": "idsOnDeck",
          "type": "uint256[5]"
        },
        {
          "internalType": "uint256[5]",
          "name": "tipsOnDeck",
          "type": "uint256[5]"
        }
      ],
      "payable": false,
      "stateMutability": "view",
      "type": "function"
    },
    {
      "constant": true,
      "inputs": [],
      "name": "getTopRequestIDs",
      "outputs": [
        {
          "internalType": "uint256[5]",
          "name": "_requestIds",
          "type": "uint256[5]"
        }
      ],
      "payable": false,
      "stateMutability": "view",
      "type": "function"
    },
    {
      "constant": true,
      "inputs": [],
      "name": "name",
      "outputs": [
        {
          "internalType": "string",
          "name": "",
          "type": "string"
        }
      ],
      "payable": false,
      "stateMutability": "pure",
      "type": "function"
    },
    {
      "constant": false,
      "inputs": [
        {
          "internalType": "address",
          "name": "_propNewTellorAddress",
          "type": "address"
        }
      ],
      "name": "proposeFork",
      "outputs": [],
      "payable": false,
      "stateMutability": "nonpayable",
      "type": "function"
    },
    {
      "constant": false,
      "inputs": [],
      "name": "requestStakingWithdraw",
      "outputs": [],
      "payable": false,
      "stateMutability": "nonpayable",
      "type": "function"
    },
    {
      "constant": false,
      "inputs": [
        {
          "internalType": "string",
          "name": "_nonce",
          "type": "string"
        },
        {
          "internalType": "uint256[5]",
          "name": "_requestId",
          "type": "uint256[5]"
        },
        {
          "internalType": "uint256[5]",
          "name": "_value",
          "type": "uint256[5]"
        }
      ],
      "name": "submitMiningSolution",
      "outputs": [],
      "payable": false,
      "stateMutability": "nonpayable",
      "type": "function"
    },
    {
      "constant": true,
      "inputs": [],
      "name": "symbol",
      "outputs": [
        {
          "internalType": "string",
          "name": "",
          "type": "string"
        }
      ],
      "payable": false,
      "stateMutability": "pure",
      "type": "function"
    },
    {
      "constant": false,
      "inputs": [
        {
          "internalType": "uint256",
          "name": "_disputeId",
          "type": "uint256"
        }
      ],
      "name": "tallyVotes",
      "outputs": [],
      "payable": false,
      "stateMutability": "nonpayable",
      "type": "function"
    },
    {
      "constant": false,
      "inputs": [
        {
          "internalType": "address",
          "name": "_to",
          "type": "address"
        },
        {
          "internalType": "uint256",
          "name": "_amount",
          "type": "uint256"
        }
      ],
      "name": "transfer",
      "outputs": [
        {
          "internalType": "bool",
          "name": "",
          "type": "bool"
        }
      ],
      "payable": false,
      "stateMutability": "nonpayable",
      "type": "function"
    },
    {
      "constant": false,
      "inputs": [
        {
          "internalType": "address",
          "name": "_from",
          "type": "address"
        },
        {
          "internalType": "address",
          "name": "_to",
          "type": "address"
        },
        {
          "internalType": "uint256",
          "name": "_amount",
          "type": "uint256"
        }
      ],
      "name": "transferFrom",
      "outputs": [
        {
          "internalType": "bool",
          "name": "",
          "type": "bool"
        }
      ],
      "payable": false,
      "stateMutability": "nonpayable",
      "type": "function"
    },
    {
      "constant": false,
      "inputs": [
        {
          "internalType": "uint256",
          "name": "_disputeId",
          "type": "uint256"
        }
      ],
      "name": "unlockDisputeFee",
      "outputs": [],
      "payable": false,
      "stateMutability": "nonpayable",
      "type": "function"
    },
    {
      "constant": false,
      "inputs": [
        {
          "internalType": "uint256",
          "name": "_disputeId",
          "type": "uint256"
        }
      ],
      "name": "updateTellor",
      "outputs": [],
      "payable": false,
      "stateMutability": "nonpayable",
      "type": "function"
    },
    {
      "constant": false,
      "inputs": [
        {
          "internalType": "uint256",
          "name": "_disputeId",
          "type": "uint256"
        },
        {
          "internalType": "bool",
          "name": "_supportsDispute",
          "type": "bool"
        }
      ],
      "name": "vote",
      "outputs": [],
      "payable": false,
      "stateMutability": "nonpayable",
      "type": "function"
    },
    {
      "constant": false,
      "inputs": [],
      "name": "withdrawStake",
      "outputs": [],
      "payable": false,
      "stateMutability": "nonpayable",
      "type": "function"
    }
  ],
  "bytecode": "0x608060405234801561001057600080fd5b506114f1806100206000396000f3fe608060405234801561001057600080fd5b506004361061012c5760003560e01c8063752d49a1116100ad578063a9059cbb11610071578063a9059cbb146105d3578063bed9d86114610639578063c9d27afe14610643578063f458ab981461067d578063fe1cd15d146106ab5761012c565b8063752d49a1146104335780638581af191461046b57806395d89b41146104ad5780639a01ca13146105305780639a7077ab1461055e5761012c565b806328449c3a116100f457806328449c3a146102ee578063313ce567146102f85780634049f1981461031c5780634350283e146103775780634d318b0e146104055761012c565b806306fdde0314610131578063095ea7b3146101b45780630d2d76a21461021a57806323b872dd1461022457806326b7d9f6146102aa575b600080fd5b6101396106f1565b6040518080602001828103825283818151815260200191508051906020019080838360005b8381101561017957808201518184015260208101905061015e565b50505050905090810190601f1680156101a65780820380516001836020036101000a031916815260200191505b509250505060405180910390f35b610200600480360360408110156101ca57600080fd5b81019080803573ffffffffffffffffffffffffffffffffffffffff1690602001909291908035906020019092919050505061072e565b604051808215151515815260200191505060405180910390f35b610222610800565b005b6102906004803603606081101561023a57600080fd5b81019080803573ffffffffffffffffffffffffffffffffffffffff169060200190929190803573ffffffffffffffffffffffffffffffffffffffff1690602001909291908035906020019092919050505061086c565b604051808215151515815260200191505060405180910390f35b6102ec600480360360208110156102c057600080fd5b81019080803573ffffffffffffffffffffffffffffffffffffffff169060200190929190505050610973565b005b6102f6610a14565b005b610300610a80565b604051808260ff1660ff16815260200191505060405180910390f35b610324610a89565b6040518085815260200184600560200280838360005b8381101561035557808201518184015260208101905061033a565b5050505090500183815260200182815260200194505050505060405180910390f35b610403600480360361016081101561038e57600080fd5b81019080803590602001906401000000008111156103ab57600080fd5b8201836020820111156103bd57600080fd5b803590602001918460018302840111640100000000831117156103df57600080fd5b90919293919293908060a0019091929192908060a001909192919290505050610aae565b005b6104316004803603602081101561041b57600080fd5b8101908080359060200190929190505050610b98565b005b6104696004803603604081101561044957600080fd5b810190808035906020019092919080359060200190929190505050610c0d565b005b6104ab6004803603606081101561048157600080fd5b81019080803590602001909291908035906020019092919080359060200190929190505050610c8b565b005b6104b5610d12565b6040518080602001828103825283818151815260200191508051906020019080838360005b838110156104f55780820151818401526020810190506104da565b50505050905090810190601f1680156105225780820380516001836020036101000a031916815260200191505b509250505060405180910390f35b61055c6004803603602081101561054657600080fd5b8101908080359060200190929190505050610d4f565b005b610566610dc4565b6040518083600560200280838360005b83811015610591578082015181840152602081019050610576565b5050505090500182600560200280838360005b838110156105bf5780820151818401526020810190506105a4565b505050509050019250505060405180910390f35b61061f600480360360408110156105e957600080fd5b81019080803573ffffffffffffffffffffffffffffffffffffffff16906020019092919080359060200190929190505050610de6565b604051808215151515815260200191505060405180910390f35b610641610eb8565b005b61067b6004803603604081101561065957600080fd5b8101908080359060200190929190803515159060200190929190505050610f24565b005b6106a96004803603602081101561069357600080fd5b8101908080359060200190929190505050610fa6565b005b6106b361101b565b6040518082600560200280838360005b838110156106de5780820151818401526020810190506106c3565b5050505090500191505060405180910390f35b60606040518060400160405280600f81526020017f54656c6c6f722054726962757465730000000000000000000000000000000000815250905090565b60008073__$e6d6eab054cf6cc8ad21596dd9777aec01$__63850dcc32909185856040518463ffffffff1660e01b8152600401808481526020018373ffffffffffffffffffffffffffffffffffffffff1673ffffffffffffffffffffffffffffffffffffffff168152602001828152602001935050505060206040518083038186803b1580156107bd57600080fd5b505af41580156107d1573d6000803e3d6000fd5b505050506040513d60208110156107e757600080fd5b8101908080519060200190929190505050905092915050565b600073__$3c63e47b50370f30fae579c3aa38018afe$__63820a2d6690916040518263ffffffff1660e01b81526004018082815260200191505060006040518083038186803b15801561085257600080fd5b505af4158015610866573d6000803e3d6000fd5b50505050565b60008073__$e6d6eab054cf6cc8ad21596dd9777aec01$__63ca50189990918686866040518563ffffffff1660e01b8152600401808581526020018473ffffffffffffffffffffffffffffffffffffffff1673ffffffffffffffffffffffffffffffffffffffff1681526020018373ffffffffffffffffffffffffffffffffffffffff1673ffffffffffffffffffffffffffffffffffffffff16815260200182815260200194505050505060206040518083038186803b15801561092f57600080fd5b505af4158015610943573d6000803e3d6000fd5b505050506040513d602081101561095957600080fd5b810190808051906020019092919050505090509392505050565b600073__$6eea42fadb496cf5107a5a057a700a86ef$__63694bf49f9091836040518363ffffffff1660e01b8152600401808381526020018273ffffffffffffffffffffffffffffffffffffffff1673ffffffffffffffffffffffffffffffffffffffff1681526020019250505060006040518083038186803b1580156109f957600080fd5b505af4158015610a0d573d6000803e3d6000fd5b5050505050565b600073__$3c63e47b50370f30fae579c3aa38018afe$__63c9cf5e4c90916040518263ffffffff1660e01b81526004018082815260200191505060006040518083038186803b158015610a6657600080fd5b505af4158015610a7a573d6000803e3d6000fd5b50505050565b60006012905090565b6000610a9361149a565b600080610aa06000611032565b935093509350935090919293565b600073__$b4792b85839a28132e2f342dfaea79a7fb$__63a4bc40679091868686866040518663ffffffff1660e01b8152600401808681526020018060200184600560200280828437600081840152601f19601f82011690508083019250505083600560200280828437600081840152601f19601f8201169050808301925050508281038252868682818152602001925080828437600081840152601f19601f820116905080830192505050965050505050505060006040518083038186803b158015610b7a57600080fd5b505af4158015610b8e573d6000803e3d6000fd5b5050505050505050565b600073__$6eea42fadb496cf5107a5a057a700a86ef$__63def6fac79091836040518363ffffffff1660e01b8152600401808381526020018281526020019250505060006040518083038186803b158015610bf257600080fd5b505af4158015610c06573d6000803e3d6000fd5b5050505050565b600073__$b4792b85839a28132e2f342dfaea79a7fb$__6302e8f21b909184846040518463ffffffff1660e01b815260040180848152602001838152602001828152602001935050505060006040518083038186803b158015610c6f57600080fd5b505af4158015610c83573d6000803e3d6000fd5b505050505050565b600073__$6eea42fadb496cf5107a5a057a700a86ef$__63ca9a4ea590918585856040518563ffffffff1660e01b81526004018085815260200184815260200183815260200182815260200194505050505060006040518083038186803b158015610cf557600080fd5b505af4158015610d09573d6000803e3d6000fd5b50505050505050565b60606040518060400160405280600381526020017f5452420000000000000000000000000000000000000000000000000000000000815250905090565b600073__$6eea42fadb496cf5107a5a057a700a86ef$__6397f5f9729091836040518363ffffffff1660e01b8152600401808381526020018281526020019250505060006040518083038186803b158015610da957600080fd5b505af4158015610dbd573d6000803e3d6000fd5b5050505050565b610dcc61149a565b610dd461149a565b610dde6000611133565b915091509091565b60008073__$e6d6eab054cf6cc8ad21596dd9777aec01$__63c84b96f5909185856040518463ffffffff1660e01b8152600401808481526020018373ffffffffffffffffffffffffffffffffffffffff1673ffffffffffffffffffffffffffffffffffffffff168152602001828152602001935050505060206040518083038186803b158015610e7557600080fd5b505af4158015610e89573d6000803e3d6000fd5b505050506040513d6020811015610e9f57600080fd5b8101908080519060200190929190505050905092915050565b600073__$3c63e47b50370f30fae579c3aa38018afe$__6344bacc4b90916040518263ffffffff1660e01b81526004018082815260200191505060006040518083038186803b158015610f0a57600080fd5b505af4158015610f1e573d6000803e3d6000fd5b50505050565b600073__$6eea42fadb496cf5107a5a057a700a86ef$__632da0706e909184846040518463ffffffff1660e01b81526004018084815260200183815260200182151515158152602001935050505060006040518083038186803b158015610f8a57600080fd5b505af4158015610f9e573d6000803e3d6000fd5b505050505050565b600073__$6eea42fadb496cf5107a5a057a700a86ef$__6322048ecf9091836040518363ffffffff1660e01b8152600401808381526020018281526020019250505060006040518083038186803b15801561100057600080fd5b505af4158015611014573d6000803e3d6000fd5b5050505050565b61102361149a565b61102d60006111f4565b905090565b600061103c61149a565b60008060008090505b60058110156110875785603501816005811061105d57fe5b600202016000015484826005811061107157fe5b6020020181815250508080600101915050611045565b5084600001548386604001600060405180807f646966666963756c747900000000000000000000000000000000000000000000815250600a019050604051809103902081526020019081526020016000205487604001600060405180807f63757272656e74546f74616c54697073000000000000000000000000000000008152506010019050604051809103902081526020019081526020016000205493509350935093509193509193565b61113b61149a565b61114361149a565b61114c836111f4565b915060008090505b60058110156111ee5783604801600084836005811061116f57fe5b60200201518152602001908152602001600020600401600060405180807f746f74616c546970000000000000000000000000000000000000000000000000815250600801905060405180910390208152602001908152602001600020548282600581106111d857fe5b6020020181815250508080600101915050611154565b50915091565b6111fc61149a565b61120461149a565b61120c61149a565b6112548460010160338060200260405190810160405280929190826033801561124a576020028201915b815481526020019060010190808311611236575b5050505050611308565b809250819350505060008090505b600581101561130057600083826005811061127957fe5b6020020151146112c35784604301600083836005811061129557fe5b60200201518152602001908152602001600020548482600581106112b557fe5b6020020181815250506112f3565b8460350181600403600581106112d557fe5b60020201600001548482600581106112e957fe5b6020020181815250505b8080600101915050611262565b505050919050565b61131061149a565b61131861149a565b60008360016033811061132757fe5b60200201519050600080905060008090505b60058110156113c05785600182016033811061135157fe5b602002015185826005811061136257fe5b6020020181815250506001810184826005811061137b57fe5b6020020181815250508285826005811061139157fe5b602002015110156113b3578481600581106113a857fe5b602002015192508091505b8080600101915050611339565b506000600690505b603381101561149257828682603381106113de57fe5b60200201511115611485578581603381106113f557fe5b602002015185836005811061140657fe5b6020020181815250508084836005811061141c57fe5b60200201818152505085816033811061143157fe5b6020020151925060008090505b6005811015611483578386826005811061145457fe5b602002015110156114765785816005811061146b57fe5b602002015193508092505b808060010191505061143e565b505b80806001019150506113c8565b505050915091565b6040518060a0016040528060059060208202803883398082019150509050509056fea265627a7a72315820d051b7ac4bb4ba93bca4b1ef5137873ecad2274f1fab65142a0fe7c2558755ef64736f6c63430005100032",
  "linkReferences": {
    "contracts/libraries/TellorDispute.sol": {
      "TellorDispute": [
        {
          "length": 20,
          "start": 2455
        },
        {
          "length": 20,
          "start": 3004
        },
        {
          "length": 20,
          "start": 3247
        },
        {
          "length": 20,
          "start": 3443
        },
        {
          "length": 20,
          "start": 3912
        },
        {
          "length": 20,
          "start": 4042
        }
      ]
    },
    "contracts/libraries/TellorLibrary.sol": {
      "TellorLibrary": [
        {
          "length": 20,
          "start": 2770
        },
        {
          "length": 20,
          "start": 3121
        }
      ]
    },
    "contracts/libraries/TellorStake.sol": {
      "TellorStake": [
        {
          "length": 20,
          "start": 2084
        },
        {
          "length": 20,
          "start": 2616
        },
        {
          "length": 20,
          "start": 3804
        }
      ]
    },
    "contracts/libraries/TellorTransfer.sol": {
      "TellorTransfer": [
        {
          "length": 20,
          "start": 1875
        },
        {
          "length": 20,
          "start": 2193
        },
        {
          "length": 20,
          "start": 3595
        }
      ]
    }
  },
  "deployedLinkReferences": {
    "contracts/libraries/TellorDispute.sol": {
      "TellorDispute": [
        {
          "length": 20,
          "start": 2423
        },
        {
          "length": 20,
          "start": 2972
        },
        {
          "length": 20,
          "start": 3215
        },
        {
          "length": 20,
          "start": 3411
        },
        {
          "length": 20,
          "start": 3880
        },
        {
          "length": 20,
          "start": 4010
        }
      ]
    },
    "contracts/libraries/TellorLibrary.sol": {
      "TellorLibrary": [
        {
          "length": 20,
          "start": 2738
        },
        {
          "length": 20,
          "start": 3089
        }
      ]
    },
    "contracts/libraries/TellorStake.sol": {
      "TellorStake": [
        {
          "length": 20,
          "start": 2052
        },
        {
          "length": 20,
          "start": 2584
        },
        {
          "length": 20,
          "start": 3772
        }
      ]
    },
    "contracts/libraries/TellorTransfer.sol": {
      "TellorTransfer": [
        {
          "length": 20,
          "start": 1843
        },
        {
          "length": 20,
          "start": 2161
        },
        {
          "length": 20,
          "start": 3563
        }
      ]
    }
  }
}