{
  "_format": "hh-sol-artifact-1",
  "contractName": "Tellor",
  "sourceName": "contracts/Tellor.sol",
  "abi": [
    {
      "constant": false,
      "inputs": [
        {
          "internalType": "uint256",
          "name": "_requestId",
          "type": "uint256"
        },
        {
          "internalType": "uint256",
          "name": "_tip",
          "type": "uint256"
        }
      ],
      "name": "addTip",
      "outputs": [],
      "payable": false,
      "stateMutability": "nonpayable",
      "type": "function"
    },
    {
      "constant": false,
      "inputs": [
        {
          "internalType": "address",
          "name": "_spender",
          "type": "address"
        },
        {
          "internalType": "uint256",
          "name": "_amount",
          "type": "uint256"
        }
      ],
      "name": "approve",
      "outputs": [
        {
          "internalType": "bool",
          "name": "",
          "type": "bool"
        }
      ],
      "payable": false,
      "stateMutability": "nonpayable",
      "type": "function"
    },
    {
      "constant": false,
      "inputs": [
        {
          "internalType": "uint256",
          "name": "_requestId",
          "type": "uint256"
        },
        {
          "internalType": "uint256",
          "name": "_timestamp",
          "type": "uint256"
        },
        {
          "internalType": "uint256",
          "name": "_minerIndex",
          "type": "uint256"
        }
      ],
      "name": "beginDispute",
      "outputs": [],
      "payable": false,
      "stateMutability": "nonpayable",
      "type": "function"
    },
    {
      "constant": false,
      "inputs": [],
      "name": "claimOwnership",
      "outputs": [],
      "payable": false,
      "stateMutability": "nonpayable",
      "type": "function"
    },
    {
      "constant": true,
      "inputs": [],
      "name": "decimals",
      "outputs": [
        {
          "internalType": "uint8",
          "name": "",
          "type": "uint8"
        }
      ],
      "payable": false,
      "stateMutability": "pure",
      "type": "function"
    },
    {
      "constant": false,
      "inputs": [],
      "name": "depositStake",
      "outputs": [],
      "payable": false,
      "stateMutability": "nonpayable",
      "type": "function"
    },
    {
      "constant": true,
      "inputs": [],
      "name": "getNewCurrentVariables",
      "outputs": [
        {
          "internalType": "bytes32",
          "name": "_challenge",
          "type": "bytes32"
        },
        {
          "internalType": "uint256[5]",
          "name": "_requestIds",
          "type": "uint256[5]"
        },
        {
          "internalType": "uint256",
          "name": "_difficutly",
          "type": "uint256"
        },
        {
          "internalType": "uint256",
          "name": "_tip",
          "type": "uint256"
        }
      ],
      "payable": false,
      "stateMutability": "view",
      "type": "function"
    },
    {
      "constant": true,
      "inputs": [],
      "name": "getNewVariablesOnDeck",
      "outputs": [
        {
          "internalType": "uint256[5]",
          "name": "idsOnDeck",
          "type": "uint256[5]"
        },
        {
          "internalType": "uint256[5]",
          "name": "tipsOnDeck",
          "type": "uint256[5]"
        }
      ],
      "payable": false,
      "stateMutability": "view",
      "type": "function"
    },
    {
      "constant": true,
      "inputs": [],
      "name": "getTopRequestIDs",
      "outputs": [
        {
          "internalType": "uint256[5]",
          "name": "_requestIds",
          "type": "uint256[5]"
        }
      ],
      "payable": false,
      "stateMutability": "view",
      "type": "function"
    },
    {
      "constant": true,
      "inputs": [],
      "name": "name",
      "outputs": [
        {
          "internalType": "string",
          "name": "",
          "type": "string"
        }
      ],
      "payable": false,
      "stateMutability": "pure",
      "type": "function"
    },
    {
      "constant": false,
      "inputs": [
        {
          "internalType": "address",
          "name": "_propNewTellorAddress",
          "type": "address"
        }
      ],
      "name": "proposeFork",
      "outputs": [],
      "payable": false,
      "stateMutability": "nonpayable",
      "type": "function"
    },
    {
      "constant": false,
      "inputs": [
        {
          "internalType": "address payable",
          "name": "_pendingOwner",
          "type": "address"
        }
      ],
      "name": "proposeOwnership",
      "outputs": [],
      "payable": false,
      "stateMutability": "nonpayable",
      "type": "function"
    },
    {
      "constant": false,
      "inputs": [],
      "name": "requestStakingWithdraw",
      "outputs": [],
      "payable": false,
      "stateMutability": "nonpayable",
      "type": "function"
    },
    {
      "constant": false,
      "inputs": [
        {
          "internalType": "string",
          "name": "_nonce",
          "type": "string"
        },
        {
          "internalType": "uint256[5]",
          "name": "_requestId",
          "type": "uint256[5]"
        },
        {
          "internalType": "uint256[5]",
          "name": "_value",
          "type": "uint256[5]"
        }
      ],
      "name": "submitMiningSolution",
      "outputs": [],
      "payable": false,
      "stateMutability": "nonpayable",
      "type": "function"
    },
    {
      "constant": true,
      "inputs": [],
      "name": "symbol",
      "outputs": [
        {
          "internalType": "string",
          "name": "",
          "type": "string"
        }
      ],
      "payable": false,
      "stateMutability": "pure",
      "type": "function"
    },
    {
      "constant": false,
      "inputs": [
        {
          "internalType": "uint256",
          "name": "_disputeId",
          "type": "uint256"
        }
      ],
      "name": "tallyVotes",
      "outputs": [],
      "payable": false,
      "stateMutability": "nonpayable",
      "type": "function"
    },
    {
      "constant": false,
      "inputs": [
        {
          "internalType": "address",
          "name": "_to",
          "type": "address"
        },
        {
          "internalType": "uint256",
          "name": "_amount",
          "type": "uint256"
        }
      ],
      "name": "transfer",
      "outputs": [
        {
          "internalType": "bool",
          "name": "",
          "type": "bool"
        }
      ],
      "payable": false,
      "stateMutability": "nonpayable",
      "type": "function"
    },
    {
      "constant": false,
      "inputs": [
        {
          "internalType": "address",
          "name": "_from",
          "type": "address"
        },
        {
          "internalType": "address",
          "name": "_to",
          "type": "address"
        },
        {
          "internalType": "uint256",
          "name": "_amount",
          "type": "uint256"
        }
      ],
      "name": "transferFrom",
      "outputs": [
        {
          "internalType": "bool",
          "name": "",
          "type": "bool"
        }
      ],
      "payable": false,
      "stateMutability": "nonpayable",
      "type": "function"
    },
    {
      "constant": false,
      "inputs": [
        {
          "internalType": "uint256",
          "name": "_disputeId",
          "type": "uint256"
        }
      ],
      "name": "unlockDisputeFee",
      "outputs": [],
      "payable": false,
      "stateMutability": "nonpayable",
      "type": "function"
    },
    {
      "constant": false,
      "inputs": [
        {
          "internalType": "uint256",
          "name": "_disputeId",
          "type": "uint256"
        }
      ],
      "name": "updateTellor",
      "outputs": [],
      "payable": false,
      "stateMutability": "nonpayable",
      "type": "function"
    },
    {
      "constant": false,
      "inputs": [
        {
          "internalType": "uint256",
          "name": "_disputeId",
          "type": "uint256"
        },
        {
          "internalType": "bool",
          "name": "_supportsDispute",
          "type": "bool"
        }
      ],
      "name": "vote",
      "outputs": [],
      "payable": false,
      "stateMutability": "nonpayable",
      "type": "function"
    },
    {
      "constant": false,
      "inputs": [],
      "name": "withdrawStake",
      "outputs": [],
      "payable": false,
      "stateMutability": "nonpayable",
      "type": "function"
    }
  ],
  "bytecode": "0x608060405234801561001057600080fd5b50611662806100206000396000f3fe608060405234801561001057600080fd5b50600436106101425760003560e01c8063710bf322116100b85780639a7077ab1161007c5780639a7077ab146105c2578063a9059cbb14610637578063bed9d8611461069d578063c9d27afe146106a7578063f458ab98146106e1578063fe1cd15d1461070f57610142565b8063710bf32214610453578063752d49a1146104975780638581af19146104cf57806395d89b41146105115780639a01ca131461059457610142565b806328449c3a1161010a57806328449c3a14610304578063313ce5671461030e5780634049f198146103325780634350283e1461038d5780634d318b0e1461041b5780634e71e0c81461044957610142565b806306fdde0314610147578063095ea7b3146101ca5780630d2d76a21461023057806323b872dd1461023a57806326b7d9f6146102c0575b600080fd5b61014f610755565b6040518080602001828103825283818151815260200191508051906020019080838360005b8381101561018f578082015181840152602081019050610174565b50505050905090810190601f1680156101bc5780820380516001836020036101000a031916815260200191505b509250505060405180910390f35b610216600480360360408110156101e057600080fd5b81019080803573ffffffffffffffffffffffffffffffffffffffff16906020019092919080359060200190929190505050610792565b604051808215151515815260200191505060405180910390f35b610238610864565b005b6102a66004803603606081101561025057600080fd5b81019080803573ffffffffffffffffffffffffffffffffffffffff169060200190929190803573ffffffffffffffffffffffffffffffffffffffff169060200190929190803590602001909291905050506108d0565b604051808215151515815260200191505060405180910390f35b610302600480360360208110156102d657600080fd5b81019080803573ffffffffffffffffffffffffffffffffffffffff1690602001909291905050506109d7565b005b61030c610a78565b005b610316610ae4565b604051808260ff1660ff16815260200191505060405180910390f35b61033a610aed565b6040518085815260200184600560200280838360005b8381101561036b578082015181840152602081019050610350565b5050505090500183815260200182815260200194505050505060405180910390f35b61041960048036036101608110156103a457600080fd5b81019080803590602001906401000000008111156103c157600080fd5b8201836020820111156103d357600080fd5b803590602001918460018302840111640100000000831117156103f557600080fd5b90919293919293908060a0019091929192908060a001909192919290505050610b12565b005b6104476004803603602081101561043157600080fd5b8101908080359060200190929190505050610bfc565b005b610451610c71565b005b6104956004803603602081101561046957600080fd5b81019080803573ffffffffffffffffffffffffffffffffffffffff169060200190929190505050610cdd565b005b6104cd600480360360408110156104ad57600080fd5b810190808035906020019092919080359060200190929190505050610d7e565b005b61050f600480360360608110156104e557600080fd5b81019080803590602001909291908035906020019092919080359060200190929190505050610dfc565b005b610519610e83565b6040518080602001828103825283818151815260200191508051906020019080838360005b8381101561055957808201518184015260208101905061053e565b50505050905090810190601f1680156105865780820380516001836020036101000a031916815260200191505b509250505060405180910390f35b6105c0600480360360208110156105aa57600080fd5b8101908080359060200190929190505050610ec0565b005b6105ca610f35565b6040518083600560200280838360005b838110156105f55780820151818401526020810190506105da565b5050505090500182600560200280838360005b83811015610623578082015181840152602081019050610608565b505050509050019250505060405180910390f35b6106836004803603604081101561064d57600080fd5b81019080803573ffffffffffffffffffffffffffffffffffffffff16906020019092919080359060200190929190505050610f57565b604051808215151515815260200191505060405180910390f35b6106a5611029565b005b6106df600480360360408110156106bd57600080fd5b8101908080359060200190929190803515159060200190929190505050611095565b005b61070d600480360360208110156106f757600080fd5b8101908080359060200190929190505050611117565b005b61071761118c565b6040518082600560200280838360005b83811015610742578082015181840152602081019050610727565b5050505090500191505060405180910390f35b60606040518060400160405280600f81526020017f54656c6c6f722054726962757465730000000000000000000000000000000000815250905090565b60008073__$e6d6eab054cf6cc8ad21596dd9777aec01$__63850dcc32909185856040518463ffffffff1660e01b8152600401808481526020018373ffffffffffffffffffffffffffffffffffffffff1673ffffffffffffffffffffffffffffffffffffffff168152602001828152602001935050505060206040518083038186803b15801561082157600080fd5b505af4158015610835573d6000803e3d6000fd5b505050506040513d602081101561084b57600080fd5b8101908080519060200190929190505050905092915050565b600073__$3c63e47b50370f30fae579c3aa38018afe$__63820a2d6690916040518263ffffffff1660e01b81526004018082815260200191505060006040518083038186803b1580156108b657600080fd5b505af41580156108ca573d6000803e3d6000fd5b50505050565b60008073__$e6d6eab054cf6cc8ad21596dd9777aec01$__63ca50189990918686866040518563ffffffff1660e01b8152600401808581526020018473ffffffffffffffffffffffffffffffffffffffff1673ffffffffffffffffffffffffffffffffffffffff1681526020018373ffffffffffffffffffffffffffffffffffffffff1673ffffffffffffffffffffffffffffffffffffffff16815260200182815260200194505050505060206040518083038186803b15801561099357600080fd5b505af41580156109a7573d6000803e3d6000fd5b505050506040513d60208110156109bd57600080fd5b810190808051906020019092919050505090509392505050565b600073__$6eea42fadb496cf5107a5a057a700a86ef$__63694bf49f9091836040518363ffffffff1660e01b8152600401808381526020018273ffffffffffffffffffffffffffffffffffffffff1673ffffffffffffffffffffffffffffffffffffffff1681526020019250505060006040518083038186803b158015610a5d57600080fd5b505af4158015610a71573d6000803e3d6000fd5b5050505050565b600073__$3c63e47b50370f30fae579c3aa38018afe$__63c9cf5e4c90916040518263ffffffff1660e01b81526004018082815260200191505060006040518083038186803b158015610aca57600080fd5b505af4158015610ade573d6000803e3d6000fd5b50505050565b60006012905090565b6000610af761160b565b600080610b0460006111a3565b935093509350935090919293565b600073__$b4792b85839a28132e2f342dfaea79a7fb$__63a4bc40679091868686866040518663ffffffff1660e01b8152600401808681526020018060200184600560200280828437600081840152601f19601f82011690508083019250505083600560200280828437600081840152601f19601f8201169050808301925050508281038252868682818152602001925080828437600081840152601f19601f820116905080830192505050965050505050505060006040518083038186803b158015610bde57600080fd5b505af4158015610bf2573d6000803e3d6000fd5b5050505050505050565b600073__$6eea42fadb496cf5107a5a057a700a86ef$__63def6fac79091836040518363ffffffff1660e01b8152600401808381526020018281526020019250505060006040518083038186803b158015610c5657600080fd5b505af4158015610c6a573d6000803e3d6000fd5b5050505050565b600073__$b4792b85839a28132e2f342dfaea79a7fb$__63314691ff90916040518263ffffffff1660e01b81526004018082815260200191505060006040518083038186803b158015610cc357600080fd5b505af4158015610cd7573d6000803e3d6000fd5b50505050565b600073__$b4792b85839a28132e2f342dfaea79a7fb$__63291f8b739091836040518363ffffffff1660e01b8152600401808381526020018273ffffffffffffffffffffffffffffffffffffffff1673ffffffffffffffffffffffffffffffffffffffff1681526020019250505060006040518083038186803b158015610d6357600080fd5b505af4158015610d77573d6000803e3d6000fd5b5050505050565b600073__$b4792b85839a28132e2f342dfaea79a7fb$__6302e8f21b909184846040518463ffffffff1660e01b815260040180848152602001838152602001828152602001935050505060006040518083038186803b158015610de057600080fd5b505af4158015610df4573d6000803e3d6000fd5b505050505050565b600073__$6eea42fadb496cf5107a5a057a700a86ef$__63ca9a4ea590918585856040518563ffffffff1660e01b81526004018085815260200184815260200183815260200182815260200194505050505060006040518083038186803b158015610e6657600080fd5b505af4158015610e7a573d6000803e3d6000fd5b50505050505050565b60606040518060400160405280600381526020017f5452420000000000000000000000000000000000000000000000000000000000815250905090565b600073__$6eea42fadb496cf5107a5a057a700a86ef$__6397f5f9729091836040518363ffffffff1660e01b8152600401808381526020018281526020019250505060006040518083038186803b158015610f1a57600080fd5b505af4158015610f2e573d6000803e3d6000fd5b5050505050565b610f3d61160b565b610f4561160b565b610f4f60006112a4565b915091509091565b60008073__$e6d6eab054cf6cc8ad21596dd9777aec01$__63c84b96f5909185856040518463ffffffff1660e01b8152600401808481526020018373ffffffffffffffffffffffffffffffffffffffff1673ffffffffffffffffffffffffffffffffffffffff168152602001828152602001935050505060206040518083038186803b158015610fe657600080fd5b505af4158015610ffa573d6000803e3d6000fd5b505050506040513d602081101561101057600080fd5b8101908080519060200190929190505050905092915050565b600073__$3c63e47b50370f30fae579c3aa38018afe$__6344bacc4b90916040518263ffffffff1660e01b81526004018082815260200191505060006040518083038186803b15801561107b57600080fd5b505af415801561108f573d6000803e3d6000fd5b50505050565b600073__$6eea42fadb496cf5107a5a057a700a86ef$__632da0706e909184846040518463ffffffff1660e01b81526004018084815260200183815260200182151515158152602001935050505060006040518083038186803b1580156110fb57600080fd5b505af415801561110f573d6000803e3d6000fd5b505050505050565b600073__$6eea42fadb496cf5107a5a057a700a86ef$__6322048ecf9091836040518363ffffffff1660e01b8152600401808381526020018281526020019250505060006040518083038186803b15801561117157600080fd5b505af4158015611185573d6000803e3d6000fd5b5050505050565b61119461160b565b61119e6000611365565b905090565b60006111ad61160b565b60008060008090505b60058110156111f8578560350181600581106111ce57fe5b60020201600001548482600581106111e257fe5b60200201818152505080806001019150506111b6565b5084600001548386604001600060405180807f646966666963756c747900000000000000000000000000000000000000000000815250600a019050604051809103902081526020019081526020016000205487604001600060405180807f63757272656e74546f74616c54697073000000000000000000000000000000008152506010019050604051809103902081526020019081526020016000205493509350935093509193509193565b6112ac61160b565b6112b461160b565b6112bd83611365565b915060008090505b600581101561135f578360480160008483600581106112e057fe5b60200201518152602001908152602001600020600401600060405180807f746f74616c5469700000000000000000000000000000000000000000000000008152506008019050604051809103902081526020019081526020016000205482826005811061134957fe5b60200201818152505080806001019150506112c5565b50915091565b61136d61160b565b61137561160b565b61137d61160b565b6113c5846001016033806020026040519081016040528092919082603380156113bb576020028201915b8154815260200190600101908083116113a7575b5050505050611479565b809250819350505060008090505b60058110156114715760008382600581106113ea57fe5b6020020151146114345784604301600083836005811061140657fe5b602002015181526020019081526020016000205484826005811061142657fe5b602002018181525050611464565b84603501816004036005811061144657fe5b600202016000015484826005811061145a57fe5b6020020181815250505b80806001019150506113d3565b505050919050565b61148161160b565b61148961160b565b60008360016033811061149857fe5b60200201519050600080905060008090505b6005811015611531578560018201603381106114c257fe5b60200201518582600581106114d357fe5b602002018181525050600181018482600581106114ec57fe5b6020020181815250508285826005811061150257fe5b602002015110156115245784816005811061151957fe5b602002015192508091505b80806001019150506114aa565b506000600690505b6033811015611603578286826033811061154f57fe5b602002015111156115f65785816033811061156657fe5b602002015185836005811061157757fe5b6020020181815250508084836005811061158d57fe5b6020020181815250508581603381106115a257fe5b6020020151925060008090505b60058110156115f457838682600581106115c557fe5b602002015110156115e7578581600581106115dc57fe5b602002015193508092505b80806001019150506115af565b505b8080600101915050611539565b505050915091565b6040518060a0016040528060059060208202803883398082019150509050509056fea265627a7a72315820ab1403614bf09172111becf568ae5764287b1de2befcbd437c2f9dfdba5a93de64736f6c63430005100032",
  "linkReferences": {
    "contracts/libraries/TellorDispute.sol": {
      "TellorDispute": [
        {
          "length": 20,
          "start": 2555
        },
        {
          "length": 20,
          "start": 3104
        },
        {
          "length": 20,
          "start": 3616
        },
        {
          "length": 20,
          "start": 3812
        },
        {
          "length": 20,
          "start": 4281
        },
        {
          "length": 20,
          "start": 4411
        }
      ]
    },
    "contracts/libraries/TellorLibrary.sol": {
      "TellorLibrary": [
        {
          "length": 20,
          "start": 2870
        },
        {
          "length": 20,
          "start": 3221
        },
        {
          "length": 20,
          "start": 3329
        },
        {
          "length": 20,
          "start": 3490
        }
      ]
    },
    "contracts/libraries/TellorStake.sol": {
      "TellorStake": [
        {
          "length": 20,
          "start": 2184
        },
        {
          "length": 20,
          "start": 2716
        },
        {
          "length": 20,
          "start": 4173
        }
      ]
    },
    "contracts/libraries/TellorTransfer.sol": {
      "TellorTransfer": [
        {
          "length": 20,
          "start": 1975
        },
        {
          "length": 20,
          "start": 2293
        },
        {
          "length": 20,
          "start": 3964
        }
      ]
    }
  },
  "deployedLinkReferences": {
    "contracts/libraries/TellorDispute.sol": {
      "TellorDispute": [
        {
          "length": 20,
          "start": 2523
        },
        {
          "length": 20,
          "start": 3072
        },
        {
          "length": 20,
          "start": 3584
        },
        {
          "length": 20,
          "start": 3780
        },
        {
          "length": 20,
          "start": 4249
        },
        {
          "length": 20,
          "start": 4379
        }
      ]
    },
    "contracts/libraries/TellorLibrary.sol": {
      "TellorLibrary": [
        {
          "length": 20,
          "start": 2838
        },
        {
          "length": 20,
          "start": 3189
        },
        {
          "length": 20,
          "start": 3297
        },
        {
          "length": 20,
          "start": 3458
        }
      ]
    },
    "contracts/libraries/TellorStake.sol": {
      "TellorStake": [
        {
          "length": 20,
          "start": 2152
        },
        {
          "length": 20,
          "start": 2684
        },
        {
          "length": 20,
          "start": 4141
        }
      ]
    },
    "contracts/libraries/TellorTransfer.sol": {
      "TellorTransfer": [
        {
          "length": 20,
          "start": 1943
        },
        {
          "length": 20,
          "start": 2261
        },
        {
          "length": 20,
          "start": 3932
        }
      ]
    }
  }
}