{
  "_format": "hh-sol-artifact-1",
  "contractName": "OldTellor2",
  "sourceName": "tellorlegacy/contracts/oldContracts2/Old2Tellor.sol",
  "abi": [
    {
      "constant": false,
      "inputs": [
        {
          "internalType": "uint256",
          "name": "_requestId",
          "type": "uint256"
        },
        {
          "internalType": "uint256",
          "name": "_tip",
          "type": "uint256"
        }
      ],
      "name": "addTip",
      "outputs": [],
      "payable": false,
      "stateMutability": "nonpayable",
      "type": "function"
    },
    {
      "constant": false,
      "inputs": [
        {
          "internalType": "address",
          "name": "_spender",
          "type": "address"
        },
        {
          "internalType": "uint256",
          "name": "_amount",
          "type": "uint256"
        }
      ],
      "name": "approve",
      "outputs": [
        {
          "internalType": "bool",
          "name": "",
          "type": "bool"
        }
      ],
      "payable": false,
      "stateMutability": "nonpayable",
      "type": "function"
    },
    {
      "constant": false,
      "inputs": [
        {
          "internalType": "uint256",
          "name": "_requestId",
          "type": "uint256"
        },
        {
          "internalType": "uint256",
          "name": "_timestamp",
          "type": "uint256"
        },
        {
          "internalType": "uint256",
          "name": "_minerIndex",
          "type": "uint256"
        }
      ],
      "name": "beginDispute",
      "outputs": [],
      "payable": false,
      "stateMutability": "nonpayable",
      "type": "function"
    },
    {
      "constant": false,
      "inputs": [],
      "name": "claimOwnership",
      "outputs": [],
      "payable": false,
      "stateMutability": "nonpayable",
      "type": "function"
    },
    {
      "constant": true,
      "inputs": [],
      "name": "decimals",
      "outputs": [
        {
          "internalType": "uint8",
          "name": "",
          "type": "uint8"
        }
      ],
      "payable": false,
      "stateMutability": "pure",
      "type": "function"
    },
    {
      "constant": false,
      "inputs": [],
      "name": "depositStake",
      "outputs": [],
      "payable": false,
      "stateMutability": "nonpayable",
      "type": "function"
    },
    {
      "constant": true,
      "inputs": [],
      "name": "name",
      "outputs": [
        {
          "internalType": "string",
          "name": "",
          "type": "string"
        }
      ],
      "payable": false,
      "stateMutability": "pure",
      "type": "function"
    },
    {
      "constant": false,
      "inputs": [
        {
          "internalType": "address",
          "name": "_propNewTellorAddress",
          "type": "address"
        }
      ],
      "name": "proposeFork",
      "outputs": [],
      "payable": false,
      "stateMutability": "nonpayable",
      "type": "function"
    },
    {
      "constant": false,
      "inputs": [
        {
          "internalType": "address payable",
          "name": "_pendingOwner",
          "type": "address"
        }
      ],
      "name": "proposeOwnership",
      "outputs": [],
      "payable": false,
      "stateMutability": "nonpayable",
      "type": "function"
    },
    {
      "constant": false,
      "inputs": [
        {
          "internalType": "string",
          "name": "_c_sapi",
          "type": "string"
        },
        {
          "internalType": "string",
          "name": "_c_symbol",
          "type": "string"
        },
        {
          "internalType": "uint256",
          "name": "_granularity",
          "type": "uint256"
        },
        {
          "internalType": "uint256",
          "name": "_tip",
          "type": "uint256"
        }
      ],
      "name": "requestData",
      "outputs": [],
      "payable": false,
      "stateMutability": "nonpayable",
      "type": "function"
    },
    {
      "constant": false,
      "inputs": [],
      "name": "requestStakingWithdraw",
      "outputs": [],
      "payable": false,
      "stateMutability": "nonpayable",
      "type": "function"
    },
    {
      "constant": false,
      "inputs": [
        {
          "internalType": "string",
          "name": "_nonce",
          "type": "string"
        },
        {
          "internalType": "uint256",
          "name": "_requestId",
          "type": "uint256"
        },
        {
          "internalType": "uint256",
          "name": "_value",
          "type": "uint256"
        }
      ],
      "name": "submitMiningSolution",
      "outputs": [],
      "payable": false,
      "stateMutability": "nonpayable",
      "type": "function"
    },
    {
      "constant": true,
      "inputs": [],
      "name": "symbol",
      "outputs": [
        {
          "internalType": "string",
          "name": "",
          "type": "string"
        }
      ],
      "payable": false,
      "stateMutability": "pure",
      "type": "function"
    },
    {
      "constant": false,
      "inputs": [
        {
          "internalType": "uint256",
          "name": "_disputeId",
          "type": "uint256"
        }
      ],
      "name": "tallyVotes",
      "outputs": [],
      "payable": false,
      "stateMutability": "nonpayable",
      "type": "function"
    },
    {
      "constant": false,
      "inputs": [
        {
          "internalType": "string",
          "name": "_nonce",
          "type": "string"
        },
        {
          "internalType": "uint256",
          "name": "_requestId",
          "type": "uint256"
        },
        {
          "internalType": "uint256",
          "name": "_value",
          "type": "uint256"
        }
      ],
      "name": "testSubmitMiningSolution",
      "outputs": [],
      "payable": false,
      "stateMutability": "nonpayable",
      "type": "function"
    },
    {
      "constant": false,
      "inputs": [
        {
          "internalType": "address",
          "name": "_address",
          "type": "address"
        },
        {
          "internalType": "uint256",
          "name": "_amount",
          "type": "uint256"
        }
      ],
      "name": "theLazyCoon",
      "outputs": [],
      "payable": false,
      "stateMutability": "nonpayable",
      "type": "function"
    },
    {
      "constant": false,
      "inputs": [
        {
          "internalType": "address",
          "name": "_to",
          "type": "address"
        },
        {
          "internalType": "uint256",
          "name": "_amount",
          "type": "uint256"
        }
      ],
      "name": "transfer",
      "outputs": [
        {
          "internalType": "bool",
          "name": "",
          "type": "bool"
        }
      ],
      "payable": false,
      "stateMutability": "nonpayable",
      "type": "function"
    },
    {
      "constant": false,
      "inputs": [
        {
          "internalType": "address",
          "name": "_from",
          "type": "address"
        },
        {
          "internalType": "address",
          "name": "_to",
          "type": "address"
        },
        {
          "internalType": "uint256",
          "name": "_amount",
          "type": "uint256"
        }
      ],
      "name": "transferFrom",
      "outputs": [
        {
          "internalType": "bool",
          "name": "",
          "type": "bool"
        }
      ],
      "payable": false,
      "stateMutability": "nonpayable",
      "type": "function"
    },
    {
      "constant": false,
      "inputs": [
        {
          "internalType": "uint256",
          "name": "_disputeId",
          "type": "uint256"
        },
        {
          "internalType": "bool",
          "name": "_supportsDispute",
          "type": "bool"
        }
      ],
      "name": "vote",
      "outputs": [],
      "payable": false,
      "stateMutability": "nonpayable",
      "type": "function"
    },
    {
      "constant": false,
      "inputs": [],
      "name": "withdrawStake",
      "outputs": [],
      "payable": false,
      "stateMutability": "nonpayable",
      "type": "function"
    }
  ],
  "bytecode": "0x608060405234801561001057600080fd5b50611777806100206000396000f3fe608060405234801561001057600080fd5b506004361061012c5760003560e01c806368c180d5116100ad578063a9059cbb11610071578063a9059cbb14610604578063b079f64a1461066a578063bed9d861146106b8578063c0a8b650146106c2578063c9d27afe1461074f5761012c565b806368c180d514610436578063710bf322146104c3578063752d49a1146105075780638581af191461053f57806395d89b41146105815761012c565b806328449c3a116100f457806328449c3a146102ee578063313ce567146102f85780633fff28161461031c5780634d318b0e146103fe5780634e71e0c81461042c5761012c565b806306fdde0314610131578063095ea7b3146101b45780630d2d76a21461021a57806323b872dd1461022457806326b7d9f6146102aa575b600080fd5b610139610789565b6040518080602001828103825283818151815260200191508051906020019080838360005b8381101561017957808201518184015260208101905061015e565b50505050905090810190601f1680156101a65780820380516001836020036101000a031916815260200191505b509250505060405180910390f35b610200600480360360408110156101ca57600080fd5b81019080803573ffffffffffffffffffffffffffffffffffffffff169060200190929190803590602001909291905050506107c6565b604051808215151515815260200191505060405180910390f35b610222610898565b005b6102906004803603606081101561023a57600080fd5b81019080803573ffffffffffffffffffffffffffffffffffffffff169060200190929190803573ffffffffffffffffffffffffffffffffffffffff16906020019092919080359060200190929190505050610904565b604051808215151515815260200191505060405180910390f35b6102ec600480360360208110156102c057600080fd5b81019080803573ffffffffffffffffffffffffffffffffffffffff169060200190929190505050610a0b565b005b6102f6610aac565b005b610300610b18565b604051808260ff1660ff16815260200191505060405180910390f35b6103fc6004803603608081101561033257600080fd5b810190808035906020019064010000000081111561034f57600080fd5b82018360208201111561036157600080fd5b8035906020019184600183028401116401000000008311171561038357600080fd5b9091929391929390803590602001906401000000008111156103a457600080fd5b8201836020820111156103b657600080fd5b803590602001918460018302840111640100000000831117156103d857600080fd5b90919293919293908035906020019092919080359060200190929190505050610b21565b005b61042a6004803603602081101561041457600080fd5b8101908080359060200190929190505050610c0b565b005b610434610c80565b005b6104c16004803603606081101561044c57600080fd5b810190808035906020019064010000000081111561046957600080fd5b82018360208201111561047b57600080fd5b8035906020019184600183028401116401000000008311171561049d57600080fd5b90919293919293908035906020019092919080359060200190929190505050610c8c565b005b610505600480360360208110156104d957600080fd5b81019080803573ffffffffffffffffffffffffffffffffffffffff169060200190929190505050610d40565b005b61053d6004803603604081101561051d57600080fd5b810190808035906020019092919080359060200190929190505050610d57565b005b61057f6004803603606081101561055557600080fd5b81019080803590602001909291908035906020019092919080359060200190929190505050610dd5565b005b610589610e5c565b6040518080602001828103825283818151815260200191508051906020019080838360005b838110156105c95780820151818401526020810190506105ae565b50505050905090810190601f1680156105f65780820380516001836020036101000a031916815260200191505b509250505060405180910390f35b6106506004803603604081101561061a57600080fd5b81019080803573ffffffffffffffffffffffffffffffffffffffff16906020019092919080359060200190929190505050610e99565b604051808215151515815260200191505060405180910390f35b6106b66004803603604081101561068057600080fd5b81019080803573ffffffffffffffffffffffffffffffffffffffff16906020019092919080359060200190929190505050610f6b565b005b6106c0611015565b005b61074d600480360360608110156106d857600080fd5b81019080803590602001906401000000008111156106f557600080fd5b82018360208201111561070757600080fd5b8035906020019184600183028401116401000000008311171561072957600080fd5b90919293919293908035906020019092919080359060200190929190505050611081565b005b6107876004803603604081101561076557600080fd5b8101908080359060200190929190803515159060200190929190505050611135565b005b60606040518060400160405280600f81526020017f54656c6c6f722054726962757465730000000000000000000000000000000000815250905090565b60008073__$d2f573bde5cf92a06ed0d8fdf16e4d7fa3$__637a1f149e909185856040518463ffffffff1660e01b8152600401808481526020018373ffffffffffffffffffffffffffffffffffffffff1673ffffffffffffffffffffffffffffffffffffffff168152602001828152602001935050505060206040518083038186803b15801561085557600080fd5b505af4158015610869573d6000803e3d6000fd5b505050506040513d602081101561087f57600080fd5b8101908080519060200190929190505050905092915050565b600073__$c335ddf5b0a4134b42ea86b987cf57fb8f$__63035d2f7290916040518263ffffffff1660e01b81526004018082815260200191505060006040518083038186803b1580156108ea57600080fd5b505af41580156108fe573d6000803e3d6000fd5b50505050565b60008073__$d2f573bde5cf92a06ed0d8fdf16e4d7fa3$__63c739441690918686866040518563ffffffff1660e01b8152600401808581526020018473ffffffffffffffffffffffffffffffffffffffff1673ffffffffffffffffffffffffffffffffffffffff1681526020018373ffffffffffffffffffffffffffffffffffffffff1673ffffffffffffffffffffffffffffffffffffffff16815260200182815260200194505050505060206040518083038186803b1580156109c757600080fd5b505af41580156109db573d6000803e3d6000fd5b505050506040513d60208110156109f157600080fd5b810190808051906020019092919050505090509392505050565b600073__$469e817667ee94f73e6aa6d509f102d584$__638859673f9091836040518363ffffffff1660e01b8152600401808381526020018273ffffffffffffffffffffffffffffffffffffffff1673ffffffffffffffffffffffffffffffffffffffff1681526020019250505060006040518083038186803b158015610a9157600080fd5b505af4158015610aa5573d6000803e3d6000fd5b5050505050565b600073__$c335ddf5b0a4134b42ea86b987cf57fb8f$__63c5b401b990916040518263ffffffff1660e01b81526004018082815260200191505060006040518083038186803b158015610afe57600080fd5b505af4158015610b12573d6000803e3d6000fd5b50505050565b60006012905090565b600073__$3f3c38b8cf3252667ab7185e62f963a27f$__6364e0c3ac90918888888888886040518863ffffffff1660e01b81526004018088815260200180602001806020018581526020018481526020018381038352898982818152602001925080828437600081840152601f19601f8201169050808301925050508381038252878782818152602001925080828437600081840152601f19601f820116905080830192505050995050505050505050505060006040518083038186803b158015610beb57600080fd5b505af4158015610bff573d6000803e3d6000fd5b50505050505050505050565b600073__$469e817667ee94f73e6aa6d509f102d584$__63b183f5749091836040518363ffffffff1660e01b8152600401808381526020018281526020019250505060006040518083038186803b158015610c6557600080fd5b505af4158015610c79573d6000803e3d6000fd5b5050505050565b610c8a60006111b7565b565b600073__$3f3c38b8cf3252667ab7185e62f963a27f$__639bd0f6069091868686866040518663ffffffff1660e01b815260040180868152602001806020018481526020018381526020018281038252868682818152602001925080828437600081840152601f19601f820116905080830192505050965050505050505060006040518083038186803b158015610d2257600080fd5b505af4158015610d36573d6000803e3d6000fd5b5050505050505050565b610d548160006114e690919063ffffffff16565b50565b600073__$3f3c38b8cf3252667ab7185e62f963a27f$__63be29e7f1909184846040518463ffffffff1660e01b815260040180848152602001838152602001828152602001935050505060006040518083038186803b158015610db957600080fd5b505af4158015610dcd573d6000803e3d6000fd5b505050505050565b600073__$469e817667ee94f73e6aa6d509f102d584$__63cc4d022990918585856040518563ffffffff1660e01b81526004018085815260200184815260200183815260200182815260200194505050505060006040518083038186803b158015610e3f57600080fd5b505af4158015610e53573d6000803e3d6000fd5b50505050505050565b60606040518060400160405280600381526020017f5452420000000000000000000000000000000000000000000000000000000000815250905090565b60008073__$d2f573bde5cf92a06ed0d8fdf16e4d7fa3$__63a1b993c3909185856040518463ffffffff1660e01b8152600401808481526020018373ffffffffffffffffffffffffffffffffffffffff1673ffffffffffffffffffffffffffffffffffffffff168152602001828152602001935050505060206040518083038186803b158015610f2857600080fd5b505af4158015610f3c573d6000803e3d6000fd5b505050506040513d6020811015610f5257600080fd5b8101908080519060200190929190505050905092915050565b600073__$3f3c38b8cf3252667ab7185e62f963a27f$__63db019b56909184846040518463ffffffff1660e01b8152600401808481526020018373ffffffffffffffffffffffffffffffffffffffff1673ffffffffffffffffffffffffffffffffffffffff168152602001828152602001935050505060006040518083038186803b158015610ff957600080fd5b505af415801561100d573d6000803e3d6000fd5b505050505050565b600073__$c335ddf5b0a4134b42ea86b987cf57fb8f$__6397a2484e90916040518263ffffffff1660e01b81526004018082815260200191505060006040518083038186803b15801561106757600080fd5b505af415801561107b573d6000803e3d6000fd5b50505050565b600073__$3f3c38b8cf3252667ab7185e62f963a27f$__63857e7ded9091868686866040518663ffffffff1660e01b815260040180868152602001806020018481526020018381526020018281038252868682818152602001925080828437600081840152601f19601f820116905080830192505050965050505050505060006040518083038186803b15801561111757600080fd5b505af415801561112b573d6000803e3d6000fd5b5050505050505050565b600073__$469e817667ee94f73e6aa6d509f102d584$__6369a5c535909184846040518463ffffffff1660e01b81526004018084815260200183815260200182151515158152602001935050505060006040518083038186803b15801561119b57600080fd5b505af41580156111af573d6000803e3d6000fd5b505050505050565b80603f01600060405180807f70656e64696e675f6f776e657200000000000000000000000000000000000000815250600d0190506040518091039020815260200190815260200160002060009054906101000a900473ffffffffffffffffffffffffffffffffffffffff1673ffffffffffffffffffffffffffffffffffffffff163373ffffffffffffffffffffffffffffffffffffffff16146112c2576040517f08c379a000000000000000000000000000000000000000000000000000000000815260040180806020018281038252601b8152602001807f53656e646572206973206e6f742070656e64696e67206f776e6572000000000081525060200191505060405180910390fd5b80603f01600060405180807f70656e64696e675f6f776e657200000000000000000000000000000000000000815250600d0190506040518091039020815260200190815260200160002060009054906101000a900473ffffffffffffffffffffffffffffffffffffffff1673ffffffffffffffffffffffffffffffffffffffff1681603f01600060405180807f5f6f776e6572000000000000000000000000000000000000000000000000000081525060060190506040518091039020815260200190815260200160002060009054906101000a900473ffffffffffffffffffffffffffffffffffffffff1673ffffffffffffffffffffffffffffffffffffffff167f8be0079c531659141344cd1fd0a4f28419497f9722a3daafe3b4186f6b6457e060405160405180910390a380603f01600060405180807f70656e64696e675f6f776e657200000000000000000000000000000000000000815250600d0190506040518091039020815260200190815260200160002060009054906101000a900473ffffffffffffffffffffffffffffffffffffffff1681603f01600060405180807f5f6f776e6572000000000000000000000000000000000000000000000000000081525060060190506040518091039020815260200190815260200160002060006101000a81548173ffffffffffffffffffffffffffffffffffffffff021916908373ffffffffffffffffffffffffffffffffffffffff16021790555050565b81603f01600060405180807f5f6f776e6572000000000000000000000000000000000000000000000000000081525060060190506040518091039020815260200190815260200160002060009054906101000a900473ffffffffffffffffffffffffffffffffffffffff1673ffffffffffffffffffffffffffffffffffffffff163373ffffffffffffffffffffffffffffffffffffffff16146115f1576040517f08c379a00000000000000000000000000000000000000000000000000000000081526004018080602001828103825260138152602001807f53656e646572206973206e6f74206f776e65720000000000000000000000000081525060200191505060405180910390fd5b8073ffffffffffffffffffffffffffffffffffffffff1682603f01600060405180807f5f6f776e6572000000000000000000000000000000000000000000000000000081525060060190506040518091039020815260200190815260200160002060009054906101000a900473ffffffffffffffffffffffffffffffffffffffff1673ffffffffffffffffffffffffffffffffffffffff167fb51454ce8c7f26becd312a46c4815553887f2ec876a0b8dc813b87f62edf6f8060405160405180910390a38082603f01600060405180807f70656e64696e675f6f776e657200000000000000000000000000000000000000815250600d0190506040518091039020815260200190815260200160002060006101000a81548173ffffffffffffffffffffffffffffffffffffffff021916908373ffffffffffffffffffffffffffffffffffffffff160217905550505056fea265627a7a72315820f803a328fb64bab279070e96f6658eaf821501e9cf19df055eff9f4cfffb34b964736f6c63430005100032",
  "linkReferences": {
    "tellorlegacy/contracts/oldContracts2/libraries/Old2TellorDispute.sol": {
      "Old2TellorDispute": [
        {
          "length": 20,
          "start": 2607
        },
        {
          "length": 20,
          "start": 3119
        },
        {
          "length": 20,
          "start": 3577
        },
        {
          "length": 20,
          "start": 4441
        }
      ]
    },
    "tellorlegacy/contracts/oldContracts2/libraries/Old2TellorLibrary.sol": {
      "Old2TellorLibrary": [
        {
          "length": 20,
          "start": 2885
        },
        {
          "length": 20,
          "start": 3248
        },
        {
          "length": 20,
          "start": 3451
        },
        {
          "length": 20,
          "start": 3983
        },
        {
          "length": 20,
          "start": 4261
        }
      ]
    },
    "tellorlegacy/contracts/oldContracts2/libraries/Old2TellorStake.sol": {
      "Old2TellorStake": [
        {
          "length": 20,
          "start": 2236
        },
        {
          "length": 20,
          "start": 2768
        },
        {
          "length": 20,
          "start": 4153
        }
      ]
    },
    "tellorlegacy/contracts/oldContracts2/libraries/Old2TellorTransfer.sol": {
      "Old2TellorTransfer": [
        {
          "length": 20,
          "start": 2027
        },
        {
          "length": 20,
          "start": 2345
        },
        {
          "length": 20,
          "start": 3774
        }
      ]
    }
  },
  "deployedLinkReferences": {
    "tellorlegacy/contracts/oldContracts2/libraries/Old2TellorDispute.sol": {
      "Old2TellorDispute": [
        {
          "length": 20,
          "start": 2575
        },
        {
          "length": 20,
          "start": 3087
        },
        {
          "length": 20,
          "start": 3545
        },
        {
          "length": 20,
          "start": 4409
        }
      ]
    },
    "tellorlegacy/contracts/oldContracts2/libraries/Old2TellorLibrary.sol": {
      "Old2TellorLibrary": [
        {
          "length": 20,
          "start": 2853
        },
        {
          "length": 20,
          "start": 3216
        },
        {
          "length": 20,
          "start": 3419
        },
        {
          "length": 20,
          "start": 3951
        },
        {
          "length": 20,
          "start": 4229
        }
      ]
    },
    "tellorlegacy/contracts/oldContracts2/libraries/Old2TellorStake.sol": {
      "Old2TellorStake": [
        {
          "length": 20,
          "start": 2204
        },
        {
          "length": 20,
          "start": 2736
        },
        {
          "length": 20,
          "start": 4121
        }
      ]
    },
    "tellorlegacy/contracts/oldContracts2/libraries/Old2TellorTransfer.sol": {
      "Old2TellorTransfer": [
        {
          "length": 20,
          "start": 1995
        },
        {
          "length": 20,
          "start": 2313
        },
        {
          "length": 20,
          "start": 3742
        }
      ]
    }
  }
}