{
  "_format": "hh-sol-artifact-1",
  "contractName": "OldTellor",
  "sourceName": "tellorlegacy/contracts/oldContracts/OldTellor.sol",
  "abi": [
    {
      "constant": false,
      "inputs": [
        {
          "internalType": "uint256",
          "name": "_requestId",
          "type": "uint256"
        },
        {
          "internalType": "uint256",
          "name": "_tip",
          "type": "uint256"
        }
      ],
      "name": "addTip",
      "outputs": [],
      "payable": false,
      "stateMutability": "nonpayable",
      "type": "function"
    },
    {
      "constant": false,
      "inputs": [
        {
          "internalType": "address",
          "name": "_spender",
          "type": "address"
        },
        {
          "internalType": "uint256",
          "name": "_amount",
          "type": "uint256"
        }
      ],
      "name": "approve",
      "outputs": [
        {
          "internalType": "bool",
          "name": "",
          "type": "bool"
        }
      ],
      "payable": false,
      "stateMutability": "nonpayable",
      "type": "function"
    },
    {
      "constant": false,
      "inputs": [
        {
          "internalType": "uint256",
          "name": "_requestId",
          "type": "uint256"
        },
        {
          "internalType": "uint256",
          "name": "_timestamp",
          "type": "uint256"
        },
        {
          "internalType": "uint256",
          "name": "_minerIndex",
          "type": "uint256"
        }
      ],
      "name": "beginDispute",
      "outputs": [],
      "payable": false,
      "stateMutability": "nonpayable",
      "type": "function"
    },
    {
      "constant": false,
      "inputs": [],
      "name": "claimOwnership",
      "outputs": [],
      "payable": false,
      "stateMutability": "nonpayable",
      "type": "function"
    },
    {
      "constant": false,
      "inputs": [],
      "name": "depositStake",
      "outputs": [],
      "payable": false,
      "stateMutability": "nonpayable",
      "type": "function"
    },
    {
      "constant": false,
      "inputs": [
        {
          "internalType": "address",
          "name": "_propNewTellorAddress",
          "type": "address"
        }
      ],
      "name": "proposeFork",
      "outputs": [],
      "payable": false,
      "stateMutability": "nonpayable",
      "type": "function"
    },
    {
      "constant": false,
      "inputs": [
        {
          "internalType": "address payable",
          "name": "_pendingOwner",
          "type": "address"
        }
      ],
      "name": "proposeOwnership",
      "outputs": [],
      "payable": false,
      "stateMutability": "nonpayable",
      "type": "function"
    },
    {
      "constant": false,
      "inputs": [
        {
          "internalType": "string",
          "name": "_c_sapi",
          "type": "string"
        },
        {
          "internalType": "string",
          "name": "_c_symbol",
          "type": "string"
        },
        {
          "internalType": "uint256",
          "name": "_granularity",
          "type": "uint256"
        },
        {
          "internalType": "uint256",
          "name": "_tip",
          "type": "uint256"
        }
      ],
      "name": "requestData",
      "outputs": [],
      "payable": false,
      "stateMutability": "nonpayable",
      "type": "function"
    },
    {
      "constant": false,
      "inputs": [],
      "name": "requestStakingWithdraw",
      "outputs": [],
      "payable": false,
      "stateMutability": "nonpayable",
      "type": "function"
    },
    {
      "constant": false,
      "inputs": [
        {
          "internalType": "string",
          "name": "_nonce",
          "type": "string"
        },
        {
          "internalType": "uint256",
          "name": "_requestId",
          "type": "uint256"
        },
        {
          "internalType": "uint256",
          "name": "_value",
          "type": "uint256"
        }
      ],
      "name": "submitMiningSolution",
      "outputs": [],
      "payable": false,
      "stateMutability": "nonpayable",
      "type": "function"
    },
    {
      "constant": false,
      "inputs": [
        {
          "internalType": "uint256",
          "name": "_disputeId",
          "type": "uint256"
        }
      ],
      "name": "tallyVotes",
      "outputs": [],
      "payable": false,
      "stateMutability": "nonpayable",
      "type": "function"
    },
    {
      "constant": false,
      "inputs": [
        {
          "internalType": "string",
          "name": "_nonce",
          "type": "string"
        },
        {
          "internalType": "uint256",
          "name": "_requestId",
          "type": "uint256"
        },
        {
          "internalType": "uint256",
          "name": "_value",
          "type": "uint256"
        }
      ],
      "name": "testSubmitMiningSolution",
      "outputs": [],
      "payable": false,
      "stateMutability": "nonpayable",
      "type": "function"
    },
    {
      "constant": false,
      "inputs": [
        {
          "internalType": "address",
          "name": "_address",
          "type": "address"
        },
        {
          "internalType": "uint256",
          "name": "_amount",
          "type": "uint256"
        }
      ],
      "name": "theLazyCoon",
      "outputs": [],
      "payable": false,
      "stateMutability": "nonpayable",
      "type": "function"
    },
    {
      "constant": false,
      "inputs": [
        {
          "internalType": "address",
          "name": "_to",
          "type": "address"
        },
        {
          "internalType": "uint256",
          "name": "_amount",
          "type": "uint256"
        }
      ],
      "name": "transfer",
      "outputs": [
        {
          "internalType": "bool",
          "name": "",
          "type": "bool"
        }
      ],
      "payable": false,
      "stateMutability": "nonpayable",
      "type": "function"
    },
    {
      "constant": false,
      "inputs": [
        {
          "internalType": "address",
          "name": "_from",
          "type": "address"
        },
        {
          "internalType": "address",
          "name": "_to",
          "type": "address"
        },
        {
          "internalType": "uint256",
          "name": "_amount",
          "type": "uint256"
        }
      ],
      "name": "transferFrom",
      "outputs": [
        {
          "internalType": "bool",
          "name": "",
          "type": "bool"
        }
      ],
      "payable": false,
      "stateMutability": "nonpayable",
      "type": "function"
    },
    {
      "constant": false,
      "inputs": [
        {
          "internalType": "uint256",
          "name": "_disputeId",
          "type": "uint256"
        },
        {
          "internalType": "bool",
          "name": "_supportsDispute",
          "type": "bool"
        }
      ],
      "name": "vote",
      "outputs": [],
      "payable": false,
      "stateMutability": "nonpayable",
      "type": "function"
    },
    {
      "constant": false,
      "inputs": [],
      "name": "withdrawStake",
      "outputs": [],
      "payable": false,
      "stateMutability": "nonpayable",
      "type": "function"
    }
  ],
  "bytecode": "0x608060405234801561001057600080fd5b506114d7806100206000396000f3fe608060405234801561001057600080fd5b506004361061010b5760003560e01c806368c180d5116100a2578063a9059cbb11610071578063a9059cbb146104b9578063b079f64a1461051f578063bed9d8611461056d578063c0a8b65014610577578063c9d27afe146106045761010b565b806368c180d51461036e578063710bf322146103fb578063752d49a11461043f5780638581af19146104775761010b565b806328449c3a116100de57806328449c3a1461024a5780633fff2816146102545780634d318b0e146103365780634e71e0c8146103645761010b565b8063095ea7b3146101105780630d2d76a21461017657806323b872dd1461018057806326b7d9f614610206575b600080fd5b61015c6004803603604081101561012657600080fd5b81019080803573ffffffffffffffffffffffffffffffffffffffff1690602001909291908035906020019092919050505061063e565b604051808215151515815260200191505060405180910390f35b61017e610710565b005b6101ec6004803603606081101561019657600080fd5b81019080803573ffffffffffffffffffffffffffffffffffffffff169060200190929190803573ffffffffffffffffffffffffffffffffffffffff1690602001909291908035906020019092919050505061077c565b604051808215151515815260200191505060405180910390f35b6102486004803603602081101561021c57600080fd5b81019080803573ffffffffffffffffffffffffffffffffffffffff169060200190929190505050610883565b005b610252610924565b005b6103346004803603608081101561026a57600080fd5b810190808035906020019064010000000081111561028757600080fd5b82018360208201111561029957600080fd5b803590602001918460018302840111640100000000831117156102bb57600080fd5b9091929391929390803590602001906401000000008111156102dc57600080fd5b8201836020820111156102ee57600080fd5b8035906020019184600183028401116401000000008311171561031057600080fd5b90919293919293908035906020019092919080359060200190929190505050610990565b005b6103626004803603602081101561034c57600080fd5b8101908080359060200190929190505050610a7a565b005b61036c610aef565b005b6103f96004803603606081101561038457600080fd5b81019080803590602001906401000000008111156103a157600080fd5b8201836020820111156103b357600080fd5b803590602001918460018302840111640100000000831117156103d557600080fd5b90919293919293908035906020019092919080359060200190929190505050610afb565b005b61043d6004803603602081101561041157600080fd5b81019080803573ffffffffffffffffffffffffffffffffffffffff169060200190929190505050610baf565b005b6104756004803603604081101561045557600080fd5b810190808035906020019092919080359060200190929190505050610bc6565b005b6104b76004803603606081101561048d57600080fd5b81019080803590602001909291908035906020019092919080359060200190929190505050610c44565b005b610505600480360360408110156104cf57600080fd5b81019080803573ffffffffffffffffffffffffffffffffffffffff16906020019092919080359060200190929190505050610ccb565b604051808215151515815260200191505060405180910390f35b61056b6004803603604081101561053557600080fd5b81019080803573ffffffffffffffffffffffffffffffffffffffff16906020019092919080359060200190929190505050610d9d565b005b610575610e47565b005b6106026004803603606081101561058d57600080fd5b81019080803590602001906401000000008111156105aa57600080fd5b8201836020820111156105bc57600080fd5b803590602001918460018302840111640100000000831117156105de57600080fd5b90919293919293908035906020019092919080359060200190929190505050610eb3565b005b61063c6004803603604081101561061a57600080fd5b8101908080359060200190929190803515159060200190929190505050610f67565b005b60008073__$81619e491188f9402f5c31b88a954e452d$__63cb6f7c66909185856040518463ffffffff1660e01b8152600401808481526020018373ffffffffffffffffffffffffffffffffffffffff1673ffffffffffffffffffffffffffffffffffffffff168152602001828152602001935050505060206040518083038186803b1580156106cd57600080fd5b505af41580156106e1573d6000803e3d6000fd5b505050506040513d60208110156106f757600080fd5b8101908080519060200190929190505050905092915050565b600073__$726ad989ac42533d7533acea291aa65bdf$__636d09e1b490916040518263ffffffff1660e01b81526004018082815260200191505060006040518083038186803b15801561076257600080fd5b505af4158015610776573d6000803e3d6000fd5b50505050565b60008073__$81619e491188f9402f5c31b88a954e452d$__6335ff14bd90918686866040518563ffffffff1660e01b8152600401808581526020018473ffffffffffffffffffffffffffffffffffffffff1673ffffffffffffffffffffffffffffffffffffffff1681526020018373ffffffffffffffffffffffffffffffffffffffff1673ffffffffffffffffffffffffffffffffffffffff16815260200182815260200194505050505060206040518083038186803b15801561083f57600080fd5b505af4158015610853573d6000803e3d6000fd5b505050506040513d602081101561086957600080fd5b810190808051906020019092919050505090509392505050565b600073__$ac41324d6e0604002832cda4066a4c4553$__63eaeddad99091836040518363ffffffff1660e01b8152600401808381526020018273ffffffffffffffffffffffffffffffffffffffff1673ffffffffffffffffffffffffffffffffffffffff1681526020019250505060006040518083038186803b15801561090957600080fd5b505af415801561091d573d6000803e3d6000fd5b5050505050565b600073__$726ad989ac42533d7533acea291aa65bdf$__633c06d13990916040518263ffffffff1660e01b81526004018082815260200191505060006040518083038186803b15801561097657600080fd5b505af415801561098a573d6000803e3d6000fd5b50505050565b600073__$107680a435f9f16ac722ca10111862c475$__63421ab07290918888888888886040518863ffffffff1660e01b81526004018088815260200180602001806020018581526020018481526020018381038352898982818152602001925080828437600081840152601f19601f8201169050808301925050508381038252878782818152602001925080828437600081840152601f19601f820116905080830192505050995050505050505050505060006040518083038186803b158015610a5a57600080fd5b505af4158015610a6e573d6000803e3d6000fd5b50505050505050505050565b600073__$ac41324d6e0604002832cda4066a4c4553$__63a513e1299091836040518363ffffffff1660e01b8152600401808381526020018281526020019250505060006040518083038186803b158015610ad457600080fd5b505af4158015610ae8573d6000803e3d6000fd5b5050505050565b610af96000610fe9565b565b600073__$107680a435f9f16ac722ca10111862c475$__63c38a5c8a9091868686866040518663ffffffff1660e01b815260040180868152602001806020018481526020018381526020018281038252868682818152602001925080828437600081840152601f19601f820116905080830192505050965050505050505060006040518083038186803b158015610b9157600080fd5b505af4158015610ba5573d6000803e3d6000fd5b5050505050505050565b610bc38160006112af90919063ffffffff16565b50565b600073__$107680a435f9f16ac722ca10111862c475$__6363687386909184846040518463ffffffff1660e01b815260040180848152602001838152602001828152602001935050505060006040518083038186803b158015610c2857600080fd5b505af4158015610c3c573d6000803e3d6000fd5b505050505050565b600073__$ac41324d6e0604002832cda4066a4c4553$__630edf76e490918585856040518563ffffffff1660e01b81526004018085815260200184815260200183815260200182815260200194505050505060006040518083038186803b158015610cae57600080fd5b505af4158015610cc2573d6000803e3d6000fd5b50505050505050565b60008073__$81619e491188f9402f5c31b88a954e452d$__631e405eda909185856040518463ffffffff1660e01b8152600401808481526020018373ffffffffffffffffffffffffffffffffffffffff1673ffffffffffffffffffffffffffffffffffffffff168152602001828152602001935050505060206040518083038186803b158015610d5a57600080fd5b505af4158015610d6e573d6000803e3d6000fd5b505050506040513d6020811015610d8457600080fd5b8101908080519060200190929190505050905092915050565b600073__$107680a435f9f16ac722ca10111862c475$__63fa0837b1909184846040518463ffffffff1660e01b8152600401808481526020018373ffffffffffffffffffffffffffffffffffffffff1673ffffffffffffffffffffffffffffffffffffffff168152602001828152602001935050505060006040518083038186803b158015610e2b57600080fd5b505af4158015610e3f573d6000803e3d6000fd5b505050505050565b600073__$726ad989ac42533d7533acea291aa65bdf$__63e62c164590916040518263ffffffff1660e01b81526004018082815260200191505060006040518083038186803b158015610e9957600080fd5b505af4158015610ead573d6000803e3d6000fd5b50505050565b600073__$107680a435f9f16ac722ca10111862c475$__63af026f0d9091868686866040518663ffffffff1660e01b815260040180868152602001806020018481526020018381526020018281038252868682818152602001925080828437600081840152601f19601f820116905080830192505050965050505050505060006040518083038186803b158015610f4957600080fd5b505af4158015610f5d573d6000803e3d6000fd5b5050505050505050565b600073__$ac41324d6e0604002832cda4066a4c4553$__632e8dcb7e909184846040518463ffffffff1660e01b81526004018084815260200183815260200182151515158152602001935050505060006040518083038186803b158015610fcd57600080fd5b505af4158015610fe1573d6000803e3d6000fd5b505050505050565b80603f01600060405180807f70656e64696e675f6f776e657200000000000000000000000000000000000000815250600d0190506040518091039020815260200190815260200160002060009054906101000a900473ffffffffffffffffffffffffffffffffffffffff1673ffffffffffffffffffffffffffffffffffffffff163373ffffffffffffffffffffffffffffffffffffffff161461108b57600080fd5b80603f01600060405180807f70656e64696e675f6f776e657200000000000000000000000000000000000000815250600d0190506040518091039020815260200190815260200160002060009054906101000a900473ffffffffffffffffffffffffffffffffffffffff1673ffffffffffffffffffffffffffffffffffffffff1681603f01600060405180807f5f6f776e6572000000000000000000000000000000000000000000000000000081525060060190506040518091039020815260200190815260200160002060009054906101000a900473ffffffffffffffffffffffffffffffffffffffff1673ffffffffffffffffffffffffffffffffffffffff167fd02dfe11dd36892231b9ad3e9a9d48153f493acd9af79de7817ac4dac150423660405160405180910390a380603f01600060405180807f70656e64696e675f6f776e657200000000000000000000000000000000000000815250600d0190506040518091039020815260200190815260200160002060009054906101000a900473ffffffffffffffffffffffffffffffffffffffff1681603f01600060405180807f5f6f776e6572000000000000000000000000000000000000000000000000000081525060060190506040518091039020815260200190815260200160002060006101000a81548173ffffffffffffffffffffffffffffffffffffffff021916908373ffffffffffffffffffffffffffffffffffffffff16021790555050565b81603f01600060405180807f5f6f776e6572000000000000000000000000000000000000000000000000000081525060060190506040518091039020815260200190815260200160002060009054906101000a900473ffffffffffffffffffffffffffffffffffffffff1673ffffffffffffffffffffffffffffffffffffffff163373ffffffffffffffffffffffffffffffffffffffff161461135157600080fd5b8073ffffffffffffffffffffffffffffffffffffffff1682603f01600060405180807f5f6f776e6572000000000000000000000000000000000000000000000000000081525060060190506040518091039020815260200190815260200160002060009054906101000a900473ffffffffffffffffffffffffffffffffffffffff1673ffffffffffffffffffffffffffffffffffffffff167f496503062c30a72cf552a695690d2219ad04e8af1524dd5c10861634ed11f90b60405160405180910390a38082603f01600060405180807f70656e64696e675f6f776e657200000000000000000000000000000000000000815250600d0190506040518091039020815260200190815260200160002060006101000a81548173ffffffffffffffffffffffffffffffffffffffff021916908373ffffffffffffffffffffffffffffffffffffffff160217905550505056fea265627a7a72315820174f71d3ce0cb16ad3169380ca353f183069134fd820aa4fcc8973b28b8640d464736f6c63430005100032",
  "linkReferences": {
    "tellorlegacy/contracts/oldContracts/libraries/OldTellorDispute.sol": {
      "OldTellorDispute": [
        {
          "length": 20,
          "start": 2215
        },
        {
          "length": 20,
          "start": 2718
        },
        {
          "length": 20,
          "start": 3176
        },
        {
          "length": 20,
          "start": 3979
        }
      ]
    },
    "tellorlegacy/contracts/oldContracts/libraries/OldTellorLibrary.sol": {
      "OldTellorLibrary": [
        {
          "length": 20,
          "start": 2484
        },
        {
          "length": 20,
          "start": 2847
        },
        {
          "length": 20,
          "start": 3050
        },
        {
          "length": 20,
          "start": 3521
        },
        {
          "length": 20,
          "start": 3799
        }
      ]
    },
    "tellorlegacy/contracts/oldContracts/libraries/OldTellorStake.sol": {
      "OldTellorStake": [
        {
          "length": 20,
          "start": 1844
        },
        {
          "length": 20,
          "start": 2376
        },
        {
          "length": 20,
          "start": 3691
        }
      ]
    },
    "tellorlegacy/contracts/oldContracts/libraries/OldTellorTransfer.sol": {
      "OldTellorTransfer": [
        {
          "length": 20,
          "start": 1635
        },
        {
          "length": 20,
          "start": 1953
        },
        {
          "length": 20,
          "start": 3312
        }
      ]
    }
  },
  "deployedLinkReferences": {
    "tellorlegacy/contracts/oldContracts/libraries/OldTellorDispute.sol": {
      "OldTellorDispute": [
        {
          "length": 20,
          "start": 2183
        },
        {
          "length": 20,
          "start": 2686
        },
        {
          "length": 20,
          "start": 3144
        },
        {
          "length": 20,
          "start": 3947
        }
      ]
    },
    "tellorlegacy/contracts/oldContracts/libraries/OldTellorLibrary.sol": {
      "OldTellorLibrary": [
        {
          "length": 20,
          "start": 2452
        },
        {
          "length": 20,
          "start": 2815
        },
        {
          "length": 20,
          "start": 3018
        },
        {
          "length": 20,
          "start": 3489
        },
        {
          "length": 20,
          "start": 3767
        }
      ]
    },
    "tellorlegacy/contracts/oldContracts/libraries/OldTellorStake.sol": {
      "OldTellorStake": [
        {
          "length": 20,
          "start": 1812
        },
        {
          "length": 20,
          "start": 2344
        },
        {
          "length": 20,
          "start": 3659
        }
      ]
    },
    "tellorlegacy/contracts/oldContracts/libraries/OldTellorTransfer.sol": {
      "OldTellorTransfer": [
        {
          "length": 20,
          "start": 1603
        },
        {
          "length": 20,
          "start": 1921
        },
        {
          "length": 20,
          "start": 3280
        }
      ]
    }
  }
}