{
  "_format": "hh-sol-artifact-1",
  "contractName": "TellorLibraryTest",
  "sourceName": "contracts/mocks/TellorLibraryTest.sol",
  "abi": [
    {
      "constant": true,
      "inputs": [],
      "name": "_owner",
      "outputs": [
        {
          "internalType": "bytes32",
          "name": "",
          "type": "bytes32"
        }
      ],
      "payable": false,
      "stateMutability": "view",
      "type": "function"
    },
    {
      "constant": true,
      "inputs": [],
      "name": "_tBlock",
      "outputs": [
        {
          "internalType": "bytes32",
          "name": "",
          "type": "bytes32"
        }
      ],
      "payable": false,
      "stateMutability": "view",
      "type": "function"
    },
    {
      "constant": true,
      "inputs": [],
      "name": "currentRequestId",
      "outputs": [
        {
          "internalType": "bytes32",
          "name": "",
          "type": "bytes32"
        }
      ],
      "payable": false,
      "stateMutability": "view",
      "type": "function"
    },
    {
      "constant": true,
      "inputs": [],
      "name": "currentReward",
      "outputs": [
        {
          "internalType": "bytes32",
          "name": "",
          "type": "bytes32"
        }
      ],
      "payable": false,
      "stateMutability": "view",
      "type": "function"
    },
    {
      "constant": true,
      "inputs": [],
      "name": "currentTotalTips",
      "outputs": [
        {
          "internalType": "bytes32",
          "name": "",
          "type": "bytes32"
        }
      ],
      "payable": false,
      "stateMutability": "view",
      "type": "function"
    },
    {
      "constant": true,
      "inputs": [],
      "name": "devShare",
      "outputs": [
        {
          "internalType": "bytes32",
          "name": "",
          "type": "bytes32"
        }
      ],
      "payable": false,
      "stateMutability": "view",
      "type": "function"
    },
    {
      "constant": true,
      "inputs": [],
      "name": "difficulty",
      "outputs": [
        {
          "internalType": "bytes32",
          "name": "",
          "type": "bytes32"
        }
      ],
      "payable": false,
      "stateMutability": "view",
      "type": "function"
    },
    {
      "constant": true,
      "inputs": [],
      "name": "pending_owner",
      "outputs": [
        {
          "internalType": "bytes32",
          "name": "",
          "type": "bytes32"
        }
      ],
      "payable": false,
      "stateMutability": "view",
      "type": "function"
    },
    {
      "constant": true,
      "inputs": [],
      "name": "requestCount",
      "outputs": [
        {
          "internalType": "bytes32",
          "name": "",
          "type": "bytes32"
        }
      ],
      "payable": false,
      "stateMutability": "view",
      "type": "function"
    },
    {
      "constant": true,
      "inputs": [],
      "name": "requestQPosition",
      "outputs": [
        {
          "internalType": "bytes32",
          "name": "",
          "type": "bytes32"
        }
      ],
      "payable": false,
      "stateMutability": "view",
      "type": "function"
    },
    {
      "constant": true,
      "inputs": [],
      "name": "runningTips",
      "outputs": [
        {
          "internalType": "bytes32",
          "name": "",
          "type": "bytes32"
        }
      ],
      "payable": false,
      "stateMutability": "view",
      "type": "function"
    },
    {
      "constant": true,
      "inputs": [],
      "name": "slotProgress",
      "outputs": [
        {
          "internalType": "bytes32",
          "name": "",
          "type": "bytes32"
        }
      ],
      "payable": false,
      "stateMutability": "view",
      "type": "function"
    },
    {
      "constant": true,
      "inputs": [],
      "name": "timeOfLastNewValue",
      "outputs": [
        {
          "internalType": "bytes32",
          "name": "",
          "type": "bytes32"
        }
      ],
      "payable": false,
      "stateMutability": "view",
      "type": "function"
    },
    {
      "constant": true,
      "inputs": [],
      "name": "timeTarget",
      "outputs": [
        {
          "internalType": "bytes32",
          "name": "",
          "type": "bytes32"
        }
      ],
      "payable": false,
      "stateMutability": "view",
      "type": "function"
    },
    {
      "constant": true,
      "inputs": [],
      "name": "totalTip",
      "outputs": [
        {
          "internalType": "bytes32",
          "name": "",
          "type": "bytes32"
        }
      ],
      "payable": false,
      "stateMutability": "view",
      "type": "function"
    },
    {
      "constant": true,
      "inputs": [],
      "name": "total_supply",
      "outputs": [
        {
          "internalType": "bytes32",
          "name": "",
          "type": "bytes32"
        }
      ],
      "payable": false,
      "stateMutability": "view",
      "type": "function"
    }
  ],
  "bytecode": "0x61078f610026600b82828239805160001a60731461001957fe5b30600052607381538281f3fe73000000000000000000000000000000000000000030146080604052600436106101205760003560e01c80635badbe4c116100ac57806375ad1a2a1161007b57806375ad1a2a146103195780637f4ec4c314610337578063aed04fae14610355578063b0dc7c2014610373578063b2bdfa7b1461039157610120565b80635badbe4c146102a15780636e3cf885146102bf5780636fc37811146102dd5780636fd4f229146102fb57610120565b80633940e9ee116100f35780633940e9ee1461019d5780633a7f8078146101bb57806348656ba614610200578063561cb04a146102655780635ae2bfdb1461028357610120565b806303b3160f1461012557806307621eca1461014357806319cae462146101615780632bf07e9e1461017f575b600080fd5b61012d6103af565b6040518082815260200191505060405180910390f35b61014b6103d6565b6040518082815260200191505060405180910390f35b6101696103fd565b6040518082815260200191505060405180910390f35b610187610424565b6040518082815260200191505060405180910390f35b6101a561044b565b6040518082815260200191505060405180910390f35b8180156101c757600080fd5b506101fe600480360360408110156101de57600080fd5b810190808035906020019092919080359060200190929190505050610472565b005b81801561020c57600080fd5b506102636004803603606081101561022357600080fd5b8101908080359060200190929190803573ffffffffffffffffffffffffffffffffffffffff169060200190929190803590602001909291905050506104b3565b005b61026d6105ad565b6040518082815260200191505060405180910390f35b61028b6105d4565b6040518082815260200191505060405180910390f35b6102a96105fb565b6040518082815260200191505060405180910390f35b6102c7610622565b6040518082815260200191505060405180910390f35b6102e5610649565b6040518082815260200191505060405180910390f35b610303610670565b6040518082815260200191505060405180910390f35b610321610697565b6040518082815260200191505060405180910390f35b61033f6106be565b6040518082815260200191505060405180910390f35b61035d6106e5565b6040518082815260200191505060405180910390f35b61037b61070c565b6040518082815260200191505060405180910390f35b610399610733565b6040518082815260200191505060405180910390f35b7f6c505cb2db6644f57b42d87bd9407b0f66788b07d0617a2bc1356a0e69e66f9a60001b81565b7f9b6853911475b07474368644a0d922ee13bc76a15cd3e97d3e334326424a47d460001b81565b7fb12aff7664b16cb99339be399b863feecd64d14817be7e1f042f97e3f358e64e60001b81565b7f1e344bd070f05f1c5b3f0b1266f4f20d837a0a8190a3a2da8b0375eac2ba86ea60001b81565b7fb1557182e4359a1f0c6301278e8f5b35a776ab58d39892581e357578fb28783660001b81565b808260400160007fb12aff7664b16cb99339be399b863feecd64d14817be7e1f042f97e3f358e64e60001b8152602001908152602001600020819055505050565b808360400160007fb1557182e4359a1f0c6301278e8f5b35a776ab58d39892581e357578fb28783660001b81526020019081526020016000206000828254019250508190555073__$e6d6eab054cf6cc8ad21596dd9777aec01$__63eb7bdc088460450160008573ffffffffffffffffffffffffffffffffffffffff1673ffffffffffffffffffffffffffffffffffffffff168152602001908152602001600020836040518363ffffffff1660e01b8152600401808381526020018281526020019250505060006040518083038186803b15801561059057600080fd5b505af41580156105a4573d6000803e3d6000fd5b50505050505050565b7f2a9e355a92978430eca9c1aa3a9ba590094bac282594bccf82de16b83046e2c360001b81565b7f7584d7d8701714da9c117f5bf30af73b0b88aca5338a84a21eb28de2fe0d93b860001b81565b7f05de9147d05477c0a5dc675aeea733157f5092f82add148cf39d579cafe3dc9860001b81565b7f969ea04b74d02bb4d9e6e8e57236e1b9ca31627139ae9f0e465249932e82450260001b81565b7fad16221efc80aaf1b7e69bd3ecb61ba5ffa539adf129c3b4ffff769c9b5bbc3360001b81565b7f97e6eb29f6a85471f7cc9b57f9e4c3deaf398cfc9798673160d7798baf0b13a460001b81565b7fd26d9834adf5a73309c4974bf654850bb699df8505e70d4cfde365c417b19dfc60001b81565b7f44b2657a0f8a90ed8e62f4c4cceca06eacaa9b4b25751ae1ebca9280a70abd6860001b81565b7f8fe9ded8d7c08f720cf0340699024f83522ea66b2bbfb8f557851cb9ee63b54c60001b81565b7fdb21f0c4accc4f2f5f1045353763a9ffe7091ceaf0fcceb5831858d96cf8463160001b81565b7f9dbc393ddc18fd27b1d9b1b129059925688d2f2d5818a5ec3ebb750b7c286ea660001b8156fea265627a7a72315820b0f312692fff92c08e75392f6fa50f29a76516c618aebbda819e12dfe150de3564736f6c63430005100032",
  "linkReferences": {
    "contracts/libraries/TellorTransfer.sol": {
      "TellorTransfer": [
        {
          "length": 20,
          "start": 1313
        }
      ]
    }
  },
  "deployedLinkReferences": {
    "contracts/libraries/TellorTransfer.sol": {
      "TellorTransfer": [
        {
          "length": 20,
          "start": 1275
        }
      ]
    }
  }
}