{
  "_format": "hh-sol-artifact-1",
  "contractName": "TellorTransfer",
  "sourceName": "contracts/libraries/TellorTransfer.sol",
  "abi": [
    {
      "anonymous": false,
      "inputs": [
        {
          "indexed": true,
          "internalType": "address",
          "name": "_owner",
          "type": "address"
        },
        {
          "indexed": true,
          "internalType": "address",
          "name": "_spender",
          "type": "address"
        },
        {
          "indexed": false,
          "internalType": "uint256",
          "name": "_value",
          "type": "uint256"
        }
      ],
      "name": "Approval",
      "type": "event"
    },
    {
      "anonymous": false,
      "inputs": [
        {
          "indexed": true,
          "internalType": "address",
          "name": "_from",
          "type": "address"
        },
        {
          "indexed": true,
          "internalType": "address",
          "name": "_to",
          "type": "address"
        },
        {
          "indexed": false,
          "internalType": "uint256",
          "name": "_value",
          "type": "uint256"
        }
      ],
      "name": "Transfer",
      "type": "event"
    },
    {
      "constant": true,
      "inputs": [],
      "name": "stakeAmount",
      "outputs": [
        {
          "internalType": "bytes32",
          "name": "",
          "type": "bytes32"
        }
      ],
      "payable": false,
      "stateMutability": "view",
      "type": "function"
    }
  ],
  "bytecode": "0x611310610026600b82828239805160001a60731461001957fe5b30600052607381538281f3fe73000000000000000000000000000000000000000030146080604052600436106100a85760003560e01c8063bf32006c11610070578063bf32006c14610286578063c7bb46ad14610308578063c84b96f51461038d578063ca5018991461040a578063eb7bdc08146104a7576100a8565b80633f48b1ff146100ad57806360c7dc4714610119578063850dcc321461013757806393b182b3146101b4578063acaab9e214610216575b600080fd5b610103600480360360608110156100c357600080fd5b8101908080359060200190929190803573ffffffffffffffffffffffffffffffffffffffff169060200190929190803590602001909291905050506104ec565b6040518082815260200191505060405180910390f35b6101216107d0565b6040518082815260200191505060405180910390f35b81801561014357600080fd5b5061019a6004803603606081101561015a57600080fd5b8101908080359060200190929190803573ffffffffffffffffffffffffffffffffffffffff169060200190929190803590602001909291905050506107f7565b604051808215151515815260200191505060405180910390f35b610200600480360360408110156101ca57600080fd5b8101908080359060200190929190803573ffffffffffffffffffffffffffffffffffffffff169060200190929190505050610a8d565b6040518082815260200191505060405180910390f35b61026c6004803603606081101561022c57600080fd5b8101908080359060200190929190803573ffffffffffffffffffffffffffffffffffffffff16906020019092919080359060200190929190505050610aa2565b604051808215151515815260200191505060405180910390f35b6102f26004803603606081101561029c57600080fd5b8101908080359060200190929190803573ffffffffffffffffffffffffffffffffffffffff169060200190929190803573ffffffffffffffffffffffffffffffffffffffff169060200190929190505050610bb4565b6040518082815260200191505060405180910390f35b81801561031457600080fd5b5061038b6004803603608081101561032b57600080fd5b8101908080359060200190929190803573ffffffffffffffffffffffffffffffffffffffff169060200190929190803573ffffffffffffffffffffffffffffffffffffffff16906020019092919080359060200190929190505050610c3e565b005b81801561039957600080fd5b506103f0600480360360608110156103b057600080fd5b8101908080359060200190929190803573ffffffffffffffffffffffffffffffffffffffff16906020019092919080359060200190929190505050610f31565b604051808215151515815260200191505060405180910390f35b81801561041657600080fd5b5061048d6004803603608081101561042d57600080fd5b8101908080359060200190929190803573ffffffffffffffffffffffffffffffffffffffff169060200190929190803573ffffffffffffffffffffffffffffffffffffffff16906020019092919080359060200190929190505050610f4a565b604051808215151515815260200191505060405180910390f35b8180156104b357600080fd5b506104ea600480360360408110156104ca57600080fd5b8101908080359060200190929190803590602001909291905050506110e4565b005b6000808460450160008573ffffffffffffffffffffffffffffffffffffffff1673ffffffffffffffffffffffffffffffffffffffff168152602001908152602001600020905060008180549050148061058c5750828160008154811061054e57fe5b9060005260206000200160000160009054906101000a90046fffffffffffffffffffffffffffffffff166fffffffffffffffffffffffffffffffff16115b1561059b5760009150506107c9565b806001828054905003815481106105ae57fe5b9060005260206000200160000160009054906101000a90046fffffffffffffffffffffffffffffffff166fffffffffffffffffffffffffffffffff168310610647578060018280549050038154811061060357fe5b9060005260206000200160000160109054906101000a90046fffffffffffffffffffffffffffffffff166fffffffffffffffffffffffffffffffff169150506107c9565b60008090506000600283805490500390505b8181111561077b57600060026001848401018161067257fe5b0490508584828154811061068257fe5b9060005260206000200160000160009054906101000a90046fffffffffffffffffffffffffffffffff166fffffffffffffffffffffffffffffffff161415610717578381815481106106d057fe5b9060005260206000200160000160109054906101000a90046fffffffffffffffffffffffffffffffff166fffffffffffffffffffffffffffffffff169450505050506107c9565b8584828154811061072457fe5b9060005260206000200160000160009054906101000a90046fffffffffffffffffffffffffffffffff166fffffffffffffffffffffffffffffffff16101561076e57809250610775565b6001810391505b50610659565b82828154811061078757fe5b9060005260206000200160000160109054906101000a90046fffffffffffffffffffffffffffffffff166fffffffffffffffffffffffffffffffff1693505050505b9392505050565b7f7be108969d31a3f0b261465c71f2b0ba9301cd914d55d9091c3b36a49d4d41b260001b81565b60008073ffffffffffffffffffffffffffffffffffffffff168373ffffffffffffffffffffffffffffffffffffffff16141561089b576040517f08c379a00000000000000000000000000000000000000000000000000000000081526004018080602001828103825260148152602001807f5370656e64657220697320302d6164647265737300000000000000000000000081525060200191505060405180910390fd5b60008460460160003373ffffffffffffffffffffffffffffffffffffffff1673ffffffffffffffffffffffffffffffffffffffff16815260200190815260200160002060008573ffffffffffffffffffffffffffffffffffffffff1673ffffffffffffffffffffffffffffffffffffffff1681526020019081526020016000205414806109285750600082145b61099a576040517f08c379a000000000000000000000000000000000000000000000000000000000815260040180806020018281038252601b8152602001807f5370656e64657220697320616c726561647920617070726f766564000000000081525060200191505060405180910390fd5b818460460160003373ffffffffffffffffffffffffffffffffffffffff1673ffffffffffffffffffffffffffffffffffffffff16815260200190815260200160002060008573ffffffffffffffffffffffffffffffffffffffff1673ffffffffffffffffffffffffffffffffffffffff168152602001908152602001600020819055508273ffffffffffffffffffffffffffffffffffffffff163373ffffffffffffffffffffffffffffffffffffffff167f8c5be1e5ebec7d5bd14f71427d1e84f3dd0314c0f7b2291e5b200ac8c7c3b925846040518082815260200191505060405180910390a3600190509392505050565b6000610a9a8383436104ec565b905092915050565b6000808460470160008573ffffffffffffffffffffffffffffffffffffffff1673ffffffffffffffffffffffffffffffffffffffff1681526020019081526020016000206000015414158015610b3c575060058460470160008573ffffffffffffffffffffffffffffffffffffffff1673ffffffffffffffffffffffffffffffffffffffff16815260200190815260200160002060000154105b15610b9d57818460400160007f7be108969d31a3f0b261465c71f2b0ba9301cd914d55d9091c3b36a49d4d41b260001b815260200190815260200160002054610b858686610a8d565b0310610b945760019050610bad565b60009050610bad565b81610ba88585610a8d565b101590505b9392505050565b60008360460160008473ffffffffffffffffffffffffffffffffffffffff1673ffffffffffffffffffffffffffffffffffffffff16815260200190815260200160002060008373ffffffffffffffffffffffffffffffffffffffff1673ffffffffffffffffffffffffffffffffffffffff1681526020019081526020016000205490509392505050565b6000811415610c98576040517f08c379a00000000000000000000000000000000000000000000000000000000081526004018080602001828103825260218152602001806112bb6021913960400191505060405180910390fd5b600073ffffffffffffffffffffffffffffffffffffffff168273ffffffffffffffffffffffffffffffffffffffff161415610d3b576040517f08c379a00000000000000000000000000000000000000000000000000000000081526004018080602001828103825260158152602001807f526563656976657220697320302061646472657373000000000000000000000081525060200191505060405180910390fd5b610d46848483610aa2565b610d9b576040517f08c379a00000000000000000000000000000000000000000000000000000000081526004018080602001828103825260278152602001806112946027913960400191505060405180910390fd5b6000610da78585610a8d565b9050610df58560450160008673ffffffffffffffffffffffffffffffffffffffff1673ffffffffffffffffffffffffffffffffffffffff1681526020019081526020016000208383036110e4565b610dff8584610a8d565b9050808282011015610e79576040517f08c379a00000000000000000000000000000000000000000000000000000000081526004018080602001828103825260118152602001807f4f766572666c6f772068617070656e656400000000000000000000000000000081525060200191505060405180910390fd5b610ec58560450160008573ffffffffffffffffffffffffffffffffffffffff1673ffffffffffffffffffffffffffffffffffffffff1681526020019081526020016000208383016110e4565b8273ffffffffffffffffffffffffffffffffffffffff168473ffffffffffffffffffffffffffffffffffffffff167fddf252ad1be2c89b69c2b068fc378daa952ba7f163c4a11628f55a4df523b3ef846040518082815260200191505060405180910390a35050505050565b6000610f3f84338585610c3e565b600190509392505050565b6000818560460160008673ffffffffffffffffffffffffffffffffffffffff1673ffffffffffffffffffffffffffffffffffffffff16815260200190815260200160002060003373ffffffffffffffffffffffffffffffffffffffff1673ffffffffffffffffffffffffffffffffffffffff168152602001908152602001600020541015611040576040517f08c379a00000000000000000000000000000000000000000000000000000000081526004018080602001828103825260128152602001807f416c6c6f77616e63652069732077726f6e67000000000000000000000000000081525060200191505060405180910390fd5b818560460160008673ffffffffffffffffffffffffffffffffffffffff1673ffffffffffffffffffffffffffffffffffffffff16815260200190815260200160002060003373ffffffffffffffffffffffffffffffffffffffff1673ffffffffffffffffffffffffffffffffffffffff168152602001908152602001600020600082825403925050819055506110d885858585610c3e565b60019050949350505050565b6000828054905014806111455750438260018480549050038154811061110657fe5b9060005260206000200160000160009054906101000a90046fffffffffffffffffffffffffffffffff166fffffffffffffffffffffffffffffffff1614155b1561123157816040518060400160405280436fffffffffffffffffffffffffffffffff168152602001836fffffffffffffffffffffffffffffffff1681525090806001815401808255809150509060018203906000526020600020016000909192909190915060008201518160000160006101000a8154816fffffffffffffffffffffffffffffffff02191690836fffffffffffffffffffffffffffffffff16021790555060208201518160000160106101000a8154816fffffffffffffffffffffffffffffffff02191690836fffffffffffffffffffffffffffffffff16021790555050505061128f565b60008260018480549050038154811061124657fe5b906000526020600020019050818160000160106101000a8154816fffffffffffffffffffffffffffffffff02191690836fffffffffffffffffffffffffffffffff160217905550505b505056fe53686f756c6420686176652073756666696369656e742062616c616e636520746f207472616465547269656420746f2073656e64206e6f6e2d706f73697469766520616d6f756e74a265627a7a723158205b736196b5c21d570f4fb17591d03e5f08cc1d638b6cbe6cd6a94cecf53c2ff464736f6c63430005100032",
  "linkReferences": {},
  "deployedLinkReferences": {}
}