{
  "_format": "hh-sol-artifact-1",
  "contractName": "v2Tellor",
  "sourceName": "tellorlegacy/contracts/v2/v2Tellor.sol",
  "abi": [
    {
      "constant": false,
      "inputs": [
        {
          "internalType": "uint256",
          "name": "_requestId",
          "type": "uint256"
        },
        {
          "internalType": "uint256",
          "name": "_tip",
          "type": "uint256"
        }
      ],
      "name": "addTip",
      "outputs": [],
      "payable": false,
      "stateMutability": "nonpayable",
      "type": "function"
    },
    {
      "constant": false,
      "inputs": [
        {
          "internalType": "address",
          "name": "_spender",
          "type": "address"
        },
        {
          "internalType": "uint256",
          "name": "_amount",
          "type": "uint256"
        }
      ],
      "name": "approve",
      "outputs": [
        {
          "internalType": "bool",
          "name": "",
          "type": "bool"
        }
      ],
      "payable": false,
      "stateMutability": "nonpayable",
      "type": "function"
    },
    {
      "constant": false,
      "inputs": [
        {
          "internalType": "uint256",
          "name": "_requestId",
          "type": "uint256"
        },
        {
          "internalType": "uint256",
          "name": "_timestamp",
          "type": "uint256"
        },
        {
          "internalType": "uint256",
          "name": "_minerIndex",
          "type": "uint256"
        }
      ],
      "name": "beginDispute",
      "outputs": [],
      "payable": false,
      "stateMutability": "nonpayable",
      "type": "function"
    },
    {
      "constant": false,
      "inputs": [],
      "name": "claimOwnership",
      "outputs": [],
      "payable": false,
      "stateMutability": "nonpayable",
      "type": "function"
    },
    {
      "constant": true,
      "inputs": [],
      "name": "decimals",
      "outputs": [
        {
          "internalType": "uint8",
          "name": "",
          "type": "uint8"
        }
      ],
      "payable": false,
      "stateMutability": "pure",
      "type": "function"
    },
    {
      "constant": false,
      "inputs": [],
      "name": "depositStake",
      "outputs": [],
      "payable": false,
      "stateMutability": "nonpayable",
      "type": "function"
    },
    {
      "constant": true,
      "inputs": [],
      "name": "getNewCurrentVariables",
      "outputs": [
        {
          "internalType": "bytes32",
          "name": "_challenge",
          "type": "bytes32"
        },
        {
          "internalType": "uint256[5]",
          "name": "_requestIds",
          "type": "uint256[5]"
        },
        {
          "internalType": "uint256",
          "name": "_difficutly",
          "type": "uint256"
        },
        {
          "internalType": "uint256",
          "name": "_tip",
          "type": "uint256"
        }
      ],
      "payable": false,
      "stateMutability": "view",
      "type": "function"
    },
    {
      "constant": true,
      "inputs": [],
      "name": "getNewVariablesOnDeck",
      "outputs": [
        {
          "internalType": "uint256[5]",
          "name": "idsOnDeck",
          "type": "uint256[5]"
        },
        {
          "internalType": "uint256[5]",
          "name": "tipsOnDeck",
          "type": "uint256[5]"
        }
      ],
      "payable": false,
      "stateMutability": "view",
      "type": "function"
    },
    {
      "constant": true,
      "inputs": [],
      "name": "getTopRequestIDs",
      "outputs": [
        {
          "internalType": "uint256[5]",
          "name": "_requestIds",
          "type": "uint256[5]"
        }
      ],
      "payable": false,
      "stateMutability": "view",
      "type": "function"
    },
    {
      "constant": true,
      "inputs": [],
      "name": "name",
      "outputs": [
        {
          "internalType": "string",
          "name": "",
          "type": "string"
        }
      ],
      "payable": false,
      "stateMutability": "pure",
      "type": "function"
    },
    {
      "constant": false,
      "inputs": [
        {
          "internalType": "address",
          "name": "_propNewTellorAddress",
          "type": "address"
        }
      ],
      "name": "proposeFork",
      "outputs": [],
      "payable": false,
      "stateMutability": "nonpayable",
      "type": "function"
    },
    {
      "constant": false,
      "inputs": [
        {
          "internalType": "address payable",
          "name": "_pendingOwner",
          "type": "address"
        }
      ],
      "name": "proposeOwnership",
      "outputs": [],
      "payable": false,
      "stateMutability": "nonpayable",
      "type": "function"
    },
    {
      "constant": false,
      "inputs": [],
      "name": "requestStakingWithdraw",
      "outputs": [],
      "payable": false,
      "stateMutability": "nonpayable",
      "type": "function"
    },
    {
      "constant": false,
      "inputs": [
        {
          "internalType": "string",
          "name": "_nonce",
          "type": "string"
        },
        {
          "internalType": "uint256[5]",
          "name": "_requestId",
          "type": "uint256[5]"
        },
        {
          "internalType": "uint256[5]",
          "name": "_value",
          "type": "uint256[5]"
        }
      ],
      "name": "submitMiningSolution",
      "outputs": [],
      "payable": false,
      "stateMutability": "nonpayable",
      "type": "function"
    },
    {
      "constant": false,
      "inputs": [
        {
          "internalType": "string",
          "name": "_nonce",
          "type": "string"
        },
        {
          "internalType": "uint256",
          "name": "_requestId",
          "type": "uint256"
        },
        {
          "internalType": "uint256",
          "name": "_value",
          "type": "uint256"
        }
      ],
      "name": "submitMiningSolution",
      "outputs": [],
      "payable": false,
      "stateMutability": "nonpayable",
      "type": "function"
    },
    {
      "constant": true,
      "inputs": [],
      "name": "symbol",
      "outputs": [
        {
          "internalType": "string",
          "name": "",
          "type": "string"
        }
      ],
      "payable": false,
      "stateMutability": "pure",
      "type": "function"
    },
    {
      "constant": false,
      "inputs": [
        {
          "internalType": "uint256",
          "name": "_disputeId",
          "type": "uint256"
        }
      ],
      "name": "tallyVotes",
      "outputs": [],
      "payable": false,
      "stateMutability": "nonpayable",
      "type": "function"
    },
    {
      "constant": false,
      "inputs": [
        {
          "internalType": "address",
          "name": "_to",
          "type": "address"
        },
        {
          "internalType": "uint256",
          "name": "_amount",
          "type": "uint256"
        }
      ],
      "name": "transfer",
      "outputs": [
        {
          "internalType": "bool",
          "name": "",
          "type": "bool"
        }
      ],
      "payable": false,
      "stateMutability": "nonpayable",
      "type": "function"
    },
    {
      "constant": false,
      "inputs": [
        {
          "internalType": "address",
          "name": "_from",
          "type": "address"
        },
        {
          "internalType": "address",
          "name": "_to",
          "type": "address"
        },
        {
          "internalType": "uint256",
          "name": "_amount",
          "type": "uint256"
        }
      ],
      "name": "transferFrom",
      "outputs": [
        {
          "internalType": "bool",
          "name": "",
          "type": "bool"
        }
      ],
      "payable": false,
      "stateMutability": "nonpayable",
      "type": "function"
    },
    {
      "constant": false,
      "inputs": [
        {
          "internalType": "uint256",
          "name": "_disputeId",
          "type": "uint256"
        }
      ],
      "name": "unlockDisputeFee",
      "outputs": [],
      "payable": false,
      "stateMutability": "nonpayable",
      "type": "function"
    },
    {
      "constant": false,
      "inputs": [
        {
          "internalType": "uint256",
          "name": "_disputeId",
          "type": "uint256"
        }
      ],
      "name": "updateTellor",
      "outputs": [],
      "payable": false,
      "stateMutability": "nonpayable",
      "type": "function"
    },
    {
      "constant": false,
      "inputs": [
        {
          "internalType": "uint256",
          "name": "_disputeId",
          "type": "uint256"
        },
        {
          "internalType": "bool",
          "name": "_supportsDispute",
          "type": "bool"
        }
      ],
      "name": "vote",
      "outputs": [],
      "payable": false,
      "stateMutability": "nonpayable",
      "type": "function"
    },
    {
      "constant": false,
      "inputs": [],
      "name": "withdrawStake",
      "outputs": [],
      "payable": false,
      "stateMutability": "nonpayable",
      "type": "function"
    }
  ],
  "bytecode": "0x608060405234801561001057600080fd5b506117ae806100206000396000f3fe608060405234801561001057600080fd5b506004361061014d5760003560e01c806368c180d5116100c35780639a7077ab1161007c5780639a7077ab1461065a578063a9059cbb146106cf578063bed9d86114610735578063c9d27afe1461073f578063f458ab9814610779578063fe1cd15d146107a75761014d565b806368c180d51461045e578063710bf322146104eb578063752d49a11461052f5780638581af191461056757806395d89b41146105a95780639a01ca131461062c5761014d565b806328449c3a1161011557806328449c3a1461030f578063313ce567146103195780634049f1981461033d5780634350283e146103985780634d318b0e146104265780634e71e0c8146104545761014d565b806306fdde0314610152578063095ea7b3146101d55780630d2d76a21461023b57806323b872dd1461024557806326b7d9f6146102cb575b600080fd5b61015a6107ed565b6040518080602001828103825283818151815260200191508051906020019080838360005b8381101561019a57808201518184015260208101905061017f565b50505050905090810190601f1680156101c75780820380516001836020036101000a031916815260200191505b509250505060405180910390f35b610221600480360360408110156101eb57600080fd5b81019080803573ffffffffffffffffffffffffffffffffffffffff1690602001909291908035906020019092919050505061082a565b604051808215151515815260200191505060405180910390f35b6102436108fc565b005b6102b16004803603606081101561025b57600080fd5b81019080803573ffffffffffffffffffffffffffffffffffffffff169060200190929190803573ffffffffffffffffffffffffffffffffffffffff16906020019092919080359060200190929190505050610968565b604051808215151515815260200191505060405180910390f35b61030d600480360360208110156102e157600080fd5b81019080803573ffffffffffffffffffffffffffffffffffffffff169060200190929190505050610a6f565b005b610317610b10565b005b610321610b7c565b604051808260ff1660ff16815260200191505060405180910390f35b610345610b85565b6040518085815260200184600560200280838360005b8381101561037657808201518184015260208101905061035b565b5050505090500183815260200182815260200194505050505060405180910390f35b61042460048036036101608110156103af57600080fd5b81019080803590602001906401000000008111156103cc57600080fd5b8201836020820111156103de57600080fd5b8035906020019184600183028401116401000000008311171561040057600080fd5b90919293919293908060a0019091929192908060a001909192919290505050610baa565b005b6104526004803603602081101561043c57600080fd5b8101908080359060200190929190505050610c94565b005b61045c610d09565b005b6104e96004803603606081101561047457600080fd5b810190808035906020019064010000000081111561049157600080fd5b8201836020820111156104a357600080fd5b803590602001918460018302840111640100000000831117156104c557600080fd5b90919293919293908035906020019092919080359060200190929190505050610d75565b005b61052d6004803603602081101561050157600080fd5b81019080803573ffffffffffffffffffffffffffffffffffffffff169060200190929190505050610e29565b005b6105656004803603604081101561054557600080fd5b810190808035906020019092919080359060200190929190505050610eca565b005b6105a76004803603606081101561057d57600080fd5b81019080803590602001909291908035906020019092919080359060200190929190505050610f48565b005b6105b1610fcf565b6040518080602001828103825283818151815260200191508051906020019080838360005b838110156105f15780820151818401526020810190506105d6565b50505050905090810190601f16801561061e5780820380516001836020036101000a031916815260200191505b509250505060405180910390f35b6106586004803603602081101561064257600080fd5b810190808035906020019092919050505061100c565b005b610662611081565b6040518083600560200280838360005b8381101561068d578082015181840152602081019050610672565b5050505090500182600560200280838360005b838110156106bb5780820151818401526020810190506106a0565b505050509050019250505060405180910390f35b61071b600480360360408110156106e557600080fd5b81019080803573ffffffffffffffffffffffffffffffffffffffff169060200190929190803590602001909291905050506110a3565b604051808215151515815260200191505060405180910390f35b61073d611175565b005b6107776004803603604081101561075557600080fd5b81019080803590602001909291908035151590602001909291905050506111e1565b005b6107a56004803603602081101561078f57600080fd5b8101908080359060200190929190505050611263565b005b6107af6112d8565b6040518082600560200280838360005b838110156107da5780820151818401526020810190506107bf565b5050505090500191505060405180910390f35b60606040518060400160405280600f81526020017f54656c6c6f722054726962757465730000000000000000000000000000000000815250905090565b60008073__$21cbbe09506a7b0911ccc669b78a3aa450$__63052bc340909185856040518463ffffffff1660e01b8152600401808481526020018373ffffffffffffffffffffffffffffffffffffffff1673ffffffffffffffffffffffffffffffffffffffff168152602001828152602001935050505060206040518083038186803b1580156108b957600080fd5b505af41580156108cd573d6000803e3d6000fd5b505050506040513d60208110156108e357600080fd5b8101908080519060200190929190505050905092915050565b600073__$f0fc9b6d4c39a1e0215b197f8b52f7d382$__6318b2a9eb90916040518263ffffffff1660e01b81526004018082815260200191505060006040518083038186803b15801561094e57600080fd5b505af4158015610962573d6000803e3d6000fd5b50505050565b60008073__$21cbbe09506a7b0911ccc669b78a3aa450$__63dc84521e90918686866040518563ffffffff1660e01b8152600401808581526020018473ffffffffffffffffffffffffffffffffffffffff1673ffffffffffffffffffffffffffffffffffffffff1681526020018373ffffffffffffffffffffffffffffffffffffffff1673ffffffffffffffffffffffffffffffffffffffff16815260200182815260200194505050505060206040518083038186803b158015610a2b57600080fd5b505af4158015610a3f573d6000803e3d6000fd5b505050506040513d6020811015610a5557600080fd5b810190808051906020019092919050505090509392505050565b600073__$5ec2729c035c3d8793f918ccde1502885d$__636677dc919091836040518363ffffffff1660e01b8152600401808381526020018273ffffffffffffffffffffffffffffffffffffffff1673ffffffffffffffffffffffffffffffffffffffff1681526020019250505060006040518083038186803b158015610af557600080fd5b505af4158015610b09573d6000803e3d6000fd5b5050505050565b600073__$f0fc9b6d4c39a1e0215b197f8b52f7d382$__6313a08a9e90916040518263ffffffff1660e01b81526004018082815260200191505060006040518083038186803b158015610b6257600080fd5b505af4158015610b76573d6000803e3d6000fd5b50505050565b60006012905090565b6000610b8f611757565b600080610b9c60006112ef565b935093509350935090919293565b600073__$a30b1e6cb568ce6f55295d5f386935b924$__63fce5b00f9091868686866040518663ffffffff1660e01b8152600401808681526020018060200184600560200280828437600081840152601f19601f82011690508083019250505083600560200280828437600081840152601f19601f8201169050808301925050508281038252868682818152602001925080828437600081840152601f19601f820116905080830192505050965050505050505060006040518083038186803b158015610c7657600080fd5b505af4158015610c8a573d6000803e3d6000fd5b5050505050505050565b600073__$5ec2729c035c3d8793f918ccde1502885d$__6333f7b1009091836040518363ffffffff1660e01b8152600401808381526020018281526020019250505060006040518083038186803b158015610cee57600080fd5b505af4158015610d02573d6000803e3d6000fd5b5050505050565b600073__$a30b1e6cb568ce6f55295d5f386935b924$__6376bb5a7990916040518263ffffffff1660e01b81526004018082815260200191505060006040518083038186803b158015610d5b57600080fd5b505af4158015610d6f573d6000803e3d6000fd5b50505050565b600073__$a30b1e6cb568ce6f55295d5f386935b924$__63c108687c9091868686866040518663ffffffff1660e01b815260040180868152602001806020018481526020018381526020018281038252868682818152602001925080828437600081840152601f19601f820116905080830192505050965050505050505060006040518083038186803b158015610e0b57600080fd5b505af4158015610e1f573d6000803e3d6000fd5b5050505050505050565b600073__$a30b1e6cb568ce6f55295d5f386935b924$__633c5ff1a89091836040518363ffffffff1660e01b8152600401808381526020018273ffffffffffffffffffffffffffffffffffffffff1673ffffffffffffffffffffffffffffffffffffffff1681526020019250505060006040518083038186803b158015610eaf57600080fd5b505af4158015610ec3573d6000803e3d6000fd5b5050505050565b600073__$a30b1e6cb568ce6f55295d5f386935b924$__63b2611916909184846040518463ffffffff1660e01b815260040180848152602001838152602001828152602001935050505060006040518083038186803b158015610f2c57600080fd5b505af4158015610f40573d6000803e3d6000fd5b505050505050565b600073__$5ec2729c035c3d8793f918ccde1502885d$__63ac30382c90918585856040518563ffffffff1660e01b81526004018085815260200184815260200183815260200182815260200194505050505060006040518083038186803b158015610fb257600080fd5b505af4158015610fc6573d6000803e3d6000fd5b50505050505050565b60606040518060400160405280600381526020017f5452420000000000000000000000000000000000000000000000000000000000815250905090565b600073__$5ec2729c035c3d8793f918ccde1502885d$__630fbe95da9091836040518363ffffffff1660e01b8152600401808381526020018281526020019250505060006040518083038186803b15801561106657600080fd5b505af415801561107a573d6000803e3d6000fd5b5050505050565b611089611757565b611091611757565b61109b60006113f0565b915091509091565b60008073__$21cbbe09506a7b0911ccc669b78a3aa450$__6317fe051c909185856040518463ffffffff1660e01b8152600401808481526020018373ffffffffffffffffffffffffffffffffffffffff1673ffffffffffffffffffffffffffffffffffffffff168152602001828152602001935050505060206040518083038186803b15801561113257600080fd5b505af4158015611146573d6000803e3d6000fd5b505050506040513d602081101561115c57600080fd5b8101908080519060200190929190505050905092915050565b600073__$f0fc9b6d4c39a1e0215b197f8b52f7d382$__6337a31e8490916040518263ffffffff1660e01b81526004018082815260200191505060006040518083038186803b1580156111c757600080fd5b505af41580156111db573d6000803e3d6000fd5b50505050565b600073__$5ec2729c035c3d8793f918ccde1502885d$__63514fe794909184846040518463ffffffff1660e01b81526004018084815260200183815260200182151515158152602001935050505060006040518083038186803b15801561124757600080fd5b505af415801561125b573d6000803e3d6000fd5b505050505050565b600073__$5ec2729c035c3d8793f918ccde1502885d$__630d0459899091836040518363ffffffff1660e01b8152600401808381526020018281526020019250505060006040518083038186803b1580156112bd57600080fd5b505af41580156112d1573d6000803e3d6000fd5b5050505050565b6112e0611757565b6112ea60006114b1565b905090565b60006112f9611757565b60008060008090505b60058110156113445785603501816005811061131a57fe5b600202016000015484826005811061132e57fe5b6020020181815250508080600101915050611302565b5084600001548386604001600060405180807f646966666963756c747900000000000000000000000000000000000000000000815250600a019050604051809103902081526020019081526020016000205487604001600060405180807f63757272656e74546f74616c54697073000000000000000000000000000000008152506010019050604051809103902081526020019081526020016000205493509350935093509193509193565b6113f8611757565b611400611757565b611409836114b1565b915060008090505b60058110156114ab5783604801600084836005811061142c57fe5b60200201518152602001908152602001600020600401600060405180807f746f74616c5469700000000000000000000000000000000000000000000000008152506008019050604051809103902081526020019081526020016000205482826005811061149557fe5b6020020181815250508080600101915050611411565b50915091565b6114b9611757565b6114c1611757565b6114c9611757565b61151184600101603380602002604051908101604052809291908260338015611507576020028201915b8154815260200190600101908083116114f3575b50505050506115c5565b809250819350505060008090505b60058110156115bd57600083826005811061153657fe5b6020020151146115805784604301600083836005811061155257fe5b602002015181526020019081526020016000205484826005811061157257fe5b6020020181815250506115b0565b84603501816004036005811061159257fe5b60020201600001548482600581106115a657fe5b6020020181815250505b808060010191505061151f565b505050919050565b6115cd611757565b6115d5611757565b6000836001603381106115e457fe5b60200201519050600080905060008090505b600581101561167d5785600182016033811061160e57fe5b602002015185826005811061161f57fe5b6020020181815250506001810184826005811061163857fe5b6020020181815250508285826005811061164e57fe5b602002015110156116705784816005811061166557fe5b602002015192508091505b80806001019150506115f6565b506000600690505b603381101561174f578286826033811061169b57fe5b60200201511115611742578581603381106116b257fe5b60200201518583600581106116c357fe5b602002018181525050808483600581106116d957fe5b6020020181815250508581603381106116ee57fe5b6020020151925060008090505b6005811015611740578386826005811061171157fe5b602002015110156117335785816005811061172857fe5b602002015193508092505b80806001019150506116fb565b505b8080600101915050611685565b505050915091565b6040518060a0016040528060059060208202803883398082019150509050509056fea265627a7a7231582094c8ae7a69a9804c4addf1684264be93de3045707471ba676bb007efa6174a1364736f6c63430005100032",
  "linkReferences": {
    "tellorlegacy/contracts/v2/libraries/v2TellorDispute.sol": {
      "v2TellorDispute": [
        {
          "length": 20,
          "start": 2707
        },
        {
          "length": 20,
          "start": 3256
        },
        {
          "length": 20,
          "start": 3948
        },
        {
          "length": 20,
          "start": 4144
        },
        {
          "length": 20,
          "start": 4613
        },
        {
          "length": 20,
          "start": 4743
        }
      ]
    },
    "tellorlegacy/contracts/v2/libraries/v2TellorLibrary.sol": {
      "v2TellorLibrary": [
        {
          "length": 20,
          "start": 3022
        },
        {
          "length": 20,
          "start": 3373
        },
        {
          "length": 20,
          "start": 3481
        },
        {
          "length": 20,
          "start": 3661
        },
        {
          "length": 20,
          "start": 3822
        }
      ]
    },
    "tellorlegacy/contracts/v2/libraries/v2TellorStake.sol": {
      "v2TellorStake": [
        {
          "length": 20,
          "start": 2336
        },
        {
          "length": 20,
          "start": 2868
        },
        {
          "length": 20,
          "start": 4505
        }
      ]
    },
    "tellorlegacy/contracts/v2/libraries/v2TellorTransfer.sol": {
      "v2TellorTransfer": [
        {
          "length": 20,
          "start": 2127
        },
        {
          "length": 20,
          "start": 2445
        },
        {
          "length": 20,
          "start": 4296
        }
      ]
    }
  },
  "deployedLinkReferences": {
    "tellorlegacy/contracts/v2/libraries/v2TellorDispute.sol": {
      "v2TellorDispute": [
        {
          "length": 20,
          "start": 2675
        },
        {
          "length": 20,
          "start": 3224
        },
        {
          "length": 20,
          "start": 3916
        },
        {
          "length": 20,
          "start": 4112
        },
        {
          "length": 20,
          "start": 4581
        },
        {
          "length": 20,
          "start": 4711
        }
      ]
    },
    "tellorlegacy/contracts/v2/libraries/v2TellorLibrary.sol": {
      "v2TellorLibrary": [
        {
          "length": 20,
          "start": 2990
        },
        {
          "length": 20,
          "start": 3341
        },
        {
          "length": 20,
          "start": 3449
        },
        {
          "length": 20,
          "start": 3629
        },
        {
          "length": 20,
          "start": 3790
        }
      ]
    },
    "tellorlegacy/contracts/v2/libraries/v2TellorStake.sol": {
      "v2TellorStake": [
        {
          "length": 20,
          "start": 2304
        },
        {
          "length": 20,
          "start": 2836
        },
        {
          "length": 20,
          "start": 4473
        }
      ]
    },
    "tellorlegacy/contracts/v2/libraries/v2TellorTransfer.sol": {
      "v2TellorTransfer": [
        {
          "length": 20,
          "start": 2095
        },
        {
          "length": 20,
          "start": 2413
        },
        {
          "length": 20,
          "start": 4264
        }
      ]
    }
  }
}