{
  "_format": "hh-sol-artifact-1",
  "contractName": "TellorLibrary",
  "sourceName": "contracts/libraries/TellorLibrary.sol",
  "abi": [
    {
      "anonymous": false,
      "inputs": [
        {
          "indexed": true,
          "internalType": "bytes32",
          "name": "_currentChallenge",
          "type": "bytes32"
        },
        {
          "indexed": false,
          "internalType": "uint256[5]",
          "name": "_currentRequestId",
          "type": "uint256[5]"
        },
        {
          "indexed": false,
          "internalType": "uint256",
          "name": "_difficulty",
          "type": "uint256"
        },
        {
          "indexed": false,
          "internalType": "uint256",
          "name": "_totalTips",
          "type": "uint256"
        }
      ],
      "name": "NewChallenge",
      "type": "event"
    },
    {
      "anonymous": false,
      "inputs": [
        {
          "indexed": false,
          "internalType": "uint256[5]",
          "name": "_requestId",
          "type": "uint256[5]"
        },
        {
          "indexed": false,
          "internalType": "uint256",
          "name": "_time",
          "type": "uint256"
        },
        {
          "indexed": false,
          "internalType": "uint256[5]",
          "name": "_value",
          "type": "uint256[5]"
        },
        {
          "indexed": false,
          "internalType": "uint256",
          "name": "_totalTips",
          "type": "uint256"
        },
        {
          "indexed": true,
          "internalType": "bytes32",
          "name": "_currentChallenge",
          "type": "bytes32"
        }
      ],
      "name": "NewValue",
      "type": "event"
    },
    {
      "anonymous": false,
      "inputs": [
        {
          "indexed": true,
          "internalType": "address",
          "name": "_miner",
          "type": "address"
        },
        {
          "indexed": false,
          "internalType": "string",
          "name": "_nonce",
          "type": "string"
        },
        {
          "indexed": false,
          "internalType": "uint256[5]",
          "name": "_requestId",
          "type": "uint256[5]"
        },
        {
          "indexed": false,
          "internalType": "uint256[5]",
          "name": "_value",
          "type": "uint256[5]"
        },
        {
          "indexed": true,
          "internalType": "bytes32",
          "name": "_currentChallenge",
          "type": "bytes32"
        }
      ],
      "name": "NonceSubmitted",
      "type": "event"
    },
    {
      "anonymous": false,
      "inputs": [
        {
          "indexed": true,
          "internalType": "address",
          "name": "_previousOwner",
          "type": "address"
        },
        {
          "indexed": true,
          "internalType": "address",
          "name": "_newOwner",
          "type": "address"
        }
      ],
      "name": "OwnershipProposed",
      "type": "event"
    },
    {
      "anonymous": false,
      "inputs": [
        {
          "indexed": true,
          "internalType": "address",
          "name": "_previousOwner",
          "type": "address"
        },
        {
          "indexed": true,
          "internalType": "address",
          "name": "_newOwner",
          "type": "address"
        }
      ],
      "name": "OwnershipTransferred",
      "type": "event"
    },
    {
      "anonymous": false,
      "inputs": [
        {
          "indexed": true,
          "internalType": "address",
          "name": "_sender",
          "type": "address"
        },
        {
          "indexed": true,
          "internalType": "uint256",
          "name": "_requestId",
          "type": "uint256"
        },
        {
          "indexed": false,
          "internalType": "uint256",
          "name": "_tip",
          "type": "uint256"
        },
        {
          "indexed": false,
          "internalType": "uint256",
          "name": "_totalTips",
          "type": "uint256"
        }
      ],
      "name": "TipAdded",
      "type": "event"
    },
    {
      "constant": true,
      "inputs": [],
      "name": "_owner",
      "outputs": [
        {
          "internalType": "bytes32",
          "name": "",
          "type": "bytes32"
        }
      ],
      "payable": false,
      "stateMutability": "view",
      "type": "function"
    },
    {
      "constant": true,
      "inputs": [],
      "name": "_tBlock",
      "outputs": [
        {
          "internalType": "bytes32",
          "name": "",
          "type": "bytes32"
        }
      ],
      "payable": false,
      "stateMutability": "view",
      "type": "function"
    },
    {
      "constant": true,
      "inputs": [],
      "name": "currentRequestId",
      "outputs": [
        {
          "internalType": "bytes32",
          "name": "",
          "type": "bytes32"
        }
      ],
      "payable": false,
      "stateMutability": "view",
      "type": "function"
    },
    {
      "constant": true,
      "inputs": [],
      "name": "currentReward",
      "outputs": [
        {
          "internalType": "bytes32",
          "name": "",
          "type": "bytes32"
        }
      ],
      "payable": false,
      "stateMutability": "view",
      "type": "function"
    },
    {
      "constant": true,
      "inputs": [],
      "name": "currentTotalTips",
      "outputs": [
        {
          "internalType": "bytes32",
          "name": "",
          "type": "bytes32"
        }
      ],
      "payable": false,
      "stateMutability": "view",
      "type": "function"
    },
    {
      "constant": true,
      "inputs": [],
      "name": "devShare",
      "outputs": [
        {
          "internalType": "bytes32",
          "name": "",
          "type": "bytes32"
        }
      ],
      "payable": false,
      "stateMutability": "view",
      "type": "function"
    },
    {
      "constant": true,
      "inputs": [],
      "name": "difficulty",
      "outputs": [
        {
          "internalType": "bytes32",
          "name": "",
          "type": "bytes32"
        }
      ],
      "payable": false,
      "stateMutability": "view",
      "type": "function"
    },
    {
      "constant": true,
      "inputs": [],
      "name": "pending_owner",
      "outputs": [
        {
          "internalType": "bytes32",
          "name": "",
          "type": "bytes32"
        }
      ],
      "payable": false,
      "stateMutability": "view",
      "type": "function"
    },
    {
      "constant": true,
      "inputs": [],
      "name": "requestCount",
      "outputs": [
        {
          "internalType": "bytes32",
          "name": "",
          "type": "bytes32"
        }
      ],
      "payable": false,
      "stateMutability": "view",
      "type": "function"
    },
    {
      "constant": true,
      "inputs": [],
      "name": "requestQPosition",
      "outputs": [
        {
          "internalType": "bytes32",
          "name": "",
          "type": "bytes32"
        }
      ],
      "payable": false,
      "stateMutability": "view",
      "type": "function"
    },
    {
      "constant": true,
      "inputs": [],
      "name": "runningTips",
      "outputs": [
        {
          "internalType": "bytes32",
          "name": "",
          "type": "bytes32"
        }
      ],
      "payable": false,
      "stateMutability": "view",
      "type": "function"
    },
    {
      "constant": true,
      "inputs": [],
      "name": "slotProgress",
      "outputs": [
        {
          "internalType": "bytes32",
          "name": "",
          "type": "bytes32"
        }
      ],
      "payable": false,
      "stateMutability": "view",
      "type": "function"
    },
    {
      "constant": true,
      "inputs": [],
      "name": "timeOfLastNewValue",
      "outputs": [
        {
          "internalType": "bytes32",
          "name": "",
          "type": "bytes32"
        }
      ],
      "payable": false,
      "stateMutability": "view",
      "type": "function"
    },
    {
      "constant": true,
      "inputs": [],
      "name": "timeTarget",
      "outputs": [
        {
          "internalType": "bytes32",
          "name": "",
          "type": "bytes32"
        }
      ],
      "payable": false,
      "stateMutability": "view",
      "type": "function"
    },
    {
      "constant": true,
      "inputs": [],
      "name": "totalTip",
      "outputs": [
        {
          "internalType": "bytes32",
          "name": "",
          "type": "bytes32"
        }
      ],
      "payable": false,
      "stateMutability": "view",
      "type": "function"
    },
    {
      "constant": true,
      "inputs": [],
      "name": "total_supply",
      "outputs": [
        {
          "internalType": "bytes32",
          "name": "",
          "type": "bytes32"
        }
      ],
      "payable": false,
      "stateMutability": "view",
      "type": "function"
    }
  ],
  "bytecode": "0x613c94610026600b82828239805160001a60731461001957fe5b30600052607381538281f3fe730000000000000000000000000000000000000000301460806040526004361061014c5760003560e01c80635badbe4c116100c25780637f4ec4c3116100865780637f4ec4c3146104b1578063a4bc4067146104cf578063aed04fae14610574578063b0dc7c2014610592578063b2bdfa7b146105b0578063ef84b45f146105ce5761014c565b80635badbe4c1461041b5780636e3cf885146104395780636fc37811146104575780636fd4f2291461047557806375ad1a2a146104935761014c565b80632bf07e9e116101145780632bf07e9e146102555780632dbfd60414610273578063314691ff146103865780633940e9ee146103c1578063561cb04a146103df5780635ae2bfdb146103fd5761014c565b806302e8f21b1461015157806303b3160f146101a057806307621eca146101be57806319cae462146101dc578063291f8b73146101fa575b600080fd5b81801561015d57600080fd5b5061019e6004803603606081101561017457600080fd5b8101908080359060200190929190803590602001909291908035906020019092919050505061061d565b005b6101a8610996565b6040518082815260200191505060405180910390f35b6101c66109bd565b6040518082815260200191505060405180910390f35b6101e46109e4565b6040518082815260200191505060405180910390f35b81801561020657600080fd5b506102536004803603604081101561021d57600080fd5b8101908080359060200190929190803573ffffffffffffffffffffffffffffffffffffffff169060200190929190505050610a0b565b005b61025d610c31565b6040518082815260200191505060405180910390f35b81801561027f57600080fd5b50610384600480360360e081101561029657600080fd5b8101908080359060200190929190803590602001906401000000008111156102bd57600080fd5b8201836020820111156102cf57600080fd5b803590602001918460018302840111640100000000831117156102f157600080fd5b91908080601f016020809104026020016040519081016040528093929190818152602001838380828437600081840152601f19601f8201169050808301925050505050505091929192908060a001906005806020026040519081016040528092919082600560200280828437600081840152601f19601f8201169050808301925050505050509192919290505050610c58565b005b81801561039257600080fd5b506103bf600480360360208110156103a957600080fd5b81019080803590602001909291905050506117cc565b005b6103c9611aa1565b6040518082815260200191505060405180910390f35b6103e7611ac8565b6040518082815260200191505060405180910390f35b610405611aef565b6040518082815260200191505060405180910390f35b610423611b16565b6040518082815260200191505060405180910390f35b610441611b3d565b6040518082815260200191505060405180910390f35b61045f611b64565b6040518082815260200191505060405180910390f35b61047d611b8b565b6040518082815260200191505060405180910390f35b61049b611bb2565b6040518082815260200191505060405180910390f35b6104b9611bd9565b6040518082815260200191505060405180910390f35b8180156104db57600080fd5b5061057260048036036101808110156104f357600080fd5b81019080803590602001909291908035906020019064010000000081111561051a57600080fd5b82018360208201111561052c57600080fd5b8035906020019184600183028401116401000000008311171561054e57600080fd5b90919293919293908060a0019091929192908060a001909192919290505050611c00565b005b61057c611d13565b6040518082815260200191505060405180910390f35b61059a611d3a565b6040518082815260200191505060405180910390f35b6105b8611d61565b6040518082815260200191505060405180910390f35b8180156105da57600080fd5b5061061b600480360360608110156105f157600080fd5b81019080803590602001909291908035906020019092919080359060200190929190505050611d88565b005b6000821415610694576040517f08c379a000000000000000000000000000000000000000000000000000000000815260040180806020018281038252600e8152602001807f526571756573744964206973203000000000000000000000000000000000000081525060200191505060405180910390fd5b600081141561070b576040517f08c379a000000000000000000000000000000000000000000000000000000000815260040180806020018281038252601c8152602001807f5469702073686f756c642062652067726561746572207468616e20300000000081525060200191505060405180910390fd5b600060018460400160007f05de9147d05477c0a5dc675aeea733157f5092f82add148cf39d579cafe3dc9860001b8152602001908152602001600020540190508083141561079557808460400160007f05de9147d05477c0a5dc675aeea733157f5092f82add148cf39d579cafe3dc9860001b81526020019081526020016000208190555061080b565b80831061080a576040517f08c379a00000000000000000000000000000000000000000000000000000000081526004018080602001828103825260208152602001807f526571756573744964206973206e6f74206c657373207468616e20636f756e7481525060200191505060405180910390fd5b5b73__$e6d6eab054cf6cc8ad21596dd9777aec01$__63c7bb46ad853330866040518563ffffffff1660e01b8152600401808581526020018473ffffffffffffffffffffffffffffffffffffffff1673ffffffffffffffffffffffffffffffffffffffff1681526020018373ffffffffffffffffffffffffffffffffffffffff1673ffffffffffffffffffffffffffffffffffffffff16815260200182815260200194505050505060006040518083038186803b1580156108ca57600080fd5b505af41580156108de573d6000803e3d6000fd5b505050506108ed848484611d88565b823373ffffffffffffffffffffffffffffffffffffffff167fd32134405b68f6f7220f9c38ae310df1b648d16188006768d45be2f7c24e88208487604801600088815260200190815260200160002060040160007f2a9e355a92978430eca9c1aa3a9ba590094bac282594bccf82de16b83046e2c360001b815260200190815260200160002054604051808381526020018281526020019250505060405180910390a350505050565b7f6c505cb2db6644f57b42d87bd9407b0f66788b07d0617a2bc1356a0e69e66f9a60001b81565b7f9b6853911475b07474368644a0d922ee13bc76a15cd3e97d3e334326424a47d460001b81565b7fb12aff7664b16cb99339be399b863feecd64d14817be7e1f042f97e3f358e64e60001b81565b81603f0160007f9dbc393ddc18fd27b1d9b1b129059925688d2f2d5818a5ec3ebb750b7c286ea660001b815260200190815260200160002060009054906101000a900473ffffffffffffffffffffffffffffffffffffffff1673ffffffffffffffffffffffffffffffffffffffff163373ffffffffffffffffffffffffffffffffffffffff1614610b04576040517f08c379a00000000000000000000000000000000000000000000000000000000081526004018080602001828103825260138152602001807f53656e646572206973206e6f74206f776e65720000000000000000000000000081525060200191505060405180910390fd5b8073ffffffffffffffffffffffffffffffffffffffff1682603f0160007f9dbc393ddc18fd27b1d9b1b129059925688d2f2d5818a5ec3ebb750b7c286ea660001b815260200190815260200160002060009054906101000a900473ffffffffffffffffffffffffffffffffffffffff1673ffffffffffffffffffffffffffffffffffffffff167fb51454ce8c7f26becd312a46c4815553887f2ec876a0b8dc813b87f62edf6f8060405160405180910390a38082603f0160007f44b2657a0f8a90ed8e62f4c4cceca06eacaa9b4b25751ae1ebca9280a70abd6860001b815260200190815260200160002060006101000a81548173ffffffffffffffffffffffffffffffffffffffff021916908373ffffffffffffffffffffffffffffffffffffffff1602179055505050565b7f1e344bd070f05f1c5b3f0b1266f4f20d837a0a8190a3a2da8b0375eac2ba86ea60001b81565b60008360480160008560400160007f969ea04b74d02bb4d9e6e8e57236e1b9ca31627139ae9f0e465249932e82450260001b8152602001908152602001600020548152602001908152602001600020905060008460400160007f97e6eb29f6a85471f7cc9b57f9e4c3deaf398cfc9798673160d7798baf0b13a460001b815260200190815260200160002054420390506000610cf66104b083612166565b905060008660400160007fb12aff7664b16cb99339be399b863feecd64d14817be7e1f042f97e3f358e64e60001b8152602001908152602001600020549050610fa0828860400160007fad16221efc80aaf1b7e69bd3ecb61ba5ffa539adf129c3b4ffff769c9b5bbc3360001b81526020019081526020016000205403820281610d7c57fe5b0591506000821415610d8d57600191505b610d9a828201600161217f565b8760400160007fb12aff7664b16cb99339be399b863feecd64d14817be7e1f042f97e3f358e64e60001b8152602001908152602001600020819055506000876000015490506000603c4281610deb57fe5b0642039050808960400160007f97e6eb29f6a85471f7cc9b57f9e4c3deaf398cfc9798673160d7798baf0b13a460001b815260200190815260200160002081905550610e35613a83565b60008090505b6005811015611289576000600190505b60058110156110995760008960090160008481526020019081526020016000208260058110610e7657fe5b0154905060008a60080160008581526020019081526020016000208360058110610e9c57fe5b0160009054906101000a900473ffffffffffffffffffffffffffffffffffffffff16905060008390505b600081118015610ef957508b60090160008681526020019081526020016000206001820360058110610ef457fe5b015483105b15610ffa578b60090160008681526020019081526020016000206001820360058110610f2157fe5b01548c60090160008781526020019081526020016000208260058110610f4357fe5b01819055508b60080160008681526020019081526020016000206001820360058110610f6b57fe5b0160009054906101000a900473ffffffffffffffffffffffffffffffffffffffff168c60080160008781526020019081526020016000208260058110610fad57fe5b0160006101000a81548173ffffffffffffffffffffffffffffffffffffffff021916908373ffffffffffffffffffffffffffffffffffffffff160217905550808060019003915050610ec6565b8381101561108957828c6009016000878152602001908152602001600020826005811061102357fe5b0181905550818c6008016000878152602001908152602001600020826005811061104957fe5b0160006101000a81548173ffffffffffffffffffffffffffffffffffffffff021916908373ffffffffffffffffffffffffffffffffffffffff1602179055505b5050508080600101915050610e4b565b5060008b60480160008b84600581106110ae57fe5b60200201518152602001908152602001600020905088600901600083815260200190815260200160002060058060200260405190810160405280929190826005801561110f576020028201915b8154815260200190600101908083116110fb575b505050505092508260026005811061112357fe5b602002015181600601600086815260200190815260200160002081905550886008016000838152602001908152602001600020816008016000868152602001908152602001600020906005611179929190613aa5565b508860090160008381526020019081526020016000208160090160008681526020019081526020016000209060056111b2929190613ae2565b5088600801600083815260200190815260200160002060006111d49190613b1f565b88600901600083815260200190815260200160002060006111f59190613b42565b80600301849080600181540180825580915050906001820390600052602060002001600090919290919091505550438160050160008681526020019081526020016000208190555060008160040160007f2a9e355a92978430eca9c1aa3a9ba590094bac282594bccf82de16b83046e2c360001b815260200190815260200160002081905550508080600101915050610e3b565b50827fbeb3b9f46c8d7bb00c873fca10d307538df350866d25f891ffb395147ddbdc458984848e60400160007fdb21f0c4accc4f2f5f1045353763a9ffe7091ceaf0fcceb5831858d96cf8463160001b8152602001908152602001600020546040518085600560200280838360005b838110156113135780820151818401526020810190506112f8565b5050505090500184815260200183600560200280838360005b8381101561134757808201518184015260208101905061132c565b5050505090500182815260200194505050505060405180910390a28760006005811061136f57fe5b60200201518a604201600084815260200190815260200160002081905550896034018290806001815401808255809150509060018203906000526020600020016000909192909190915055506113c3613b65565b8a60480160008a6000600581106113d657fe5b60200201518152602001908152602001600020600801600084815260200190815260200160002060058060200260405190810160405280929190826005801561146a576020028201915b8160009054906101000a900473ffffffffffffffffffffffffffffffffffffffff1673ffffffffffffffffffffffffffffffffffffffff1681526020019060010190808311611420575b5050505050905061147c8b8883612198565b8a60400160007f969ea04b74d02bb4d9e6e8e57236e1b9ca31627139ae9f0e465249932e82450260001b8152602001908152602001600020600081548092919060010191905055506114cc613a83565b6114d58c6128a4565b905060008090505b6005811015611632578181600581106114f257fe5b60200201518d603501826005811061150657fe5b600202016000018190555060008d6001018e604801600085856005811061152957fe5b6020020151815260200190815260200160002060040160007f1e344bd070f05f1c5b3f0b1266f4f20d837a0a8190a3a2da8b0375eac2ba86ea60001b8152602001908152602001600020546033811061157e57fe5b01819055508c604801600083836005811061159557fe5b6020020151815260200190815260200160002060040160007f2a9e355a92978430eca9c1aa3a9ba590094bac282594bccf82de16b83046e2c360001b8152602001908152602001600020548d60400160007fd26d9834adf5a73309c4974bf654850bb699df8505e70d4cfde365c417b19dfc60001b81526020019081526020016000206000828254019250508190555080806001019150506114dd565b508a8560014303406040516020018080602001848152602001838152602001828103825285818151815260200191508051906020019080838360005b8381101561168957808201518184015260208101905061166e565b50505050905090810190601f1680156116b65780820380516001836020036101000a031916815260200191505b50945050505050604051602081830303815290604052805190602001209450848c60000181905550847f1d85ce10456e29b67de37887496d3f1fcf1b64c79c4d07484038703a9f5c1408828e60400160007fb12aff7664b16cb99339be399b863feecd64d14817be7e1f042f97e3f358e64e60001b8152602001908152602001600020548f60400160007fd26d9834adf5a73309c4974bf654850bb699df8505e70d4cfde365c417b19dfc60001b8152602001908152602001600020546040518084600560200280838360005b8381101561179e578082015181840152602081019050611783565b50505050905001838152602001828152602001935050505060405180910390a2505050505050505050505050565b80603f0160007f44b2657a0f8a90ed8e62f4c4cceca06eacaa9b4b25751ae1ebca9280a70abd6860001b815260200190815260200160002060009054906101000a900473ffffffffffffffffffffffffffffffffffffffff1673ffffffffffffffffffffffffffffffffffffffff163373ffffffffffffffffffffffffffffffffffffffff16146118c5576040517f08c379a000000000000000000000000000000000000000000000000000000000815260040180806020018281038252601b8152602001807f53656e646572206973206e6f742070656e64696e67206f776e6572000000000081525060200191505060405180910390fd5b80603f0160007f44b2657a0f8a90ed8e62f4c4cceca06eacaa9b4b25751ae1ebca9280a70abd6860001b815260200190815260200160002060009054906101000a900473ffffffffffffffffffffffffffffffffffffffff1673ffffffffffffffffffffffffffffffffffffffff1681603f0160007f9dbc393ddc18fd27b1d9b1b129059925688d2f2d5818a5ec3ebb750b7c286ea660001b815260200190815260200160002060009054906101000a900473ffffffffffffffffffffffffffffffffffffffff1673ffffffffffffffffffffffffffffffffffffffff167f8be0079c531659141344cd1fd0a4f28419497f9722a3daafe3b4186f6b6457e060405160405180910390a380603f0160007f44b2657a0f8a90ed8e62f4c4cceca06eacaa9b4b25751ae1ebca9280a70abd6860001b815260200190815260200160002060009054906101000a900473ffffffffffffffffffffffffffffffffffffffff1681603f0160007f9dbc393ddc18fd27b1d9b1b129059925688d2f2d5818a5ec3ebb750b7c286ea660001b815260200190815260200160002060006101000a81548173ffffffffffffffffffffffffffffffffffffffff021916908373ffffffffffffffffffffffffffffffffffffffff16021790555050565b7fb1557182e4359a1f0c6301278e8f5b35a776ab58d39892581e357578fb28783660001b81565b7f2a9e355a92978430eca9c1aa3a9ba590094bac282594bccf82de16b83046e2c360001b81565b7f7584d7d8701714da9c117f5bf30af73b0b88aca5338a84a21eb28de2fe0d93b860001b81565b7f05de9147d05477c0a5dc675aeea733157f5092f82add148cf39d579cafe3dc9860001b81565b7f969ea04b74d02bb4d9e6e8e57236e1b9ca31627139ae9f0e465249932e82450260001b81565b7fad16221efc80aaf1b7e69bd3ecb61ba5ffa539adf129c3b4ffff769c9b5bbc3360001b81565b7f97e6eb29f6a85471f7cc9b57f9e4c3deaf398cfc9798673160d7798baf0b13a460001b81565b7fd26d9834adf5a73309c4974bf654850bb699df8505e70d4cfde365c417b19dfc60001b81565b7f44b2657a0f8a90ed8e62f4c4cceca06eacaa9b4b25751ae1ebca9280a70abd6860001b81565b611c4e8585858080601f016020809104026020016040519081016040528093929190818152602001838380828437600081840152601f19601f820116905080830192505050505050506129b8565b611d0c8585858080601f016020809104026020016040519081016040528093929190818152602001838380828437600081840152601f19601f82011690508083019250505050505050846005806020026040519081016040528092919082600560200280828437600081840152601f19601f820116905080830192505050505050846005806020026040519081016040528092919082600560200280828437600081840152601f19601f820116905080830192505050505050612cda565b5050505050565b7f8fe9ded8d7c08f720cf0340699024f83522ea66b2bbfb8f557851cb9ee63b54c60001b81565b7fdb21f0c4accc4f2f5f1045353763a9ffe7091ceaf0fcceb5831858d96cf8463160001b81565b7f9dbc393ddc18fd27b1d9b1b129059925688d2f2d5818a5ec3ebb750b7c286ea660001b81565b60008360480160008481526020019081526020016000209050611dec828260040160007f2a9e355a92978430eca9c1aa3a9ba590094bac282594bccf82de16b83046e2c360001b81526020019081526020016000205461386290919063ffffffff16565b8160040160007f2a9e355a92978430eca9c1aa3a9ba590094bac282594bccf82de16b83046e2c360001b8152602001908152602001600020819055508284603501600060058110611e3957fe5b60020201600001541480611e6357508284603501600160058110611e5957fe5b6002020160000154145b80611e8457508284603501600260058110611e7a57fe5b6002020160000154145b80611ea557508284603501600360058110611e9b57fe5b6002020160000154145b80611ec657508284603501600460058110611ebc57fe5b6002020160000154145b15611f1657818460400160007fd26d9834adf5a73309c4974bf654850bb699df8505e70d4cfde365c417b19dfc60001b815260200190815260200160002060008282540192505081905550612160565b60008160040160007f1e344bd070f05f1c5b3f0b1266f4f20d837a0a8190a3a2da8b0375eac2ba86ea60001b815260200190815260200160002054141561210857600080611fa286600101603380602002604051908101604052809291908260338015611f98576020028201915b815481526020019060010190808311611f84575b505050505061387e565b8092508193505050818360040160007f2a9e355a92978430eca9c1aa3a9ba590094bac282594bccf82de16b83046e2c360001b8152602001908152602001600020541180611ff05750600082145b15612101578260040160007f2a9e355a92978430eca9c1aa3a9ba590094bac282594bccf82de16b83046e2c360001b81526020019081526020016000205486600101826033811061203d57fe5b0181905550600086604801600088604301600085815260200190815260200160002054815260200190815260200160002060040160007f1e344bd070f05f1c5b3f0b1266f4f20d837a0a8190a3a2da8b0375eac2ba86ea60001b8152602001908152602001600020819055508486604301600083815260200190815260200160002081905550808360040160007f1e344bd070f05f1c5b3f0b1266f4f20d837a0a8190a3a2da8b0375eac2ba86ea60001b8152602001908152602001600020819055505b505061215f565b81846001018260040160007f1e344bd070f05f1c5b3f0b1266f4f20d837a0a8190a3a2da8b0375eac2ba86ea60001b8152602001908152602001600020546033811061215057fe5b01600082825401925050819055505b5b50505050565b60008183106121755781612177565b825b905092915050565b600081831361218e5781612190565b825b905092915050565b6000670de0b6b3a76400009050600061012c828502816121b457fe5b0490506000600a8660400160007fd26d9834adf5a73309c4974bf654850bb699df8505e70d4cfde365c417b19dfc60001b815260200190815260200160002054816121fb57fe5b04905060006002838161220a57fe5b04905073__$e6d6eab054cf6cc8ad21596dd9777aec01$__63c7bb46ad88308860006005811061223657fe5b60200201518688016040518563ffffffff1660e01b8152600401808581526020018473ffffffffffffffffffffffffffffffffffffffff1673ffffffffffffffffffffffffffffffffffffffff1681526020018373ffffffffffffffffffffffffffffffffffffffff1673ffffffffffffffffffffffffffffffffffffffff16815260200182815260200194505050505060006040518083038186803b1580156122df57600080fd5b505af41580156122f3573d6000803e3d6000fd5b5050505073__$e6d6eab054cf6cc8ad21596dd9777aec01$__63c7bb46ad88308860016005811061232057fe5b60200201518688016040518563ffffffff1660e01b8152600401808581526020018473ffffffffffffffffffffffffffffffffffffffff1673ffffffffffffffffffffffffffffffffffffffff1681526020018373ffffffffffffffffffffffffffffffffffffffff1673ffffffffffffffffffffffffffffffffffffffff16815260200182815260200194505050505060006040518083038186803b1580156123c957600080fd5b505af41580156123dd573d6000803e3d6000fd5b5050505073__$e6d6eab054cf6cc8ad21596dd9777aec01$__63c7bb46ad88308860026005811061240a57fe5b60200201518688016040518563ffffffff1660e01b8152600401808581526020018473ffffffffffffffffffffffffffffffffffffffff1673ffffffffffffffffffffffffffffffffffffffff1681526020018373ffffffffffffffffffffffffffffffffffffffff1673ffffffffffffffffffffffffffffffffffffffff16815260200182815260200194505050505060006040518083038186803b1580156124b357600080fd5b505af41580156124c7573d6000803e3d6000fd5b5050505073__$e6d6eab054cf6cc8ad21596dd9777aec01$__63c7bb46ad8830886003600581106124f457fe5b60200201518688016040518563ffffffff1660e01b8152600401808581526020018473ffffffffffffffffffffffffffffffffffffffff1673ffffffffffffffffffffffffffffffffffffffff1681526020018373ffffffffffffffffffffffffffffffffffffffff1673ffffffffffffffffffffffffffffffffffffffff16815260200182815260200194505050505060006040518083038186803b15801561259d57600080fd5b505af41580156125b1573d6000803e3d6000fd5b5050505073__$e6d6eab054cf6cc8ad21596dd9777aec01$__63c7bb46ad8830886004600581106125de57fe5b60200201518688016040518563ffffffff1660e01b8152600401808581526020018473ffffffffffffffffffffffffffffffffffffffff1673ffffffffffffffffffffffffffffffffffffffff1681526020018373ffffffffffffffffffffffffffffffffffffffff1673ffffffffffffffffffffffffffffffffffffffff16815260200182815260200194505050505060006040518083038186803b15801561268757600080fd5b505af415801561269b573d6000803e3d6000fd5b5050505060028760400160007fd26d9834adf5a73309c4974bf654850bb699df8505e70d4cfde365c417b19dfc60001b815260200190815260200160002054816126e157fe5b04600584028201038760400160007fb1557182e4359a1f0c6301278e8f5b35a776ab58d39892581e357578fb28783660001b81526020019081526020016000206000828254019250508190555073__$e6d6eab054cf6cc8ad21596dd9777aec01$__63c7bb46ad88308a603f0160007f9dbc393ddc18fd27b1d9b1b129059925688d2f2d5818a5ec3ebb750b7c286ea660001b815260200190815260200160002060009054906101000a900473ffffffffffffffffffffffffffffffffffffffff16856040518563ffffffff1660e01b8152600401808581526020018473ffffffffffffffffffffffffffffffffffffffff1673ffffffffffffffffffffffffffffffffffffffff1681526020018373ffffffffffffffffffffffffffffffffffffffff1673ffffffffffffffffffffffffffffffffffffffff16815260200182815260200194505050505060006040518083038186803b15801561284557600080fd5b505af4158015612859573d6000803e3d6000fd5b5050505060008760400160007fd26d9834adf5a73309c4974bf654850bb699df8505e70d4cfde365c417b19dfc60001b81526020019081526020016000208190555050505050505050565b6128ac613a83565b6128b4613a83565b6128bc613a83565b612904846001016033806020026040519081016040528092919082603380156128fa576020028201915b8154815260200190600101908083116128e6575b50505050506138f1565b809250819350505060008090505b60058110156129b057600083826005811061292957fe5b6020020151146129735784604301600083836005811061294557fe5b602002015181526020019081526020016000205484826005811061296557fe5b6020020181815250506129a3565b84603501816004036005811061298557fe5b600202016000015484826005811061299957fe5b6020020181815250505b8080600101915050612912565b505050919050565b60008260400160007fb12aff7664b16cb99339be399b863feecd64d14817be7e1f042f97e3f358e64e60001b8152602001908152602001600020546002600385600001543386604051602001808481526020018373ffffffffffffffffffffffffffffffffffffffff1673ffffffffffffffffffffffffffffffffffffffff1660601b815260140182805190602001908083835b60208310612a6f5780518252602082019150602081019050602083039250612a4c565b6001836020036101000a038019825116818451168082178552505050505050905001935050505060405160208183030381529060405280519060200120604051602001808281526020019150506040516020818303038152906040526040518082805190602001908083835b60208310612afe5780518252602082019150602081019050602083039250612adb565b6001836020036101000a038019825116818451168082178552505050505050905001915050602060405180830381855afa158015612b40573d6000803e3d6000fd5b5050506040515160601b60405160200180826bffffffffffffffffffffffff19166bffffffffffffffffffffffff191681526014019150506040516020818303038152906040526040518082805190602001908083835b60208310612bba5780518252602082019150602081019050602083039250612b97565b6001836020036101000a038019825116818451168082178552505050505050905001915050602060405180830381855afa158015612bfc573d6000803e3d6000fd5b5050506040513d6020811015612c1157600080fd5b810190808051906020019092919050505060001c81612c2c57fe5b061480612c8157506103848260400160007f97e6eb29f6a85471f7cc9b57f9e4c3deaf398cfc9798673160d7798baf0b13a460001b815260200190815260200160002054603c4281612c7a57fe5b0642030310155b612cd6576040517f08c379a0000000000000000000000000000000000000000000000000000000008152600401808060200182810382526025815260200180613c3b6025913960400191505060405180910390fd5b5050565b600033604051602001808273ffffffffffffffffffffffffffffffffffffffff1673ffffffffffffffffffffffffffffffffffffffff16815260200191505060405160208183030381529060405280519060200120905060018560470160003373ffffffffffffffffffffffffffffffffffffffff1673ffffffffffffffffffffffffffffffffffffffff1681526020019081526020016000206000015414612deb576040517f08c379a000000000000000000000000000000000000000000000000000000000815260040180806020018281038252601a8152602001807f4d696e657220737461747573206973206e6f74207374616b657200000000000081525060200191505060405180910390fd5b61038485604001600083815260200190815260200160002054420311612e5c576040517f08c379a000000000000000000000000000000000000000000000000000000000815260040180806020018281038252602a815260200180613bf0602a913960400191505060405180910390fd5b84603501600060058110612e6c57fe5b600202016000015483600060058110612e8157fe5b602002015114612ef9576040517f08c379a00000000000000000000000000000000000000000000000000000000081526004018080602001828103825260138152602001807f526571756573742049442069732077726f6e670000000000000000000000000081525060200191505060405180910390fd5b84603501600160058110612f0957fe5b600202016000015483600160058110612f1e57fe5b602002015114612f96576040517f08c379a00000000000000000000000000000000000000000000000000000000081526004018080602001828103825260138152602001807f526571756573742049442069732077726f6e670000000000000000000000000081525060200191505060405180910390fd5b84603501600260058110612fa657fe5b600202016000015483600260058110612fbb57fe5b602002015114613033576040517f08c379a00000000000000000000000000000000000000000000000000000000081526004018080602001828103825260138152602001807f526571756573742049442069732077726f6e670000000000000000000000000081525060200191505060405180910390fd5b8460350160036005811061304357fe5b60020201600001548360036005811061305857fe5b6020020151146130d0576040517f08c379a00000000000000000000000000000000000000000000000000000000081526004018080602001828103825260138152602001807f526571756573742049442069732077726f6e670000000000000000000000000081525060200191505060405180910390fd5b846035016004600581106130e057fe5b6002020160000154836004600581106130f557fe5b60200201511461316d576040517f08c379a00000000000000000000000000000000000000000000000000000000081526004018080602001828103825260138152602001807f526571756573742049442069732077726f6e670000000000000000000000000081525060200191505060405180910390fd5b428560400160008381526020019081526020016000208190555060008560000154905060008660400160007f6c505cb2db6644f57b42d87bd9407b0f66788b07d0617a2bc1356a0e69e66f9a60001b81526020019081526020016000205490506000151587604101600084815260200190815260200160002060003373ffffffffffffffffffffffffffffffffffffffff1673ffffffffffffffffffffffffffffffffffffffff16815260200190815260200160002060009054906101000a900460ff16151514613289576040517f08c379a0000000000000000000000000000000000000000000000000000000008152600401808060200182810382526021815260200180613c1a6021913960400191505060405180910390fd5b600187604101600084815260200190815260200160002060003373ffffffffffffffffffffffffffffffffffffffff1673ffffffffffffffffffffffffffffffffffffffff16815260200190815260200160002060006101000a81548160ff02191690831515021790555060008760480160008960400160007f969ea04b74d02bb4d9e6e8e57236e1b9ca31627139ae9f0e465249932e82450260001b815260200190815260200160002054815260200190815260200160002090503381600801600060018152602001908152602001600020836005811061336757fe5b0160006101000a81548173ffffffffffffffffffffffffffffffffffffffff021916908373ffffffffffffffffffffffffffffffffffffffff160217905550846000600581106133b357fe5b602002015181600901600080815260200190815260200160002083600581106133d857fe5b0181905550846001600581106133ea57fe5b602002015181600901600060018152602001908152602001600020836005811061341057fe5b01819055508460026005811061342257fe5b602002015181600901600060028152602001908152602001600020836005811061344857fe5b01819055508460036005811061345a57fe5b602002015181600901600060038152602001908152602001600020836005811061348057fe5b01819055508460046005811061349257fe5b60200201518160090160006004815260200190815260200160002083600581106134b857fe5b01819055503381600801600080815260200190815260200160002083600581106134de57fe5b0160006101000a81548173ffffffffffffffffffffffffffffffffffffffff021916908373ffffffffffffffffffffffffffffffffffffffff1602179055503381600801600060018152602001908152602001600020836005811061353f57fe5b0160006101000a81548173ffffffffffffffffffffffffffffffffffffffff021916908373ffffffffffffffffffffffffffffffffffffffff160217905550338160080160006002815260200190815260200160002083600581106135a057fe5b0160006101000a81548173ffffffffffffffffffffffffffffffffffffffff021916908373ffffffffffffffffffffffffffffffffffffffff1602179055503381600801600060038152602001908152602001600020836005811061360157fe5b0160006101000a81548173ffffffffffffffffffffffffffffffffffffffff021916908373ffffffffffffffffffffffffffffffffffffffff1602179055503381600801600060048152602001908152602001600020836005811061366257fe5b0160006101000a81548173ffffffffffffffffffffffffffffffffffffffff021916908373ffffffffffffffffffffffffffffffffffffffff16021790555060056001830114156136fb576136b8888888610c58565b60008860400160007f6c505cb2db6644f57b42d87bd9407b0f66788b07d0617a2bc1356a0e69e66f9a60001b815260200190815260200160002081905550613744565b8760400160007f6c505cb2db6644f57b42d87bd9407b0f66788b07d0617a2bc1356a0e69e66f9a60001b8152602001908152602001600020600081548092919060010191905055505b823373ffffffffffffffffffffffffffffffffffffffff167f0e4e65dc389613b6884b7f8c615e54fd3b894fbbbc534c990037744eea942000898989604051808060200184600560200280838360005b838110156137af578082015181840152602081019050613794565b5050505090500183600560200280838360005b838110156137dd5780820151818401526020810190506137c2565b50505050905001828103825285818151815260200191508051906020019080838360005b8381101561381c578082015181840152602081019050613801565b50505050905090810190601f1680156138495780820380516001836020036101000a031916815260200191505b5094505050505060405180910390a35050505050505050565b60008082840190508381101561387457fe5b8091505092915050565b6000806001603303905082816033811061389457fe5b602002015191506000600260330390505b60008111156138eb57828482603381106138bb57fe5b602002015110156138dd578381603381106138d257fe5b602002015192508091505b8080600190039150506138a5565b50915091565b6138f9613a83565b613901613a83565b60008360016033811061391057fe5b60200201519050600080905060008090505b60058110156139a95785600182016033811061393a57fe5b602002015185826005811061394b57fe5b6020020181815250506001810184826005811061396457fe5b6020020181815250508285826005811061397a57fe5b6020020151101561399c5784816005811061399157fe5b602002015192508091505b8080600101915050613922565b506000600690505b6033811015613a7b57828682603381106139c757fe5b60200201511115613a6e578581603381106139de57fe5b60200201518583600581106139ef57fe5b60200201818152505080848360058110613a0557fe5b602002018181525050858160338110613a1a57fe5b6020020151925060008090505b6005811015613a6c5783868260058110613a3d57fe5b60200201511015613a5f57858160058110613a5457fe5b602002015193508092505b8080600101915050613a27565b505b80806001019150506139b1565b505050915091565b6040518060a00160405280600590602082028038833980820191505090505090565b8260058101928215613ad1579182015b82811115613ad0578254825591600101919060010190613ab5565b5b509050613ade9190613b87565b5090565b8260058101928215613b0e579182015b82811115613b0d578254825591600101919060010190613af2565b5b509050613b1b9190613bca565b5090565b506000815560010160008155600101600081556001016000815560010160009055565b506000815560010160008155600101600081556001016000815560010160009055565b6040518060a00160405280600590602082028038833980820191505090505090565b613bc791905b80821115613bc357600081816101000a81549073ffffffffffffffffffffffffffffffffffffffff021916905550600101613b8d565b5090565b90565b613bec91905b80821115613be8576000816000905550600101613bd0565b5090565b9056fe4d696e65722063616e206f6e6c792077696e2072657761726473206f6e636520706572203135206d696e4d696e657220616c7265616479207375626d6974746564207468652076616c7565496e636f7272656374206e6f6e636520666f722063757272656e74206368616c6c656e6765a265627a7a72315820f67c13e96df6ebb8ef1b87cc7f6294cb3f5aa28dc019573e0ea6dcff635468a264736f6c63430005100032",
  "linkReferences": {
    "contracts/libraries/TellorTransfer.sol": {
      "TellorTransfer": [
        {
          "length": 20,
          "start": 2099
        },
        {
          "length": 20,
          "start": 8757
        },
        {
          "length": 20,
          "start": 8991
        },
        {
          "length": 20,
          "start": 9225
        },
        {
          "length": 20,
          "start": 9459
        },
        {
          "length": 20,
          "start": 9693
        },
        {
          "length": 20,
          "start": 10070
        }
      ]
    }
  },
  "deployedLinkReferences": {
    "contracts/libraries/TellorTransfer.sol": {
      "TellorTransfer": [
        {
          "length": 20,
          "start": 2061
        },
        {
          "length": 20,
          "start": 8719
        },
        {
          "length": 20,
          "start": 8953
        },
        {
          "length": 20,
          "start": 9187
        },
        {
          "length": 20,
          "start": 9421
        },
        {
          "length": 20,
          "start": 9655
        },
        {
          "length": 20,
          "start": 10032
        }
      ]
    }
  }
}