{
  "_format": "hh-sol-artifact-1",
  "contractName": "MockTellor",
  "sourceName": "contracts/mocks/MockTellor.sol",
  "abi": [
    {
      "constant": false,
      "inputs": [
        {
          "internalType": "uint256",
          "name": "_requestId",
          "type": "uint256"
        },
        {
          "internalType": "uint256",
          "name": "_tip",
          "type": "uint256"
        }
      ],
      "name": "addTip",
      "outputs": [],
      "payable": false,
      "stateMutability": "nonpayable",
      "type": "function"
    },
    {
      "constant": false,
      "inputs": [
        {
          "internalType": "address",
          "name": "_spender",
          "type": "address"
        },
        {
          "internalType": "uint256",
          "name": "_amount",
          "type": "uint256"
        }
      ],
      "name": "approve",
      "outputs": [
        {
          "internalType": "bool",
          "name": "",
          "type": "bool"
        }
      ],
      "payable": false,
      "stateMutability": "nonpayable",
      "type": "function"
    },
    {
      "constant": true,
      "inputs": [],
      "name": "decimals",
      "outputs": [
        {
          "internalType": "uint8",
          "name": "",
          "type": "uint8"
        }
      ],
      "payable": false,
      "stateMutability": "pure",
      "type": "function"
    },
    {
      "constant": true,
      "inputs": [],
      "name": "name",
      "outputs": [
        {
          "internalType": "string",
          "name": "",
          "type": "string"
        }
      ],
      "payable": false,
      "stateMutability": "pure",
      "type": "function"
    },
    {
      "constant": false,
      "inputs": [
        {
          "internalType": "string",
          "name": "_nonce",
          "type": "string"
        },
        {
          "internalType": "uint256[5]",
          "name": "_requestId",
          "type": "uint256[5]"
        },
        {
          "internalType": "uint256[5]",
          "name": "_value",
          "type": "uint256[5]"
        }
      ],
      "name": "submitMiningSolution",
      "outputs": [],
      "payable": false,
      "stateMutability": "nonpayable",
      "type": "function"
    },
    {
      "constant": true,
      "inputs": [],
      "name": "symbol",
      "outputs": [
        {
          "internalType": "string",
          "name": "",
          "type": "string"
        }
      ],
      "payable": false,
      "stateMutability": "pure",
      "type": "function"
    },
    {
      "constant": false,
      "inputs": [
        {
          "internalType": "address",
          "name": "_address",
          "type": "address"
        },
        {
          "internalType": "uint256",
          "name": "_amount",
          "type": "uint256"
        }
      ],
      "name": "theLazyCoon",
      "outputs": [],
      "payable": false,
      "stateMutability": "nonpayable",
      "type": "function"
    },
    {
      "constant": false,
      "inputs": [
        {
          "internalType": "address",
          "name": "_to",
          "type": "address"
        },
        {
          "internalType": "uint256",
          "name": "_amount",
          "type": "uint256"
        }
      ],
      "name": "transfer",
      "outputs": [
        {
          "internalType": "bool",
          "name": "",
          "type": "bool"
        }
      ],
      "payable": false,
      "stateMutability": "nonpayable",
      "type": "function"
    },
    {
      "constant": false,
      "inputs": [
        {
          "internalType": "address",
          "name": "_from",
          "type": "address"
        },
        {
          "internalType": "address",
          "name": "_to",
          "type": "address"
        },
        {
          "internalType": "uint256",
          "name": "_amount",
          "type": "uint256"
        }
      ],
      "name": "transferFrom",
      "outputs": [
        {
          "internalType": "bool",
          "name": "",
          "type": "bool"
        }
      ],
      "payable": false,
      "stateMutability": "nonpayable",
      "type": "function"
    }
  ],
  "bytecode": "0x608060405234801561001057600080fd5b5061099d806100206000396000f3fe608060405234801561001057600080fd5b50600436106100935760003560e01c80634350283e116100665780634350283e1461022b578063752d49a1146102b957806395d89b41146102f1578063a9059cbb14610374578063b079f64a146103da57610093565b806306fdde0314610098578063095ea7b31461011b57806323b872dd14610181578063313ce56714610207575b600080fd5b6100a0610428565b6040518080602001828103825283818151815260200191508051906020019080838360005b838110156100e05780820151818401526020810190506100c5565b50505050905090810190601f16801561010d5780820380516001836020036101000a031916815260200191505b509250505060405180910390f35b6101676004803603604081101561013157600080fd5b81019080803573ffffffffffffffffffffffffffffffffffffffff16906020019092919080359060200190929190505050610465565b604051808215151515815260200191505060405180910390f35b6101ed6004803603606081101561019757600080fd5b81019080803573ffffffffffffffffffffffffffffffffffffffff169060200190929190803573ffffffffffffffffffffffffffffffffffffffff16906020019092919080359060200190929190505050610537565b604051808215151515815260200191505060405180910390f35b61020f61063e565b604051808260ff1660ff16815260200191505060405180910390f35b6102b7600480360361016081101561024257600080fd5b810190808035906020019064010000000081111561025f57600080fd5b82018360208201111561027157600080fd5b8035906020019184600183028401116401000000008311171561029357600080fd5b90919293919293908060a0019091929192908060a001909192919290505050610647565b005b6102ef600480360360408110156102cf57600080fd5b810190808035906020019092919080359060200190929190505050610731565b005b6102f96107af565b6040518080602001828103825283818151815260200191508051906020019080838360005b8381101561033957808201518184015260208101905061031e565b50505050905090810190601f1680156103665780820380516001836020036101000a031916815260200191505b509250505060405180910390f35b6103c06004803603604081101561038a57600080fd5b81019080803573ffffffffffffffffffffffffffffffffffffffff169060200190929190803590602001909291905050506107ec565b604051808215151515815260200191505060405180910390f35b610426600480360360408110156103f057600080fd5b81019080803573ffffffffffffffffffffffffffffffffffffffff169060200190929190803590602001909291905050506108be565b005b60606040518060400160405280600f81526020017f54656c6c6f722054726962757465730000000000000000000000000000000000815250905090565b60008073__$bc836146cf9fcc905f3c529369eb63c028$__639cfd8dea909185856040518463ffffffff1660e01b8152600401808481526020018373ffffffffffffffffffffffffffffffffffffffff1673ffffffffffffffffffffffffffffffffffffffff168152602001828152602001935050505060206040518083038186803b1580156104f457600080fd5b505af4158015610508573d6000803e3d6000fd5b505050506040513d602081101561051e57600080fd5b8101908080519060200190929190505050905092915050565b60008073__$bc836146cf9fcc905f3c529369eb63c028$__63bc65725b90918686866040518563ffffffff1660e01b8152600401808581526020018473ffffffffffffffffffffffffffffffffffffffff1673ffffffffffffffffffffffffffffffffffffffff1681526020018373ffffffffffffffffffffffffffffffffffffffff1673ffffffffffffffffffffffffffffffffffffffff16815260200182815260200194505050505060206040518083038186803b1580156105fa57600080fd5b505af415801561060e573d6000803e3d6000fd5b505050506040513d602081101561062457600080fd5b810190808051906020019092919050505090509392505050565b60006012905090565b600073__$3898909350be18bd7f683532cad4f10769$__63a6d1b3f79091868686866040518663ffffffff1660e01b8152600401808681526020018060200184600560200280828437600081840152601f19601f82011690508083019250505083600560200280828437600081840152601f19601f8201169050808301925050508281038252868682818152602001925080828437600081840152601f19601f820116905080830192505050965050505050505060006040518083038186803b15801561071357600080fd5b505af4158015610727573d6000803e3d6000fd5b5050505050505050565b600073__$3898909350be18bd7f683532cad4f10769$__63b60008cd909184846040518463ffffffff1660e01b815260040180848152602001838152602001828152602001935050505060006040518083038186803b15801561079357600080fd5b505af41580156107a7573d6000803e3d6000fd5b505050505050565b60606040518060400160405280600381526020017f5452420000000000000000000000000000000000000000000000000000000000815250905090565b60008073__$bc836146cf9fcc905f3c529369eb63c028$__632e2483e9909185856040518463ffffffff1660e01b8152600401808481526020018373ffffffffffffffffffffffffffffffffffffffff1673ffffffffffffffffffffffffffffffffffffffff168152602001828152602001935050505060206040518083038186803b15801561087b57600080fd5b505af415801561088f573d6000803e3d6000fd5b505050506040513d60208110156108a557600080fd5b8101908080519060200190929190505050905092915050565b600073__$3898909350be18bd7f683532cad4f10769$__6360592f14909184846040518463ffffffff1660e01b8152600401808481526020018373ffffffffffffffffffffffffffffffffffffffff1673ffffffffffffffffffffffffffffffffffffffff168152602001828152602001935050505060006040518083038186803b15801561094c57600080fd5b505af4158015610960573d6000803e3d6000fd5b50505050505056fea265627a7a7231582012e609a26f58566ff4e47bb106820f5f4581d3ca6029dd9132f45df8dd634b3964736f6c63430005100032",
  "linkReferences": {
    "contracts/mocks/MockTellorLibrary.sol": {
      "MockTellorLibrary": [
        {
          "length": 20,
          "start": 1643
        },
        {
          "length": 20,
          "start": 1877
        },
        {
          "length": 20,
          "start": 2274
        }
      ],
      "MockTellorTransfer": [
        {
          "length": 20,
          "start": 1162
        },
        {
          "length": 20,
          "start": 1372
        },
        {
          "length": 20,
          "start": 2065
        }
      ]
    }
  },
  "deployedLinkReferences": {
    "contracts/mocks/MockTellorLibrary.sol": {
      "MockTellorLibrary": [
        {
          "length": 20,
          "start": 1611
        },
        {
          "length": 20,
          "start": 1845
        },
        {
          "length": 20,
          "start": 2242
        }
      ],
      "MockTellorTransfer": [
        {
          "length": 20,
          "start": 1130
        },
        {
          "length": 20,
          "start": 1340
        },
        {
          "length": 20,
          "start": 2033
        }
      ]
    }
  }
}