{
  "_format": "hh-sol-artifact-1",
  "contractName": "TellorTransition",
  "sourceName": "contracts/TransitionContract.sol",
  "abi": [
    {
      "payable": true,
      "stateMutability": "payable",
      "type": "fallback"
    },
    {
      "constant": true,
      "inputs": [],
      "name": "currentTellor",
      "outputs": [
        {
          "internalType": "address",
          "name": "",
          "type": "address"
        }
      ],
      "payable": false,
      "stateMutability": "view",
      "type": "function"
    },
    {
      "constant": true,
      "inputs": [],
      "name": "newTellor",
      "outputs": [
        {
          "internalType": "address",
          "name": "",
          "type": "address"
        }
      ],
      "payable": false,
      "stateMutability": "view",
      "type": "function"
    }
  ],
  "bytecode": "0x608060405234801561001057600080fd5b50610404806100206000396000f3fe6080604052600436106100295760003560e01c806371fa6b84146100e1578063ac01ef4b14610138575b6000736511d2957aa09350494f892ce2881851f0bb26d3905061004a61018f565b1561006f576100576101f5565b73032aa32e4069318b15e6462ce20926d4d821de9090505b60606000368080601f016020809104026020016040519081016040528093929190818152602001838380828437600081840152601f19601f82011690508083019250505050505050905060008082516020840185600019f43d604051816000823e82600081146100dd578282f35b8282fd5b3480156100ed57600080fd5b506100f661039f565b604051808273ffffffffffffffffffffffffffffffffffffffff1673ffffffffffffffffffffffffffffffffffffffff16815260200191505060405180910390f35b34801561014457600080fd5b5061014d6103b7565b604051808273ffffffffffffffffffffffffffffffffffffffff1673ffffffffffffffffffffffffffffffffffffffff16815260200191505060405180910390f35b6000806000604001600060405180807f736c6f7450726f67726573730000000000000000000000000000000000000000815250600c019050604051809103902081526020019081526020016000205414156101ed57600190506101f2565b600090505b90565b670de0b6b3a76400006000604001600060405180807f63757272656e7452657761726400000000000000000000000000000000000000815250600d0190506040518091039020815260200190815260200160002081905550681b1ae4d6e2ef5000006000604001600060405180807f7374616b65416d6f756e74000000000000000000000000000000000000000000815250600b0190506040518091039020815260200190815260200160002081905550681b1ae4d6e2ef5000006000604001600060405180807f6469737075746546656500000000000000000000000000000000000000000000815250600a019050604051809103902081526020019081526020016000208190555073032aa32e4069318b15e6462ce20926d4d821de906000603f01600060405180807f74656c6c6f72436f6e7472616374000000000000000000000000000000000000815250600e0190506040518091039020815260200190815260200160002060006101000a81548173ffffffffffffffffffffffffffffffffffffffff021916908373ffffffffffffffffffffffffffffffffffffffff160217905550565b736511d2957aa09350494f892ce2881851f0bb26d381565b73032aa32e4069318b15e6462ce20926d4d821de908156fea265627a7a723158201f66db6aa314e8c79ddfdb3c5c61dd8963e1413dca48d2e56d1159a19f39f5b964736f6c63430005100032",
  "linkReferences": {},
  "deployedLinkReferences": {}
}